{"contracts/metaverse.sol":{"metaverse":{"abi":[{"inputs":[],"stateMutability":"nonpayable","type":"constructor"},{"inputs":[{"internalType":"address","name":"operator","type":"address"}],"name":"OperatorNotAllowed","type":"error"},{"anonymous":false,"inputs":[{"indexed":true,"internalType":"address","name":"owner","type":"address"},{"indexed":true,"internalType":"address","name":"approved","type":"address"},{"indexed":true,"internalType":"uint256","name":"tokenId","type":"uint256"}],"name":"Approval","type":"event"},{"anonymous":false,"inputs":[{"indexed":true,"internalType":"address","name":"owner","type":"address"},{"indexed":true,"internalType":"address","name":"operator","type":"address"},{"indexed":false,"internalType":"bool","name":"approved","type":"bool"}],"name":"ApprovalForAll","type":"event"},{"anonymous":false,"inputs":[{"indexed":true,"internalType":"address","name":"previousOwner","type":"address"},{"indexed":true,"internalType":"address","name":"newOwner","type":"address"}],"name":"OwnershipTransferred","type":"event"},{"anonymous":false,"inputs":[{"indexed":true,"internalType":"address","name":"from","type":"address"},{"indexed":true,"internalType":"address","name":"to","type":"address"},{"indexed":true,"internalType":"uint256","name":"tokenId","type":"uint256"}],"name":"Transfer","type":"event"},{"inputs":[],"name":"COST","outputs":[{"internalType":"uint256","name":"","type":"uint256"}],"stateMutability":"view","type":"function"},{"inputs":[],"name":"MAX_SUPPLY","outputs":[{"internalType":"uint256","name":"","type":"uint256"}],"stateMutability":"view","type":"function"},{"inputs":[],"name":"OPERATOR_FILTER_REGISTRY","outputs":[{"internalType":"contract IOperatorFilterRegistry","name":"","type":"address"}],"stateMutability":"view","type":"function"},{"inputs":[{"internalType":"address","name":"operator","type":"address"},{"internalType":"uint256","name":"tokenId","type":"uint256"}],"name":"approve","outputs":[],"stateMutability":"nonpayable","type":"function"},{"inputs":[{"internalType":"address","name":"owner","type":"address"}],"name":"balanceOf","outputs":[{"internalType":"uint256","name":"","type":"uint256"}],"stateMutability":"view","type":"function"},{"inputs":[{"internalType":"uint256","name":"","type":"uint256"}],"name":"buildings","outputs":[{"internalType":"string","name":"name","type":"string"},{"internalType":"int8","name":"w","type":"int8"},{"internalType":"int8","name":"h","type":"int8"},{"internalType":"int8","name":"d","type":"int8"},{"internalType":"int8","name":"x","type":"int8"},{"internalType":"int8","name":"y","type":"int8"},{"internalType":"int8","name":"z","type":"int8"}],"stateMutability":"view","type":"function"},{"inputs":[{"internalType":"uint256","name":"tokenId","type":"uint256"}],"name":"getApproved","outputs":[{"internalType":"address","name":"","type":"address"}],"stateMutability":"view","type":"function"},{"inputs":[],"name":"getBuildings","outputs":[{"components":[{"internalType":"string","name":"name","type":"string"},{"internalType":"int8","name":"w","type":"int8"},{"internalType":"int8","name":"h","type":"int8"},{"internalType":"int8","name":"d","type":"int8"},{"internalType":"int8","name":"x","type":"int8"},{"internalType":"int8","name":"y","type":"int8"},{"internalType":"int8","name":"z","type":"int8"}],"internalType":"struct metaverse.Building[]","name":"","type":"tuple[]"}],"stateMutability":"view","type":"function"},{"inputs":[],"name":"getOwnerBuildings","outputs":[{"components":[{"internalType":"string","name":"name","type":"string"},{"internalType":"int8","name":"w","type":"int8"},{"internalType":"int8","name":"h","type":"int8"},{"internalType":"int8","name":"d","type":"int8"},{"internalType":"int8","name":"x","type":"int8"},{"internalType":"int8","name":"y","type":"int8"},{"internalType":"int8","name":"z","type":"int8"}],"internalType":"struct metaverse.Building[]","name":"","type":"tuple[]"}],"stateMutability":"view","type":"function"},{"inputs":[{"internalType":"address","name":"owner","type":"address"},{"internalType":"address","name":"operator","type":"address"}],"name":"isApprovedForAll","outputs":[{"internalType":"bool","name":"","type":"bool"}],"stateMutability":"view","type":"function"},{"inputs":[{"internalType":"string","name":"_building_name","type":"string"},{"internalType":"int8","name":"_w","type":"int8"},{"internalType":"int8","name":"_h","type":"int8"},{"internalType":"int8","name":"_d","type":"int8"},{"internalType":"int8","name":"_x","type":"int8"},{"internalType":"int8","name":"_y","type":"int8"},{"internalType":"int8","name":"_z","type":"int8"}],"name":"mint","outputs":[],"stateMutability":"payable","type":"function"},{"inputs":[],"name":"name","outputs":[{"internalType":"string","name":"","type":"string"}],"stateMutability":"view","type":"function"},{"inputs":[],"name":"owner","outputs":[{"internalType":"address","name":"","type":"address"}],"stateMutability":"view","type":"function"},{"inputs":[{"internalType":"uint256","name":"tokenId","type":"uint256"}],"name":"ownerOf","outputs":[{"internalType":"address","name":"","type":"address"}],"stateMutability":"view","type":"function"},{"inputs":[],"name":"renounceOwnership","outputs":[],"stateMutability":"nonpayable","type":"function"},{"inputs":[{"internalType":"uint256","name":"_tokenId","type":"uint256"},{"internalType":"uint256","name":"_salePrice","type":"uint256"}],"name":"royaltyInfo","outputs":[{"internalType":"address","name":"receiver","type":"address"},{"internalType":"uint256","name":"royaltyAmount","type":"uint256"}],"stateMutability":"view","type":"function"},{"inputs":[],"name":"royaltyReceiver","outputs":[{"internalType":"address","name":"","type":"address"}],"stateMutability":"view","type":"function"},{"inputs":[{"internalType":"address","name":"from","type":"address"},{"internalType":"address","name":"to","type":"address"},{"internalType":"uint256","name":"tokenId","type":"uint256"}],"name":"safeTransferFrom","outputs":[],"stateMutability":"nonpayable","type":"function"},{"inputs":[{"internalType":"address","name":"from","type":"address"},{"internalType":"address","name":"to","type":"address"},{"internalType":"uint256","name":"tokenId","type":"uint256"},{"internalType":"bytes","name":"data","type":"bytes"}],"name":"safeTransferFrom","outputs":[],"stateMutability":"nonpayable","type":"function"},{"inputs":[{"internalType":"address","name":"operator","type":"address"},{"internalType":"bool","name":"approved","type":"bool"}],"name":"setApprovalForAll","outputs":[],"stateMutability":"nonpayable","type":"function"},{"inputs":[{"internalType":"bytes4","name":"interfaceId","type":"bytes4"}],"name":"supportsInterface","outputs":[{"internalType":"bool","name":"","type":"bool"}],"stateMutability":"view","type":"function"},{"inputs":[],"name":"symbol","outputs":[{"internalType":"string","name":"","type":"string"}],"stateMutability":"view","type":"function"},{"inputs":[{"internalType":"uint256","name":"tokenId","type":"uint256"}],"name":"tokenURI","outputs":[{"internalType":"string","name":"","type":"string"}],"stateMutability":"view","type":"function"},{"inputs":[],"name":"totalSupply","outputs":[{"internalType":"uint256","name":"","type":"uint256"}],"stateMutability":"view","type":"function"},{"inputs":[{"internalType":"address","name":"from","type":"address"},{"internalType":"address","name":"to","type":"address"},{"internalType":"uint256","name":"tokenId","type":"uint256"}],"name":"transferFrom","outputs":[],"stateMutability":"nonpayable","type":"function"},{"inputs":[{"internalType":"address","name":"newOwner","type":"address"}],"name":"transferOwnership","outputs":[],"stateMutability":"nonpayable","type":"function"},{"inputs":[],"name":"withdraw","outputs":[],"stateMutability":"payable","type":"function"}],"evm":{"bytecode":{"linkReferences":{},"object":"60806040523480156200001157600080fd5b50733cc6cdda760b79bafa08df41ecfa224f810dceb660016040518060400160405280600f81526020017f47425742485f4d455441564552534500000000000000000000000000000000008152506040518060400160405280600a81526020017f47425742485f4d455441000000000000000000000000000000000000000000008152508160009080519060200190620000ad929190620003f5565b508060019080519060200190620000c6929190620003f5565b50505060006daaeb6d7670e522a718067333cd4e73ffffffffffffffffffffffffffffffffffffffff163b1115620002be57801562000184576daaeb6d7670e522a718067333cd4e73ffffffffffffffffffffffffffffffffffffffff16637d3e3dbe30846040518363ffffffff1660e01b81526004016200014a929190620004ea565b600060405180830381600087803b1580156200016557600080fd5b505af11580156200017a573d6000803e3d6000fd5b50505050620002bd565b600073ffffffffffffffffffffffffffffffffffffffff168273ffffffffffffffffffffffffffffffffffffffff16146200023e576daaeb6d7670e522a718067333cd4e73ffffffffffffffffffffffffffffffffffffffff1663a0af290330846040518363ffffffff1660e01b815260040162000204929190620004ea565b600060405180830381600087803b1580156200021f57600080fd5b505af115801562000234573d6000803e3d6000fd5b50505050620002bc565b6daaeb6d7670e522a718067333cd4e73ffffffffffffffffffffffffffffffffffffffff16634420e486306040518263ffffffff1660e01b815260040162000287919062000517565b600060405180830381600087803b158015620002a257600080fd5b505af1158015620002b7573d6000803e3d6000fd5b505050505b5b5b5050620002e0620002d46200032760201b60201c565b6200032f60201b60201c565b33600a60006101000a81548173ffffffffffffffffffffffffffffffffffffffff021916908373ffffffffffffffffffffffffffffffffffffffff16021790555062000598565b600033905090565b6000600660009054906101000a900473ffffffffffffffffffffffffffffffffffffffff16905081600660006101000a81548173ffffffffffffffffffffffffffffffffffffffff021916908373ffffffffffffffffffffffffffffffffffffffff1602179055508173ffffffffffffffffffffffffffffffffffffffff168173ffffffffffffffffffffffffffffffffffffffff167f8be0079c531659141344cd1fd0a4f28419497f9722a3daafe3b4186f6b6457e060405160405180910390a35050565b828054620004039062000563565b90600052602060002090601f01602090048101928262000427576000855562000473565b82601f106200044257805160ff191683800117855562000473565b8280016001018555821562000473579182015b828111156200047257825182559160200191906001019062000455565b5b50905062000482919062000486565b5090565b5b80821115620004a157600081600090555060010162000487565b5090565b600073ffffffffffffffffffffffffffffffffffffffff82169050919050565b6000620004d282620004a5565b9050919050565b620004e481620004c5565b82525050565b6000604082019050620005016000830185620004d9565b620005106020830184620004d9565b9392505050565b60006020820190506200052e6000830184620004d9565b92915050565b7f4e487b7100000000000000000000000000000000000000000000000000000000600052602260045260246000fd5b600060028204905060018216806200057c57607f821691505b60208210810362000592576200059162000534565b5b50919050565b61428380620005a86000396000f3fe60806040526004361061019c5760003560e01c80636e0f3f1e116100ec578063b88d4fde1161008a578063cbdca98411610064578063cbdca984146105b5578063d9cf6a26146105e0578063e985e9c51461060b578063f2fde38b146106485761019c565b8063b88d4fde14610524578063bf8fbbd21461054d578063c87b56dd146105785761019c565b80638da5cb5b116100c65780638da5cb5b1461047a57806395d89b41146104a55780639fbc8713146104d0578063a22cb465146104fb5761019c565b80636e0f3f1e1461040a57806370a0823114610426578063715018a6146104635761019c565b80632a55205a1161015957806341f434341161013357806341f434341461033657806342842e0e146103615780634c96a0621461038a5780636352211e146103cd5761019c565b80632a55205a146102c357806332cb6b0c146103015780633ccfd60b1461032c5761019c565b806301ffc9a7146101a157806306fdde03146101de578063081812fc14610209578063095ea7b31461024657806318160ddd1461026f57806323b872dd1461029a575b600080fd5b3480156101ad57600080fd5b506101c860048036038101906101c39190612ba5565b610671565b6040516101d59190612bed565b60405180910390f35b3480156101ea57600080fd5b506101f36106eb565b6040516102009190612ca1565b60405180910390f35b34801561021557600080fd5b50610230600480360381019061022b9190612cf9565b61077d565b60405161023d9190612d67565b60405180910390f35b34801561025257600080fd5b5061026d60048036038101906102689190612dae565b6107c3565b005b34801561027b57600080fd5b506102846107dc565b6040516102919190612dfd565b60405180910390f35b3480156102a657600080fd5b506102c160048036038101906102bc9190612e18565b6107ed565b005b3480156102cf57600080fd5b506102ea60048036038101906102e59190612e6b565b61083c565b6040516102f8929190612eab565b60405180910390f35b34801561030d57600080fd5b506103166108e5565b6040516103239190612dfd565b60405180910390f35b6103346108ea565b005b34801561034257600080fd5b5061034b6109a1565b6040516103589190612f33565b60405180910390f35b34801561036d57600080fd5b5061038860048036038101906103839190612e18565b6109b3565b005b34801561039657600080fd5b506103b160048036038101906103ac9190612cf9565b610a02565b6040516103c49796959493929190612f6a565b60405180910390f35b3480156103d957600080fd5b506103f460048036038101906103ef9190612cf9565b610b2a565b6040516104019190612d67565b60405180910390f35b610424600480360381019061041f9190613141565b610bb0565b005b34801561043257600080fd5b5061044d600480360381019061044891906131ff565b610f36565b60405161045a9190612dfd565b60405180910390f35b34801561046f57600080fd5b50610478610fed565b005b34801561048657600080fd5b5061048f611001565b60405161049c9190612d67565b60405180910390f35b3480156104b157600080fd5b506104ba61102b565b6040516104c79190612ca1565b60405180910390f35b3480156104dc57600080fd5b506104e56110bd565b6040516104f29190612d67565b60405180910390f35b34801561050757600080fd5b50610522600480360381019061051d9190613258565b6110e3565b005b34801561053057600080fd5b5061054b60048036038101906105469190613339565b6110fc565b005b34801561055957600080fd5b5061056261114d565b60405161056f9190612dfd565b60405180910390f35b34801561058457600080fd5b5061059f600480360381019061059a9190612cf9565b611158565b6040516105ac9190612ca1565b60405180910390f35b3480156105c157600080fd5b506105ca6111c0565b6040516105d79190613573565b60405180910390f35b3480156105ec57600080fd5b506105f561139c565b6040516106029190613573565b60405180910390f35b34801561061757600080fd5b50610632600480360381019061062d9190613595565b61153b565b60405161063f9190612bed565b60405180910390f35b34801561065457600080fd5b5061066f600480360381019061066a91906131ff565b6115cf565b005b60007f2a55205a000000000000000000000000000000000000000000000000000000007bffffffffffffffffffffffffffffffffffffffffffffffffffffffff1916827bffffffffffffffffffffffffffffffffffffffffffffffffffffffff191614806106e457506106e382611652565b5b9050919050565b6060600080546106fa90613604565b80601f016020809104026020016040519081016040528092919081815260200182805461072690613604565b80156107735780601f1061074857610100808354040283529160200191610773565b820191906000526020600020905b81548152906001019060200180831161075657829003601f168201915b5050505050905090565b600061078882611734565b6004600083815260200190815260200160002060009054906101000a900473ffffffffffffffffffffffffffffffffffffffff169050919050565b816107cd8161177f565b6107d7838361187c565b505050565b60006107e86007611993565b905090565b823373ffffffffffffffffffffffffffffffffffffffff168173ffffffffffffffffffffffffffffffffffffffff161461082b5761082a3361177f565b5b6108368484846119a1565b50505050565b60008061084884611a01565b610887576040517f08c379a000000000000000000000000000000000000000000000000000000000815260040161087e906136a7565b60405180910390fd5b600061271060648561089991906136f6565b6108a3919061377f565b90508381106108b5576108b46137b0565b5b600a60009054906101000a900473ffffffffffffffffffffffffffffffffffffffff168192509250509250929050565b606481565b6108f2611a42565b60003373ffffffffffffffffffffffffffffffffffffffff164760405161091890613810565b60006040518083038185875af1925050503d8060008114610955576040519150601f19603f3d011682016040523d82523d6000602084013e61095a565b606091505b505090508061099e576040517f08c379a000000000000000000000000000000000000000000000000000000000815260040161099590613871565b60405180910390fd5b50565b6daaeb6d7670e522a718067333cd4e81565b823373ffffffffffffffffffffffffffffffffffffffff168173ffffffffffffffffffffffffffffffffffffffff16146109f1576109f03361177f565b5b6109fc848484611ac0565b50505050565b60098181548110610a1257600080fd5b9060005260206000209060020201600091509050806000018054610a3590613604565b80601f0160208091040260200160405190810160405280929190818152602001828054610a6190613604565b8015610aae5780601f10610a8357610100808354040283529160200191610aae565b820191906000526020600020905b815481529060010190602001808311610a9157829003601f168201915b5050505050908060010160009054906101000a900460000b908060010160019054906101000a900460000b908060010160029054906101000a900460000b908060010160039054906101000a900460000b908060010160049054906101000a900460000b908060010160059054906101000a900460000b905087565b600080610b3683611ae0565b9050600073ffffffffffffffffffffffffffffffffffffffff168173ffffffffffffffffffffffffffffffffffffffff1603610ba7576040517f08c379a0000000000000000000000000000000000000000000000000000000008152600401610b9e906138dd565b60405180910390fd5b80915050919050565b6064610bba6107dc565b1115610bfb576040517f08c379a0000000000000000000000000000000000000000000000000000000008152600401610bf290613949565b60405180910390fd5b66038d7ea4c68000341015610c45576040517f08c379a0000000000000000000000000000000000000000000000000000000008152600401610c3c906139b5565b60405180910390fd5b610c4f6007611b1d565b610c6033610c5b6107dc565b611b33565b60006040518060e001604052808981526020018860000b81526020018760000b81526020018660000b81526020018560000b81526020018460000b81526020018360000b815250905060098190806001815401808255809150506001900390600052602060002090600202016000909190919091506000820151816000019080519060200190610cf1929190612a96565b5060208201518160010160006101000a81548160ff021916908360000b60ff16021790555060408201518160010160016101000a81548160ff021916908360000b60ff16021790555060608201518160010160026101000a81548160ff021916908360000b60ff16021790555060808201518160010160036101000a81548160ff021916908360000b60ff16021790555060a08201518160010160046101000a81548160ff021916908360000b60ff16021790555060c08201518160010160056101000a81548160ff021916908360000b60ff1602179055505050600860003373ffffffffffffffffffffffffffffffffffffffff1673ffffffffffffffffffffffffffffffffffffffff1681526020019081526020016000208190806001815401808255809150506001900390600052602060002090600202016000909190919091506000820151816000019080519060200190610e51929190612a96565b5060208201518160010160006101000a81548160ff021916908360000b60ff16021790555060408201518160010160016101000a81548160ff021916908360000b60ff16021790555060608201518160010160026101000a81548160ff021916908360000b60ff16021790555060808201518160010160036101000a81548160ff021916908360000b60ff16021790555060a08201518160010160046101000a81548160ff021916908360000b60ff16021790555060c08201518160010160056101000a81548160ff021916908360000b60ff16021790555050505050505050505050565b60008073ffffffffffffffffffffffffffffffffffffffff168273ffffffffffffffffffffffffffffffffffffffff1603610fa6576040517f08c379a0000000000000000000000000000000000000000000000000000000008152600401610f9d90613a47565b60405180910390fd5b600360008373ffffffffffffffffffffffffffffffffffffffff1673ffffffffffffffffffffffffffffffffffffffff168152602001908152602001600020549050919050565b610ff5611a42565b610fff6000611b51565b565b6000600660009054906101000a900473ffffffffffffffffffffffffffffffffffffffff16905090565b60606001805461103a90613604565b80601f016020809104026020016040519081016040528092919081815260200182805461106690613604565b80156110b35780601f10611088576101008083540402835291602001916110b3565b820191906000526020600020905b81548152906001019060200180831161109657829003601f168201915b5050505050905090565b600a60009054906101000a900473ffffffffffffffffffffffffffffffffffffffff1681565b816110ed8161177f565b6110f78383611c17565b505050565b833373ffffffffffffffffffffffffffffffffffffffff168173ffffffffffffffffffffffffffffffffffffffff161461113a576111393361177f565b5b61114685858585611c2d565b5050505050565b66038d7ea4c6800081565b606061116382611734565b600061116d611c8f565b9050600081511161118d57604051806020016040528060008152506111b8565b8061119784611ca6565b6040516020016111a8929190613aa3565b6040516020818303038152906040525b915050919050565b6060600860003373ffffffffffffffffffffffffffffffffffffffff1673ffffffffffffffffffffffffffffffffffffffff168152602001908152602001600020805480602002602001604051908101604052809291908181526020016000905b8282101561139357838290600052602060002090600202016040518060e001604052908160008201805461125490613604565b80601f016020809104026020016040519081016040528092919081815260200182805461128090613604565b80156112cd5780601f106112a2576101008083540402835291602001916112cd565b820191906000526020600020905b8154815290600101906020018083116112b057829003601f168201915b505050505081526020016001820160009054906101000a900460000b60000b60000b81526020016001820160019054906101000a900460000b60000b60000b81526020016001820160029054906101000a900460000b60000b60000b81526020016001820160039054906101000a900460000b60000b60000b81526020016001820160049054906101000a900460000b60000b60000b81526020016001820160059054906101000a900460000b60000b60000b8152505081526020019060010190611221565b50505050905090565b60606009805480602002602001604051908101604052809291908181526020016000905b8282101561153257838290600052602060002090600202016040518060e00160405290816000820180546113f390613604565b80601f016020809104026020016040519081016040528092919081815260200182805461141f90613604565b801561146c5780601f106114415761010080835404028352916020019161146c565b820191906000526020600020905b81548152906001019060200180831161144f57829003601f168201915b505050505081526020016001820160009054906101000a900460000b60000b60000b81526020016001820160019054906101000a900460000b60000b60000b81526020016001820160029054906101000a900460000b60000b60000b81526020016001820160039054906101000a900460000b60000b60000b81526020016001820160049054906101000a900460000b60000b60000b81526020016001820160059054906101000a900460000b60000b60000b81525050815260200190600101906113c0565b50505050905090565b6000600560008473ffffffffffffffffffffffffffffffffffffffff1673ffffffffffffffffffffffffffffffffffffffff16815260200190815260200160002060008373ffffffffffffffffffffffffffffffffffffffff1673ffffffffffffffffffffffffffffffffffffffff16815260200190815260200160002060009054906101000a900460ff16905092915050565b6115d7611a42565b600073ffffffffffffffffffffffffffffffffffffffff168173ffffffffffffffffffffffffffffffffffffffff1603611646576040517f08c379a000000000000000000000000000000000000000000000000000000000815260040161163d90613b39565b60405180910390fd5b61164f81611b51565b50565b60007f80ac58cd000000000000000000000000000000000000000000000000000000007bffffffffffffffffffffffffffffffffffffffffffffffffffffffff1916827bffffffffffffffffffffffffffffffffffffffffffffffffffffffff1916148061171d57507f5b5e139f000000000000000000000000000000000000000000000000000000007bffffffffffffffffffffffffffffffffffffffffffffffffffffffff1916827bffffffffffffffffffffffffffffffffffffffffffffffffffffffff1916145b8061172d575061172c82611d74565b5b9050919050565b61173d81611a01565b61177c576040517f08c379a0000000000000000000000000000000000000000000000000000000008152600401611773906138dd565b60405180910390fd5b50565b60006daaeb6d7670e522a718067333cd4e73ffffffffffffffffffffffffffffffffffffffff163b1115611879576daaeb6d7670e522a718067333cd4e73ffffffffffffffffffffffffffffffffffffffff1663c617113430836040518363ffffffff1660e01b81526004016117f6929190613b59565b602060405180830381865afa158015611813573d6000803e3d6000fd5b505050506040513d601f19601f820116820180604052508101906118379190613b97565b61187857806040517fede71dcc00000000000000000000000000000000000000000000000000000000815260040161186f9190612d67565b60405180910390fd5b5b50565b600061188782610b2a565b90508073ffffffffffffffffffffffffffffffffffffffff168373ffffffffffffffffffffffffffffffffffffffff16036118f7576040517f08c379a00000000000000000000000000000000000000000000000000000000081526004016118ee90613c36565b60405180910390fd5b8073ffffffffffffffffffffffffffffffffffffffff16611916611dde565b73ffffffffffffffffffffffffffffffffffffffff16148061194557506119448161193f611dde565b61153b565b5b611984576040517f08c379a000000000000000000000000000000000000000000000000000000000815260040161197b90613cc8565b60405180910390fd5b61198e8383611de6565b505050565b600081600001549050919050565b6119b26119ac611dde565b82611e9f565b6119f1576040517f08c379a00000000000000000000000000000000000000000000000000000000081526004016119e890613d5a565b60405180910390fd5b6119fc838383611f34565b505050565b60008073ffffffffffffffffffffffffffffffffffffffff16611a2383611ae0565b73ffffffffffffffffffffffffffffffffffffffff1614159050919050565b611a4a611dde565b73ffffffffffffffffffffffffffffffffffffffff16611a68611001565b73ffffffffffffffffffffffffffffffffffffffff1614611abe576040517f08c379a0000000000000000000000000000000000000000000000000000000008152600401611ab590613dc6565b60405180910390fd5b565b611adb838383604051806020016040528060008152506110fc565b505050565b60006002600083815260200190815260200160002060009054906101000a900473ffffffffffffffffffffffffffffffffffffffff169050919050565b6001816000016000828254019250508190555050565b611b4d82826040518060200160405280600081525061222d565b5050565b6000600660009054906101000a900473ffffffffffffffffffffffffffffffffffffffff16905081600660006101000a81548173ffffffffffffffffffffffffffffffffffffffff021916908373ffffffffffffffffffffffffffffffffffffffff1602179055508173ffffffffffffffffffffffffffffffffffffffff168173ffffffffffffffffffffffffffffffffffffffff167f8be0079c531659141344cd1fd0a4f28419497f9722a3daafe3b4186f6b6457e060405160405180910390a35050565b611c29611c22611dde565b8383612288565b5050565b611c3e611c38611dde565b83611e9f565b611c7d576040517f08c379a0000000000000000000000000000000000000000000000000000000008152600401611c7490613d5a565b60405180910390fd5b611c89848484846123f4565b50505050565b606060405180602001604052806000815250905090565b606060006001611cb584612450565b01905060008167ffffffffffffffff811115611cd457611cd3612fea565b5b6040519080825280601f01601f191660200182016040528015611d065781602001600182028036833780820191505090505b509050600082602001820190505b600115611d69578080600190039150507f3031323334353637383961626364656600000000000000000000000000000000600a86061a8153600a8581611d5d57611d5c613750565b5b04945060008503611d14575b819350505050919050565b60007f01ffc9a7000000000000000000000000000000000000000000000000000000007bffffffffffffffffffffffffffffffffffffffffffffffffffffffff1916827bffffffffffffffffffffffffffffffffffffffffffffffffffffffff1916149050919050565b600033905090565b816004600083815260200190815260200160002060006101000a81548173ffffffffffffffffffffffffffffffffffffffff021916908373ffffffffffffffffffffffffffffffffffffffff160217905550808273ffffffffffffffffffffffffffffffffffffffff16611e5983610b2a565b73ffffffffffffffffffffffffffffffffffffffff167f8c5be1e5ebec7d5bd14f71427d1e84f3dd0314c0f7b2291e5b200ac8c7c3b92560405160405180910390a45050565b600080611eab83610b2a565b90508073ffffffffffffffffffffffffffffffffffffffff168473ffffffffffffffffffffffffffffffffffffffff161480611eed5750611eec818561153b565b5b80611f2b57508373ffffffffffffffffffffffffffffffffffffffff16611f138461077d565b73ffffffffffffffffffffffffffffffffffffffff16145b91505092915050565b8273ffffffffffffffffffffffffffffffffffffffff16611f5482610b2a565b73ffffffffffffffffffffffffffffffffffffffff1614611faa576040517f08c379a0000000000000000000000000000000000000000000000000000000008152600401611fa190613e58565b60405180910390fd5b600073ffffffffffffffffffffffffffffffffffffffff168273ffffffffffffffffffffffffffffffffffffffff1603612019576040517f08c379a000000000000000000000000000000000000000000000000000000000815260040161201090613eea565b60405180910390fd5b61202683838360016125a3565b8273ffffffffffffffffffffffffffffffffffffffff1661204682610b2a565b73ffffffffffffffffffffffffffffffffffffffff161461209c576040517f08c379a000000000000000000000000000000000000000000000000000000000815260040161209390613e58565b60405180910390fd5b6004600082815260200190815260200160002060006101000a81549073ffffffffffffffffffffffffffffffffffffffff02191690556001600360008573ffffffffffffffffffffffffffffffffffffffff1673ffffffffffffffffffffffffffffffffffffffff168152602001908152602001600020600082825403925050819055506001600360008473ffffffffffffffffffffffffffffffffffffffff1673ffffffffffffffffffffffffffffffffffffffff16815260200190815260200160002060008282540192505081905550816002600083815260200190815260200160002060006101000a81548173ffffffffffffffffffffffffffffffffffffffff021916908373ffffffffffffffffffffffffffffffffffffffff160217905550808273ffffffffffffffffffffffffffffffffffffffff168473ffffffffffffffffffffffffffffffffffffffff167fddf252ad1be2c89b69c2b068fc378daa952ba7f163c4a11628f55a4df523b3ef60405160405180910390a461222883838360016126c9565b505050565b61223783836126cf565b61224460008484846128ec565b612283576040517f08c379a000000000000000000000000000000000000000000000000000000000815260040161227a90613f7c565b60405180910390fd5b505050565b8173ffffffffffffffffffffffffffffffffffffffff168373ffffffffffffffffffffffffffffffffffffffff16036122f6576040517f08c379a00000000000000000000000000000000000000000000000000000000081526004016122ed90613fe8565b60405180910390fd5b80600560008573ffffffffffffffffffffffffffffffffffffffff1673ffffffffffffffffffffffffffffffffffffffff16815260200190815260200160002060008473ffffffffffffffffffffffffffffffffffffffff1673ffffffffffffffffffffffffffffffffffffffff16815260200190815260200160002060006101000a81548160ff0219169083151502179055508173ffffffffffffffffffffffffffffffffffffffff168373ffffffffffffffffffffffffffffffffffffffff167f17307eab39ab6107e8899845ad3d59bd9653f200f220920489ca2b5937696c31836040516123e79190612bed565b60405180910390a3505050565b6123ff848484611f34565b61240b848484846128ec565b61244a576040517f08c379a000000000000000000000000000000000000000000000000000000000815260040161244190613f7c565b60405180910390fd5b50505050565b600080600090507a184f03e93ff9f4daa797ed6e38ed64bf6a1f01000000000000000083106124ae577a184f03e93ff9f4daa797ed6e38ed64bf6a1f01000000000000000083816124a4576124a3613750565b5b0492506040810190505b6d04ee2d6d415b85acef810000000083106124eb576d04ee2d6d415b85acef810000000083816124e1576124e0613750565b5b0492506020810190505b662386f26fc10000831061251a57662386f26fc1000083816125105761250f613750565b5b0492506010810190505b6305f5e1008310612543576305f5e100838161253957612538613750565b5b0492506008810190505b612710831061256857612710838161255e5761255d613750565b5b0492506004810190505b6064831061258b576064838161258157612580613750565b5b0492506002810190505b600a831061259a576001810190505b80915050919050565b60018111156126c357600073ffffffffffffffffffffffffffffffffffffffff168473ffffffffffffffffffffffffffffffffffffffff16146126375780600360008673ffffffffffffffffffffffffffffffffffffffff1673ffffffffffffffffffffffffffffffffffffffff168152602001908152602001600020600082825461262f9190614008565b925050819055505b600073ffffffffffffffffffffffffffffffffffffffff168373ffffffffffffffffffffffffffffffffffffffff16146126c25780600360008573ffffffffffffffffffffffffffffffffffffffff1673ffffffffffffffffffffffffffffffffffffffff16815260200190815260200160002060008282546126ba919061403c565b925050819055505b5b50505050565b50505050565b600073ffffffffffffffffffffffffffffffffffffffff168273ffffffffffffffffffffffffffffffffffffffff160361273e576040517f08c379a0000000000000000000000000000000000000000000000000000000008152600401612735906140de565b60405180910390fd5b61274781611a01565b15612787576040517f08c379a000000000000000000000000000000000000000000000000000000000815260040161277e9061414a565b60405180910390fd5b6127956000838360016125a3565b61279e81611a01565b156127de576040517f08c379a00000000000000000000000000000000000000000000000000000000081526004016127d59061414a565b60405180910390fd5b6001600360008473ffffffffffffffffffffffffffffffffffffffff1673ffffffffffffffffffffffffffffffffffffffff16815260200190815260200160002060008282540192505081905550816002600083815260200190815260200160002060006101000a81548173ffffffffffffffffffffffffffffffffffffffff021916908373ffffffffffffffffffffffffffffffffffffffff160217905550808273ffffffffffffffffffffffffffffffffffffffff16600073ffffffffffffffffffffffffffffffffffffffff167fddf252ad1be2c89b69c2b068fc378daa952ba7f163c4a11628f55a4df523b3ef60405160405180910390a46128e86000838360016126c9565b5050565b600061290d8473ffffffffffffffffffffffffffffffffffffffff16612a73565b15612a66578373ffffffffffffffffffffffffffffffffffffffff1663150b7a02612936611dde565b8786866040518563ffffffff1660e01b815260040161295894939291906141bf565b6020604051808303816000875af192505050801561299457506040513d601f19601f820116820180604052508101906129919190614220565b60015b612a16573d80600081146129c4576040519150601f19603f3d011682016040523d82523d6000602084013e6129c9565b606091505b506000815103612a0e576040517f08c379a0000000000000000000000000000000000000000000000000000000008152600401612a0590613f7c565b60405180910390fd5b805181602001fd5b63150b7a0260e01b7bffffffffffffffffffffffffffffffffffffffffffffffffffffffff1916817bffffffffffffffffffffffffffffffffffffffffffffffffffffffff191614915050612a6b565b600190505b949350505050565b6000808273ffffffffffffffffffffffffffffffffffffffff163b119050919050565b828054612aa290613604565b90600052602060002090601f016020900481019282612ac45760008555612b0b565b82601f10612add57805160ff1916838001178555612b0b565b82800160010185558215612b0b579182015b82811115612b0a578251825591602001919060010190612aef565b5b509050612b189190612b1c565b5090565b5b80821115612b35576000816000905550600101612b1d565b5090565b6000604051905090565b600080fd5b600080fd5b60007fffffffff0000000000000000000000000000000000000000000000000000000082169050919050565b612b8281612b4d565b8114612b8d57600080fd5b50565b600081359050612b9f81612b79565b92915050565b600060208284031215612bbb57612bba612b43565b5b6000612bc984828501612b90565b91505092915050565b60008115159050919050565b612be781612bd2565b82525050565b6000602082019050612c026000830184612bde565b92915050565b600081519050919050565b600082825260208201905092915050565b60005b83811015612c42578082015181840152602081019050612c27565b83811115612c51576000848401525b50505050565b6000601f19601f8301169050919050565b6000612c7382612c08565b612c7d8185612c13565b9350612c8d818560208601612c24565b612c9681612c57565b840191505092915050565b60006020820190508181036000830152612cbb8184612c68565b905092915050565b6000819050919050565b612cd681612cc3565b8114612ce157600080fd5b50565b600081359050612cf381612ccd565b92915050565b600060208284031215612d0f57612d0e612b43565b5b6000612d1d84828501612ce4565b91505092915050565b600073ffffffffffffffffffffffffffffffffffffffff82169050919050565b6000612d5182612d26565b9050919050565b612d6181612d46565b82525050565b6000602082019050612d7c6000830184612d58565b92915050565b612d8b81612d46565b8114612d9657600080fd5b50565b600081359050612da881612d82565b92915050565b60008060408385031215612dc557612dc4612b43565b5b6000612dd385828601612d99565b9250506020612de485828601612ce4565b9150509250929050565b612df781612cc3565b82525050565b6000602082019050612e126000830184612dee565b92915050565b600080600060608486031215612e3157612e30612b43565b5b6000612e3f86828701612d99565b9350506020612e5086828701612d99565b9250506040612e6186828701612ce4565b9150509250925092565b60008060408385031215612e8257612e81612b43565b5b6000612e9085828601612ce4565b9250506020612ea185828601612ce4565b9150509250929050565b6000604082019050612ec06000830185612d58565b612ecd6020830184612dee565b9392505050565b6000819050919050565b6000612ef9612ef4612eef84612d26565b612ed4565b612d26565b9050919050565b6000612f0b82612ede565b9050919050565b6000612f1d82612f00565b9050919050565b612f2d81612f12565b82525050565b6000602082019050612f486000830184612f24565b92915050565b60008160000b9050919050565b612f6481612f4e565b82525050565b600060e0820190508181036000830152612f84818a612c68565b9050612f936020830189612f5b565b612fa06040830188612f5b565b612fad6060830187612f5b565b612fba6080830186612f5b565b612fc760a0830185612f5b565b612fd460c0830184612f5b565b98975050505050505050565b600080fd5b600080fd5b7f4e487b7100000000000000000000000000000000000000000000000000000000600052604160045260246000fd5b61302282612c57565b810181811067ffffffffffffffff8211171561304157613040612fea565b5b80604052505050565b6000613054612b39565b90506130608282613019565b919050565b600067ffffffffffffffff8211156130805761307f612fea565b5b61308982612c57565b9050602081019050919050565b82818337600083830152505050565b60006130b86130b384613065565b61304a565b9050828152602081018484840111156130d4576130d3612fe5565b5b6130df848285613096565b509392505050565b600082601f8301126130fc576130fb612fe0565b5b813561310c8482602086016130a5565b91505092915050565b61311e81612f4e565b811461312957600080fd5b50565b60008135905061313b81613115565b92915050565b600080600080600080600060e0888a0312156131605761315f612b43565b5b600088013567ffffffffffffffff81111561317e5761317d612b48565b5b61318a8a828b016130e7565b975050602061319b8a828b0161312c565b96505060406131ac8a828b0161312c565b95505060606131bd8a828b0161312c565b94505060806131ce8a828b0161312c565b93505060a06131df8a828b0161312c565b92505060c06131f08a828b0161312c565b91505092959891949750929550565b60006020828403121561321557613214612b43565b5b600061322384828501612d99565b91505092915050565b61323581612bd2565b811461324057600080fd5b50565b6000813590506132528161322c565b92915050565b6000806040838503121561326f5761326e612b43565b5b600061327d85828601612d99565b925050602061328e85828601613243565b9150509250929050565b600067ffffffffffffffff8211156132b3576132b2612fea565b5b6132bc82612c57565b9050602081019050919050565b60006132dc6132d784613298565b61304a565b9050828152602081018484840111156132f8576132f7612fe5565b5b613303848285613096565b509392505050565b600082601f8301126133205761331f612fe0565b5b81356133308482602086016132c9565b91505092915050565b6000806000806080858703121561335357613352612b43565b5b600061336187828801612d99565b945050602061337287828801612d99565b935050604061338387828801612ce4565b925050606085013567ffffffffffffffff8111156133a4576133a3612b48565b5b6133b08782880161330b565b91505092959194509250565b600081519050919050565b600082825260208201905092915050565b6000819050602082019050919050565b600082825260208201905092915050565b600061340482612c08565b61340e81856133e8565b935061341e818560208601612c24565b61342781612c57565b840191505092915050565b61343b81612f4e565b82525050565b600060e083016000830151848203600086015261345e82826133f9565b91505060208301516134736020860182613432565b5060408301516134866040860182613432565b5060608301516134996060860182613432565b5060808301516134ac6080860182613432565b5060a08301516134bf60a0860182613432565b5060c08301516134d260c0860182613432565b508091505092915050565b60006134e98383613441565b905092915050565b6000602082019050919050565b6000613509826133bc565b61351381856133c7565b935083602082028501613525856133d8565b8060005b85811015613561578484038952815161354285826134dd565b945061354d836134f1565b925060208a01995050600181019050613529565b50829750879550505050505092915050565b6000602082019050818103600083015261358d81846134fe565b905092915050565b600080604083850312156135ac576135ab612b43565b5b60006135ba85828601612d99565b92505060206135cb85828601612d99565b9150509250929050565b7f4e487b7100000000000000000000000000000000000000000000000000000000600052602260045260246000fd5b6000600282049050600182168061361c57607f821691505b60208210810361362f5761362e6135d5565b5b50919050565b7f4552433732314d657461646174613a2055524920717565727920666f72206e6f60008201527f6e6578697374656e7420746f6b656e0000000000000000000000000000000000602082015250565b6000613691602f83612c13565b915061369c82613635565b604082019050919050565b600060208201905081810360008301526136c081613684565b9050919050565b7f4e487b7100000000000000000000000000000000000000000000000000000000600052601160045260246000fd5b600061370182612cc3565b915061370c83612cc3565b9250817fffffffffffffffffffffffffffffffffffffffffffffffffffffffffffffffff0483118215151615613745576137446136c7565b5b828202905092915050565b7f4e487b7100000000000000000000000000000000000000000000000000000000600052601260045260246000fd5b600061378a82612cc3565b915061379583612cc3565b9250826137a5576137a4613750565b5b828204905092915050565b7f4e487b7100000000000000000000000000000000000000000000000000000000600052600160045260246000fd5b600081905092915050565b50565b60006137fa6000836137df565b9150613805826137ea565b600082019050919050565b600061381b826137ed565b9150819050919050565b7f7472616e73666572206661696c65642e00000000000000000000000000000000600082015250565b600061385b601083612c13565b915061386682613825565b602082019050919050565b6000602082019050818103600083015261388a8161384e565b9050919050565b7f4552433732313a20696e76616c696420746f6b656e2049440000000000000000600082015250565b60006138c7601883612c13565b91506138d282613891565b602082019050919050565b600060208201905081810360008301526138f6816138ba565b9050919050565b7f4d617820737570706c7920657863656564656421000000000000000000000000600082015250565b6000613933601483612c13565b915061393e826138fd565b602082019050919050565b6000602082019050818103600083015261396281613926565b9050919050565b7f496e737566696369656e742066756e6473210000000000000000000000000000600082015250565b600061399f601283612c13565b91506139aa82613969565b602082019050919050565b600060208201905081810360008301526139ce81613992565b9050919050565b7f4552433732313a2061646472657373207a65726f206973206e6f74206120766160008201527f6c6964206f776e65720000000000000000000000000000000000000000000000602082015250565b6000613a31602983612c13565b9150613a3c826139d5565b604082019050919050565b60006020820190508181036000830152613a6081613a24565b9050919050565b600081905092915050565b6000613a7d82612c08565b613a878185613a67565b9350613a97818560208601612c24565b80840191505092915050565b6000613aaf8285613a72565b9150613abb8284613a72565b91508190509392505050565b7f4f776e61626c653a206e6577206f776e657220697320746865207a65726f206160008201527f6464726573730000000000000000000000000000000000000000000000000000602082015250565b6000613b23602683612c13565b9150613b2e82613ac7565b604082019050919050565b60006020820190508181036000830152613b5281613b16565b9050919050565b6000604082019050613b6e6000830185612d58565b613b7b6020830184612d58565b9392505050565b600081519050613b918161322c565b92915050565b600060208284031215613bad57613bac612b43565b5b6000613bbb84828501613b82565b91505092915050565b7f4552433732313a20617070726f76616c20746f2063757272656e74206f776e6560008201527f7200000000000000000000000000000000000000000000000000000000000000602082015250565b6000613c20602183612c13565b9150613c2b82613bc4565b604082019050919050565b60006020820190508181036000830152613c4f81613c13565b9050919050565b7f4552433732313a20617070726f76652063616c6c6572206973206e6f7420746f60008201527f6b656e206f776e6572206f7220617070726f76656420666f7220616c6c000000602082015250565b6000613cb2603d83612c13565b9150613cbd82613c56565b604082019050919050565b60006020820190508181036000830152613ce181613ca5565b9050919050565b7f4552433732313a2063616c6c6572206973206e6f7420746f6b656e206f776e6560008201527f72206f7220617070726f76656400000000000000000000000000000000000000602082015250565b6000613d44602d83612c13565b9150613d4f82613ce8565b604082019050919050565b60006020820190508181036000830152613d7381613d37565b9050919050565b7f4f776e61626c653a2063616c6c6572206973206e6f7420746865206f776e6572600082015250565b6000613db0602083612c13565b9150613dbb82613d7a565b602082019050919050565b60006020820190508181036000830152613ddf81613da3565b9050919050565b7f4552433732313a207472616e736665722066726f6d20696e636f72726563742060008201527f6f776e6572000000000000000000000000000000000000000000000000000000602082015250565b6000613e42602583612c13565b9150613e4d82613de6565b604082019050919050565b60006020820190508181036000830152613e7181613e35565b9050919050565b7f4552433732313a207472616e7366657220746f20746865207a65726f2061646460008201527f7265737300000000000000000000000000000000000000000000000000000000602082015250565b6000613ed4602483612c13565b9150613edf82613e78565b604082019050919050565b60006020820190508181036000830152613f0381613ec7565b9050919050565b7f4552433732313a207472616e7366657220746f206e6f6e20455243373231526560008201527f63656976657220696d706c656d656e7465720000000000000000000000000000602082015250565b6000613f66603283612c13565b9150613f7182613f0a565b604082019050919050565b60006020820190508181036000830152613f9581613f59565b9050919050565b7f4552433732313a20617070726f766520746f2063616c6c657200000000000000600082015250565b6000613fd2601983612c13565b9150613fdd82613f9c565b602082019050919050565b6000602082019050818103600083015261400181613fc5565b9050919050565b600061401382612cc3565b915061401e83612cc3565b925082821015614031576140306136c7565b5b828203905092915050565b600061404782612cc3565b915061405283612cc3565b9250827fffffffffffffffffffffffffffffffffffffffffffffffffffffffffffffffff03821115614087576140866136c7565b5b828201905092915050565b7f4552433732313a206d696e7420746f20746865207a65726f2061646472657373600082015250565b60006140c8602083612c13565b91506140d382614092565b602082019050919050565b600060208201905081810360008301526140f7816140bb565b9050919050565b7f4552433732313a20746f6b656e20616c7265616479206d696e74656400000000600082015250565b6000614134601c83612c13565b915061413f826140fe565b602082019050919050565b6000602082019050818103600083015261416381614127565b9050919050565b600081519050919050565b600082825260208201905092915050565b60006141918261416a565b61419b8185614175565b93506141ab818560208601612c24565b6141b481612c57565b840191505092915050565b60006080820190506141d46000830187612d58565b6141e16020830186612d58565b6141ee6040830185612dee565b81810360608301526142008184614186565b905095945050505050565b60008151905061421a81612b79565b92915050565b60006020828403121561423657614235612b43565b5b60006142448482850161420b565b9150509291505056fea26469706673582212200659597d040e9d153df56b21d61268dda20c895e1457b42f61ad40e13ad19ef464736f6c634300080d0033","opcodes":"PUSH1 0x80 PUSH1 0x40 MSTORE CALLVALUE DUP1 ISZERO PUSH3 0x11 JUMPI PUSH1 0x0 DUP1 REVERT JUMPDEST POP PUSH20 0x3CC6CDDA760B79BAFA08DF41ECFA224F810DCEB6 PUSH1 0x1 PUSH1 0x40 MLOAD DUP1 PUSH1 0x40 ADD PUSH1 0x40 MSTORE DUP1 PUSH1 0xF DUP2 MSTORE PUSH1 0x20 ADD PUSH32 0x47425742485F4D45544156455253450000000000000000000000000000000000 DUP2 MSTORE POP PUSH1 0x40 MLOAD DUP1 PUSH1 0x40 ADD PUSH1 0x40 MSTORE DUP1 PUSH1 0xA DUP2 MSTORE PUSH1 0x20 ADD PUSH32 0x47425742485F4D45544100000000000000000000000000000000000000000000 DUP2 MSTORE POP DUP2 PUSH1 0x0 SWAP1 DUP1 MLOAD SWAP1 PUSH1 0x20 ADD SWAP1 PUSH3 0xAD SWAP3 SWAP2 SWAP1 PUSH3 0x3F5 JUMP JUMPDEST POP DUP1 PUSH1 0x1 SWAP1 DUP1 MLOAD SWAP1 PUSH1 0x20 ADD SWAP1 PUSH3 0xC6 SWAP3 SWAP2 SWAP1 PUSH3 0x3F5 JUMP JUMPDEST POP POP POP PUSH1 0x0 PUSH14 0xAAEB6D7670E522A718067333CD4E PUSH20 0xFFFFFFFFFFFFFFFFFFFFFFFFFFFFFFFFFFFFFFFF AND EXTCODESIZE GT ISZERO PUSH3 0x2BE JUMPI DUP1 ISZERO PUSH3 0x184 JUMPI PUSH14 0xAAEB6D7670E522A718067333CD4E PUSH20 0xFFFFFFFFFFFFFFFFFFFFFFFFFFFFFFFFFFFFFFFF AND PUSH4 0x7D3E3DBE ADDRESS DUP5 PUSH1 0x40 MLOAD DUP4 PUSH4 0xFFFFFFFF AND PUSH1 0xE0 SHL DUP2 MSTORE PUSH1 0x4 ADD PUSH3 0x14A SWAP3 SWAP2 SWAP1 PUSH3 0x4EA JUMP JUMPDEST PUSH1 0x0 PUSH1 0x40 MLOAD DUP1 DUP4 SUB DUP2 PUSH1 0x0 DUP8 DUP1 EXTCODESIZE ISZERO DUP1 ISZERO PUSH3 0x165 JUMPI PUSH1 0x0 DUP1 REVERT JUMPDEST POP GAS CALL ISZERO DUP1 ISZERO PUSH3 0x17A JUMPI RETURNDATASIZE PUSH1 0x0 DUP1 RETURNDATACOPY RETURNDATASIZE PUSH1 0x0 REVERT JUMPDEST POP POP POP POP PUSH3 0x2BD JUMP JUMPDEST PUSH1 0x0 PUSH20 0xFFFFFFFFFFFFFFFFFFFFFFFFFFFFFFFFFFFFFFFF AND DUP3 PUSH20 0xFFFFFFFFFFFFFFFFFFFFFFFFFFFFFFFFFFFFFFFF AND EQ PUSH3 0x23E JUMPI PUSH14 0xAAEB6D7670E522A718067333CD4E PUSH20 0xFFFFFFFFFFFFFFFFFFFFFFFFFFFFFFFFFFFFFFFF AND PUSH4 0xA0AF2903 ADDRESS DUP5 PUSH1 0x40 MLOAD DUP4 PUSH4 0xFFFFFFFF AND PUSH1 0xE0 SHL DUP2 MSTORE PUSH1 0x4 ADD PUSH3 0x204 SWAP3 SWAP2 SWAP1 PUSH3 0x4EA JUMP JUMPDEST PUSH1 0x0 PUSH1 0x40 MLOAD DUP1 DUP4 SUB DUP2 PUSH1 0x0 DUP8 DUP1 EXTCODESIZE ISZERO DUP1 ISZERO PUSH3 0x21F JUMPI PUSH1 0x0 DUP1 REVERT JUMPDEST POP GAS CALL ISZERO DUP1 ISZERO PUSH3 0x234 JUMPI RETURNDATASIZE PUSH1 0x0 DUP1 RETURNDATACOPY RETURNDATASIZE PUSH1 0x0 REVERT JUMPDEST POP POP POP POP PUSH3 0x2BC JUMP JUMPDEST PUSH14 0xAAEB6D7670E522A718067333CD4E PUSH20 0xFFFFFFFFFFFFFFFFFFFFFFFFFFFFFFFFFFFFFFFF AND PUSH4 0x4420E486 ADDRESS PUSH1 0x40 MLOAD DUP3 PUSH4 0xFFFFFFFF AND PUSH1 0xE0 SHL DUP2 MSTORE PUSH1 0x4 ADD PUSH3 0x287 SWAP2 SWAP1 PUSH3 0x517 JUMP JUMPDEST PUSH1 0x0 PUSH1 0x40 MLOAD DUP1 DUP4 SUB DUP2 PUSH1 0x0 DUP8 DUP1 EXTCODESIZE ISZERO DUP1 ISZERO PUSH3 0x2A2 JUMPI PUSH1 0x0 DUP1 REVERT JUMPDEST POP GAS CALL ISZERO DUP1 ISZERO PUSH3 0x2B7 JUMPI RETURNDATASIZE PUSH1 0x0 DUP1 RETURNDATACOPY RETURNDATASIZE PUSH1 0x0 REVERT JUMPDEST POP POP POP POP JUMPDEST JUMPDEST JUMPDEST POP POP PUSH3 0x2E0 PUSH3 0x2D4 PUSH3 0x327 PUSH1 0x20 SHL PUSH1 0x20 SHR JUMP JUMPDEST PUSH3 0x32F PUSH1 0x20 SHL PUSH1 0x20 SHR JUMP JUMPDEST CALLER PUSH1 0xA PUSH1 0x0 PUSH2 0x100 EXP DUP2 SLOAD DUP2 PUSH20 0xFFFFFFFFFFFFFFFFFFFFFFFFFFFFFFFFFFFFFFFF MUL NOT AND SWAP1 DUP4 PUSH20 0xFFFFFFFFFFFFFFFFFFFFFFFFFFFFFFFFFFFFFFFF AND MUL OR SWAP1 SSTORE POP PUSH3 0x598 JUMP JUMPDEST PUSH1 0x0 CALLER SWAP1 POP SWAP1 JUMP JUMPDEST PUSH1 0x0 PUSH1 0x6 PUSH1 0x0 SWAP1 SLOAD SWAP1 PUSH2 0x100 EXP SWAP1 DIV PUSH20 0xFFFFFFFFFFFFFFFFFFFFFFFFFFFFFFFFFFFFFFFF AND SWAP1 POP DUP2 PUSH1 0x6 PUSH1 0x0 PUSH2 0x100 EXP DUP2 SLOAD DUP2 PUSH20 0xFFFFFFFFFFFFFFFFFFFFFFFFFFFFFFFFFFFFFFFF MUL NOT AND SWAP1 DUP4 PUSH20 0xFFFFFFFFFFFFFFFFFFFFFFFFFFFFFFFFFFFFFFFF AND MUL OR SWAP1 SSTORE POP DUP2 PUSH20 0xFFFFFFFFFFFFFFFFFFFFFFFFFFFFFFFFFFFFFFFF AND DUP2 PUSH20 0xFFFFFFFFFFFFFFFFFFFFFFFFFFFFFFFFFFFFFFFF AND PUSH32 0x8BE0079C531659141344CD1FD0A4F28419497F9722A3DAAFE3B4186F6B6457E0 PUSH1 0x40 MLOAD PUSH1 0x40 MLOAD DUP1 SWAP2 SUB SWAP1 LOG3 POP POP JUMP JUMPDEST DUP3 DUP1 SLOAD PUSH3 0x403 SWAP1 PUSH3 0x563 JUMP JUMPDEST SWAP1 PUSH1 0x0 MSTORE PUSH1 0x20 PUSH1 0x0 KECCAK256 SWAP1 PUSH1 0x1F ADD PUSH1 0x20 SWAP1 DIV DUP2 ADD SWAP3 DUP3 PUSH3 0x427 JUMPI PUSH1 0x0 DUP6 SSTORE PUSH3 0x473 JUMP JUMPDEST DUP3 PUSH1 0x1F LT PUSH3 0x442 JUMPI DUP1 MLOAD PUSH1 0xFF NOT AND DUP4 DUP1 ADD OR DUP6 SSTORE PUSH3 0x473 JUMP JUMPDEST DUP3 DUP1 ADD PUSH1 0x1 ADD DUP6 SSTORE DUP3 ISZERO PUSH3 0x473 JUMPI SWAP2 DUP3 ADD JUMPDEST DUP3 DUP2 GT ISZERO PUSH3 0x472 JUMPI DUP3 MLOAD DUP3 SSTORE SWAP2 PUSH1 0x20 ADD SWAP2 SWAP1 PUSH1 0x1 ADD SWAP1 PUSH3 0x455 JUMP JUMPDEST JUMPDEST POP SWAP1 POP PUSH3 0x482 SWAP2 SWAP1 PUSH3 0x486 JUMP JUMPDEST POP SWAP1 JUMP JUMPDEST JUMPDEST DUP1 DUP3 GT ISZERO PUSH3 0x4A1 JUMPI PUSH1 0x0 DUP2 PUSH1 0x0 SWAP1 SSTORE POP PUSH1 0x1 ADD PUSH3 0x487 JUMP JUMPDEST POP SWAP1 JUMP JUMPDEST PUSH1 0x0 PUSH20 0xFFFFFFFFFFFFFFFFFFFFFFFFFFFFFFFFFFFFFFFF DUP3 AND SWAP1 POP SWAP2 SWAP1 POP JUMP JUMPDEST PUSH1 0x0 PUSH3 0x4D2 DUP3 PUSH3 0x4A5 JUMP JUMPDEST SWAP1 POP SWAP2 SWAP1 POP JUMP JUMPDEST PUSH3 0x4E4 DUP2 PUSH3 0x4C5 JUMP JUMPDEST DUP3 MSTORE POP POP JUMP JUMPDEST PUSH1 0x0 PUSH1 0x40 DUP3 ADD SWAP1 POP PUSH3 0x501 PUSH1 0x0 DUP4 ADD DUP6 PUSH3 0x4D9 JUMP JUMPDEST PUSH3 0x510 PUSH1 0x20 DUP4 ADD DUP5 PUSH3 0x4D9 JUMP JUMPDEST SWAP4 SWAP3 POP POP POP JUMP JUMPDEST PUSH1 0x0 PUSH1 0x20 DUP3 ADD SWAP1 POP PUSH3 0x52E PUSH1 0x0 DUP4 ADD DUP5 PUSH3 0x4D9 JUMP JUMPDEST SWAP3 SWAP2 POP POP JUMP JUMPDEST PUSH32 0x4E487B7100000000000000000000000000000000000000000000000000000000 PUSH1 0x0 MSTORE PUSH1 0x22 PUSH1 0x4 MSTORE PUSH1 0x24 PUSH1 0x0 REVERT JUMPDEST PUSH1 0x0 PUSH1 0x2 DUP3 DIV SWAP1 POP PUSH1 0x1 DUP3 AND DUP1 PUSH3 0x57C JUMPI PUSH1 0x7F DUP3 AND SWAP2 POP JUMPDEST PUSH1 0x20 DUP3 LT DUP2 SUB PUSH3 0x592 JUMPI PUSH3 0x591 PUSH3 0x534 JUMP JUMPDEST JUMPDEST POP SWAP2 SWAP1 POP JUMP JUMPDEST PUSH2 0x4283 DUP1 PUSH3 0x5A8 PUSH1 0x0 CODECOPY PUSH1 0x0 RETURN INVALID PUSH1 0x80 PUSH1 0x40 MSTORE PUSH1 0x4 CALLDATASIZE LT PUSH2 0x19C JUMPI PUSH1 0x0 CALLDATALOAD PUSH1 0xE0 SHR DUP1 PUSH4 0x6E0F3F1E GT PUSH2 0xEC JUMPI DUP1 PUSH4 0xB88D4FDE GT PUSH2 0x8A JUMPI DUP1 PUSH4 0xCBDCA984 GT PUSH2 0x64 JUMPI DUP1 PUSH4 0xCBDCA984 EQ PUSH2 0x5B5 JUMPI DUP1 PUSH4 0xD9CF6A26 EQ PUSH2 0x5E0 JUMPI DUP1 PUSH4 0xE985E9C5 EQ PUSH2 0x60B JUMPI DUP1 PUSH4 0xF2FDE38B EQ PUSH2 0x648 JUMPI PUSH2 0x19C JUMP JUMPDEST DUP1 PUSH4 0xB88D4FDE EQ PUSH2 0x524 JUMPI DUP1 PUSH4 0xBF8FBBD2 EQ PUSH2 0x54D JUMPI DUP1 PUSH4 0xC87B56DD EQ PUSH2 0x578 JUMPI PUSH2 0x19C JUMP JUMPDEST DUP1 PUSH4 0x8DA5CB5B GT PUSH2 0xC6 JUMPI DUP1 PUSH4 0x8DA5CB5B EQ PUSH2 0x47A JUMPI DUP1 PUSH4 0x95D89B41 EQ PUSH2 0x4A5 JUMPI DUP1 PUSH4 0x9FBC8713 EQ PUSH2 0x4D0 JUMPI DUP1 PUSH4 0xA22CB465 EQ PUSH2 0x4FB JUMPI PUSH2 0x19C JUMP JUMPDEST DUP1 PUSH4 0x6E0F3F1E EQ PUSH2 0x40A JUMPI DUP1 PUSH4 0x70A08231 EQ PUSH2 0x426 JUMPI DUP1 PUSH4 0x715018A6 EQ PUSH2 0x463 JUMPI PUSH2 0x19C JUMP JUMPDEST DUP1 PUSH4 0x2A55205A GT PUSH2 0x159 JUMPI DUP1 PUSH4 0x41F43434 GT PUSH2 0x133 JUMPI DUP1 PUSH4 0x41F43434 EQ PUSH2 0x336 JUMPI DUP1 PUSH4 0x42842E0E EQ PUSH2 0x361 JUMPI DUP1 PUSH4 0x4C96A062 EQ PUSH2 0x38A JUMPI DUP1 PUSH4 0x6352211E EQ PUSH2 0x3CD JUMPI PUSH2 0x19C JUMP JUMPDEST DUP1 PUSH4 0x2A55205A EQ PUSH2 0x2C3 JUMPI DUP1 PUSH4 0x32CB6B0C EQ PUSH2 0x301 JUMPI DUP1 PUSH4 0x3CCFD60B EQ PUSH2 0x32C JUMPI PUSH2 0x19C JUMP JUMPDEST DUP1 PUSH4 0x1FFC9A7 EQ PUSH2 0x1A1 JUMPI DUP1 PUSH4 0x6FDDE03 EQ PUSH2 0x1DE JUMPI DUP1 PUSH4 0x81812FC EQ PUSH2 0x209 JUMPI DUP1 PUSH4 0x95EA7B3 EQ PUSH2 0x246 JUMPI DUP1 PUSH4 0x18160DDD EQ PUSH2 0x26F JUMPI DUP1 PUSH4 0x23B872DD EQ PUSH2 0x29A JUMPI JUMPDEST PUSH1 0x0 DUP1 REVERT JUMPDEST CALLVALUE DUP1 ISZERO PUSH2 0x1AD JUMPI PUSH1 0x0 DUP1 REVERT JUMPDEST POP PUSH2 0x1C8 PUSH1 0x4 DUP1 CALLDATASIZE SUB DUP2 ADD SWAP1 PUSH2 0x1C3 SWAP2 SWAP1 PUSH2 0x2BA5 JUMP JUMPDEST PUSH2 0x671 JUMP JUMPDEST PUSH1 0x40 MLOAD PUSH2 0x1D5 SWAP2 SWAP1 PUSH2 0x2BED JUMP JUMPDEST PUSH1 0x40 MLOAD DUP1 SWAP2 SUB SWAP1 RETURN JUMPDEST CALLVALUE DUP1 ISZERO PUSH2 0x1EA JUMPI PUSH1 0x0 DUP1 REVERT JUMPDEST POP PUSH2 0x1F3 PUSH2 0x6EB JUMP JUMPDEST PUSH1 0x40 MLOAD PUSH2 0x200 SWAP2 SWAP1 PUSH2 0x2CA1 JUMP JUMPDEST PUSH1 0x40 MLOAD DUP1 SWAP2 SUB SWAP1 RETURN JUMPDEST CALLVALUE DUP1 ISZERO PUSH2 0x215 JUMPI PUSH1 0x0 DUP1 REVERT JUMPDEST POP PUSH2 0x230 PUSH1 0x4 DUP1 CALLDATASIZE SUB DUP2 ADD SWAP1 PUSH2 0x22B SWAP2 SWAP1 PUSH2 0x2CF9 JUMP JUMPDEST PUSH2 0x77D JUMP JUMPDEST PUSH1 0x40 MLOAD PUSH2 0x23D SWAP2 SWAP1 PUSH2 0x2D67 JUMP JUMPDEST PUSH1 0x40 MLOAD DUP1 SWAP2 SUB SWAP1 RETURN JUMPDEST CALLVALUE DUP1 ISZERO PUSH2 0x252 JUMPI PUSH1 0x0 DUP1 REVERT JUMPDEST POP PUSH2 0x26D PUSH1 0x4 DUP1 CALLDATASIZE SUB DUP2 ADD SWAP1 PUSH2 0x268 SWAP2 SWAP1 PUSH2 0x2DAE JUMP JUMPDEST PUSH2 0x7C3 JUMP JUMPDEST STOP JUMPDEST CALLVALUE DUP1 ISZERO PUSH2 0x27B JUMPI PUSH1 0x0 DUP1 REVERT JUMPDEST POP PUSH2 0x284 PUSH2 0x7DC JUMP JUMPDEST PUSH1 0x40 MLOAD PUSH2 0x291 SWAP2 SWAP1 PUSH2 0x2DFD JUMP JUMPDEST PUSH1 0x40 MLOAD DUP1 SWAP2 SUB SWAP1 RETURN JUMPDEST CALLVALUE DUP1 ISZERO PUSH2 0x2A6 JUMPI PUSH1 0x0 DUP1 REVERT JUMPDEST POP PUSH2 0x2C1 PUSH1 0x4 DUP1 CALLDATASIZE SUB DUP2 ADD SWAP1 PUSH2 0x2BC SWAP2 SWAP1 PUSH2 0x2E18 JUMP JUMPDEST PUSH2 0x7ED JUMP JUMPDEST STOP JUMPDEST CALLVALUE DUP1 ISZERO PUSH2 0x2CF JUMPI PUSH1 0x0 DUP1 REVERT JUMPDEST POP PUSH2 0x2EA PUSH1 0x4 DUP1 CALLDATASIZE SUB DUP2 ADD SWAP1 PUSH2 0x2E5 SWAP2 SWAP1 PUSH2 0x2E6B JUMP JUMPDEST PUSH2 0x83C JUMP JUMPDEST PUSH1 0x40 MLOAD PUSH2 0x2F8 SWAP3 SWAP2 SWAP1 PUSH2 0x2EAB JUMP JUMPDEST PUSH1 0x40 MLOAD DUP1 SWAP2 SUB SWAP1 RETURN JUMPDEST CALLVALUE DUP1 ISZERO PUSH2 0x30D JUMPI PUSH1 0x0 DUP1 REVERT JUMPDEST POP PUSH2 0x316 PUSH2 0x8E5 JUMP JUMPDEST PUSH1 0x40 MLOAD PUSH2 0x323 SWAP2 SWAP1 PUSH2 0x2DFD JUMP JUMPDEST PUSH1 0x40 MLOAD DUP1 SWAP2 SUB SWAP1 RETURN JUMPDEST PUSH2 0x334 PUSH2 0x8EA JUMP JUMPDEST STOP JUMPDEST CALLVALUE DUP1 ISZERO PUSH2 0x342 JUMPI PUSH1 0x0 DUP1 REVERT JUMPDEST POP PUSH2 0x34B PUSH2 0x9A1 JUMP JUMPDEST PUSH1 0x40 MLOAD PUSH2 0x358 SWAP2 SWAP1 PUSH2 0x2F33 JUMP JUMPDEST PUSH1 0x40 MLOAD DUP1 SWAP2 SUB SWAP1 RETURN JUMPDEST CALLVALUE DUP1 ISZERO PUSH2 0x36D JUMPI PUSH1 0x0 DUP1 REVERT JUMPDEST POP PUSH2 0x388 PUSH1 0x4 DUP1 CALLDATASIZE SUB DUP2 ADD SWAP1 PUSH2 0x383 SWAP2 SWAP1 PUSH2 0x2E18 JUMP JUMPDEST PUSH2 0x9B3 JUMP JUMPDEST STOP JUMPDEST CALLVALUE DUP1 ISZERO PUSH2 0x396 JUMPI PUSH1 0x0 DUP1 REVERT JUMPDEST POP PUSH2 0x3B1 PUSH1 0x4 DUP1 CALLDATASIZE SUB DUP2 ADD SWAP1 PUSH2 0x3AC SWAP2 SWAP1 PUSH2 0x2CF9 JUMP JUMPDEST PUSH2 0xA02 JUMP JUMPDEST PUSH1 0x40 MLOAD PUSH2 0x3C4 SWAP8 SWAP7 SWAP6 SWAP5 SWAP4 SWAP3 SWAP2 SWAP1 PUSH2 0x2F6A JUMP JUMPDEST PUSH1 0x40 MLOAD DUP1 SWAP2 SUB SWAP1 RETURN JUMPDEST CALLVALUE DUP1 ISZERO PUSH2 0x3D9 JUMPI PUSH1 0x0 DUP1 REVERT JUMPDEST POP PUSH2 0x3F4 PUSH1 0x4 DUP1 CALLDATASIZE SUB DUP2 ADD SWAP1 PUSH2 0x3EF SWAP2 SWAP1 PUSH2 0x2CF9 JUMP JUMPDEST PUSH2 0xB2A JUMP JUMPDEST PUSH1 0x40 MLOAD PUSH2 0x401 SWAP2 SWAP1 PUSH2 0x2D67 JUMP JUMPDEST PUSH1 0x40 MLOAD DUP1 SWAP2 SUB SWAP1 RETURN JUMPDEST PUSH2 0x424 PUSH1 0x4 DUP1 CALLDATASIZE SUB DUP2 ADD SWAP1 PUSH2 0x41F SWAP2 SWAP1 PUSH2 0x3141 JUMP JUMPDEST PUSH2 0xBB0 JUMP JUMPDEST STOP JUMPDEST CALLVALUE DUP1 ISZERO PUSH2 0x432 JUMPI PUSH1 0x0 DUP1 REVERT JUMPDEST POP PUSH2 0x44D PUSH1 0x4 DUP1 CALLDATASIZE SUB DUP2 ADD SWAP1 PUSH2 0x448 SWAP2 SWAP1 PUSH2 0x31FF JUMP JUMPDEST PUSH2 0xF36 JUMP JUMPDEST PUSH1 0x40 MLOAD PUSH2 0x45A SWAP2 SWAP1 PUSH2 0x2DFD JUMP JUMPDEST PUSH1 0x40 MLOAD DUP1 SWAP2 SUB SWAP1 RETURN JUMPDEST CALLVALUE DUP1 ISZERO PUSH2 0x46F JUMPI PUSH1 0x0 DUP1 REVERT JUMPDEST POP PUSH2 0x478 PUSH2 0xFED JUMP JUMPDEST STOP JUMPDEST CALLVALUE DUP1 ISZERO PUSH2 0x486 JUMPI PUSH1 0x0 DUP1 REVERT JUMPDEST POP PUSH2 0x48F PUSH2 0x1001 JUMP JUMPDEST PUSH1 0x40 MLOAD PUSH2 0x49C SWAP2 SWAP1 PUSH2 0x2D67 JUMP JUMPDEST PUSH1 0x40 MLOAD DUP1 SWAP2 SUB SWAP1 RETURN JUMPDEST CALLVALUE DUP1 ISZERO PUSH2 0x4B1 JUMPI PUSH1 0x0 DUP1 REVERT JUMPDEST POP PUSH2 0x4BA PUSH2 0x102B JUMP JUMPDEST PUSH1 0x40 MLOAD PUSH2 0x4C7 SWAP2 SWAP1 PUSH2 0x2CA1 JUMP JUMPDEST PUSH1 0x40 MLOAD DUP1 SWAP2 SUB SWAP1 RETURN JUMPDEST CALLVALUE DUP1 ISZERO PUSH2 0x4DC JUMPI PUSH1 0x0 DUP1 REVERT JUMPDEST POP PUSH2 0x4E5 PUSH2 0x10BD JUMP JUMPDEST PUSH1 0x40 MLOAD PUSH2 0x4F2 SWAP2 SWAP1 PUSH2 0x2D67 JUMP JUMPDEST PUSH1 0x40 MLOAD DUP1 SWAP2 SUB SWAP1 RETURN JUMPDEST CALLVALUE DUP1 ISZERO PUSH2 0x507 JUMPI PUSH1 0x0 DUP1 REVERT JUMPDEST POP PUSH2 0x522 PUSH1 0x4 DUP1 CALLDATASIZE SUB DUP2 ADD SWAP1 PUSH2 0x51D SWAP2 SWAP1 PUSH2 0x3258 JUMP JUMPDEST PUSH2 0x10E3 JUMP JUMPDEST STOP JUMPDEST CALLVALUE DUP1 ISZERO PUSH2 0x530 JUMPI PUSH1 0x0 DUP1 REVERT JUMPDEST POP PUSH2 0x54B PUSH1 0x4 DUP1 CALLDATASIZE SUB DUP2 ADD SWAP1 PUSH2 0x546 SWAP2 SWAP1 PUSH2 0x3339 JUMP JUMPDEST PUSH2 0x10FC JUMP JUMPDEST STOP JUMPDEST CALLVALUE DUP1 ISZERO PUSH2 0x559 JUMPI PUSH1 0x0 DUP1 REVERT JUMPDEST POP PUSH2 0x562 PUSH2 0x114D JUMP JUMPDEST PUSH1 0x40 MLOAD PUSH2 0x56F SWAP2 SWAP1 PUSH2 0x2DFD JUMP JUMPDEST PUSH1 0x40 MLOAD DUP1 SWAP2 SUB SWAP1 RETURN JUMPDEST CALLVALUE DUP1 ISZERO PUSH2 0x584 JUMPI PUSH1 0x0 DUP1 REVERT JUMPDEST POP PUSH2 0x59F PUSH1 0x4 DUP1 CALLDATASIZE SUB DUP2 ADD SWAP1 PUSH2 0x59A SWAP2 SWAP1 PUSH2 0x2CF9 JUMP JUMPDEST PUSH2 0x1158 JUMP JUMPDEST PUSH1 0x40 MLOAD PUSH2 0x5AC SWAP2 SWAP1 PUSH2 0x2CA1 JUMP JUMPDEST PUSH1 0x40 MLOAD DUP1 SWAP2 SUB SWAP1 RETURN JUMPDEST CALLVALUE DUP1 ISZERO PUSH2 0x5C1 JUMPI PUSH1 0x0 DUP1 REVERT JUMPDEST POP PUSH2 0x5CA PUSH2 0x11C0 JUMP JUMPDEST PUSH1 0x40 MLOAD PUSH2 0x5D7 SWAP2 SWAP1 PUSH2 0x3573 JUMP JUMPDEST PUSH1 0x40 MLOAD DUP1 SWAP2 SUB SWAP1 RETURN JUMPDEST CALLVALUE DUP1 ISZERO PUSH2 0x5EC JUMPI PUSH1 0x0 DUP1 REVERT JUMPDEST POP PUSH2 0x5F5 PUSH2 0x139C JUMP JUMPDEST PUSH1 0x40 MLOAD PUSH2 0x602 SWAP2 SWAP1 PUSH2 0x3573 JUMP JUMPDEST PUSH1 0x40 MLOAD DUP1 SWAP2 SUB SWAP1 RETURN JUMPDEST CALLVALUE DUP1 ISZERO PUSH2 0x617 JUMPI PUSH1 0x0 DUP1 REVERT JUMPDEST POP PUSH2 0x632 PUSH1 0x4 DUP1 CALLDATASIZE SUB DUP2 ADD SWAP1 PUSH2 0x62D SWAP2 SWAP1 PUSH2 0x3595 JUMP JUMPDEST PUSH2 0x153B JUMP JUMPDEST PUSH1 0x40 MLOAD PUSH2 0x63F SWAP2 SWAP1 PUSH2 0x2BED JUMP JUMPDEST PUSH1 0x40 MLOAD DUP1 SWAP2 SUB SWAP1 RETURN JUMPDEST CALLVALUE DUP1 ISZERO PUSH2 0x654 JUMPI PUSH1 0x0 DUP1 REVERT JUMPDEST POP PUSH2 0x66F PUSH1 0x4 DUP1 CALLDATASIZE SUB DUP2 ADD SWAP1 PUSH2 0x66A SWAP2 SWAP1 PUSH2 0x31FF JUMP JUMPDEST PUSH2 0x15CF JUMP JUMPDEST STOP JUMPDEST PUSH1 0x0 PUSH32 0x2A55205A00000000000000000000000000000000000000000000000000000000 PUSH28 0xFFFFFFFFFFFFFFFFFFFFFFFFFFFFFFFFFFFFFFFFFFFFFFFFFFFFFFFF NOT AND DUP3 PUSH28 0xFFFFFFFFFFFFFFFFFFFFFFFFFFFFFFFFFFFFFFFFFFFFFFFFFFFFFFFF NOT AND EQ DUP1 PUSH2 0x6E4 JUMPI POP PUSH2 0x6E3 DUP3 PUSH2 0x1652 JUMP JUMPDEST JUMPDEST SWAP1 POP SWAP2 SWAP1 POP JUMP JUMPDEST PUSH1 0x60 PUSH1 0x0 DUP1 SLOAD PUSH2 0x6FA SWAP1 PUSH2 0x3604 JUMP JUMPDEST DUP1 PUSH1 0x1F ADD PUSH1 0x20 DUP1 SWAP2 DIV MUL PUSH1 0x20 ADD PUSH1 0x40 MLOAD SWAP1 DUP2 ADD PUSH1 0x40 MSTORE DUP1 SWAP3 SWAP2 SWAP1 DUP2 DUP2 MSTORE PUSH1 0x20 ADD DUP3 DUP1 SLOAD PUSH2 0x726 SWAP1 PUSH2 0x3604 JUMP JUMPDEST DUP1 ISZERO PUSH2 0x773 JUMPI DUP1 PUSH1 0x1F LT PUSH2 0x748 JUMPI PUSH2 0x100 DUP1 DUP4 SLOAD DIV MUL DUP4 MSTORE SWAP2 PUSH1 0x20 ADD SWAP2 PUSH2 0x773 JUMP JUMPDEST DUP3 ADD SWAP2 SWAP1 PUSH1 0x0 MSTORE PUSH1 0x20 PUSH1 0x0 KECCAK256 SWAP1 JUMPDEST DUP2 SLOAD DUP2 MSTORE SWAP1 PUSH1 0x1 ADD SWAP1 PUSH1 0x20 ADD DUP1 DUP4 GT PUSH2 0x756 JUMPI DUP3 SWAP1 SUB PUSH1 0x1F AND DUP3 ADD SWAP2 JUMPDEST POP POP POP POP POP SWAP1 POP SWAP1 JUMP JUMPDEST PUSH1 0x0 PUSH2 0x788 DUP3 PUSH2 0x1734 JUMP JUMPDEST PUSH1 0x4 PUSH1 0x0 DUP4 DUP2 MSTORE PUSH1 0x20 ADD SWAP1 DUP2 MSTORE PUSH1 0x20 ADD PUSH1 0x0 KECCAK256 PUSH1 0x0 SWAP1 SLOAD SWAP1 PUSH2 0x100 EXP SWAP1 DIV PUSH20 0xFFFFFFFFFFFFFFFFFFFFFFFFFFFFFFFFFFFFFFFF AND SWAP1 POP SWAP2 SWAP1 POP JUMP JUMPDEST DUP2 PUSH2 0x7CD DUP2 PUSH2 0x177F JUMP JUMPDEST PUSH2 0x7D7 DUP4 DUP4 PUSH2 0x187C JUMP JUMPDEST POP POP POP JUMP JUMPDEST PUSH1 0x0 PUSH2 0x7E8 PUSH1 0x7 PUSH2 0x1993 JUMP JUMPDEST SWAP1 POP SWAP1 JUMP JUMPDEST DUP3 CALLER PUSH20 0xFFFFFFFFFFFFFFFFFFFFFFFFFFFFFFFFFFFFFFFF AND DUP2 PUSH20 0xFFFFFFFFFFFFFFFFFFFFFFFFFFFFFFFFFFFFFFFF AND EQ PUSH2 0x82B JUMPI PUSH2 0x82A CALLER PUSH2 0x177F JUMP JUMPDEST JUMPDEST PUSH2 0x836 DUP5 DUP5 DUP5 PUSH2 0x19A1 JUMP JUMPDEST POP POP POP POP JUMP JUMPDEST PUSH1 0x0 DUP1 PUSH2 0x848 DUP5 PUSH2 0x1A01 JUMP JUMPDEST PUSH2 0x887 JUMPI PUSH1 0x40 MLOAD PUSH32 0x8C379A000000000000000000000000000000000000000000000000000000000 DUP2 MSTORE PUSH1 0x4 ADD PUSH2 0x87E SWAP1 PUSH2 0x36A7 JUMP JUMPDEST PUSH1 0x40 MLOAD DUP1 SWAP2 SUB SWAP1 REVERT JUMPDEST PUSH1 0x0 PUSH2 0x2710 PUSH1 0x64 DUP6 PUSH2 0x899 SWAP2 SWAP1 PUSH2 0x36F6 JUMP JUMPDEST PUSH2 0x8A3 SWAP2 SWAP1 PUSH2 0x377F JUMP JUMPDEST SWAP1 POP DUP4 DUP2 LT PUSH2 0x8B5 JUMPI PUSH2 0x8B4 PUSH2 0x37B0 JUMP JUMPDEST JUMPDEST PUSH1 0xA PUSH1 0x0 SWAP1 SLOAD SWAP1 PUSH2 0x100 EXP SWAP1 DIV PUSH20 0xFFFFFFFFFFFFFFFFFFFFFFFFFFFFFFFFFFFFFFFF AND DUP2 SWAP3 POP SWAP3 POP POP SWAP3 POP SWAP3 SWAP1 POP JUMP JUMPDEST PUSH1 0x64 DUP2 JUMP JUMPDEST PUSH2 0x8F2 PUSH2 0x1A42 JUMP JUMPDEST PUSH1 0x0 CALLER PUSH20 0xFFFFFFFFFFFFFFFFFFFFFFFFFFFFFFFFFFFFFFFF AND SELFBALANCE PUSH1 0x40 MLOAD PUSH2 0x918 SWAP1 PUSH2 0x3810 JUMP JUMPDEST PUSH1 0x0 PUSH1 0x40 MLOAD DUP1 DUP4 SUB DUP2 DUP6 DUP8 GAS CALL SWAP3 POP POP POP RETURNDATASIZE DUP1 PUSH1 0x0 DUP2 EQ PUSH2 0x955 JUMPI PUSH1 0x40 MLOAD SWAP2 POP PUSH1 0x1F NOT PUSH1 0x3F RETURNDATASIZE ADD AND DUP3 ADD PUSH1 0x40 MSTORE RETURNDATASIZE DUP3 MSTORE RETURNDATASIZE PUSH1 0x0 PUSH1 0x20 DUP5 ADD RETURNDATACOPY PUSH2 0x95A JUMP JUMPDEST PUSH1 0x60 SWAP2 POP JUMPDEST POP POP SWAP1 POP DUP1 PUSH2 0x99E JUMPI PUSH1 0x40 MLOAD PUSH32 0x8C379A000000000000000000000000000000000000000000000000000000000 DUP2 MSTORE PUSH1 0x4 ADD PUSH2 0x995 SWAP1 PUSH2 0x3871 JUMP JUMPDEST PUSH1 0x40 MLOAD DUP1 SWAP2 SUB SWAP1 REVERT JUMPDEST POP JUMP JUMPDEST PUSH14 0xAAEB6D7670E522A718067333CD4E DUP2 JUMP JUMPDEST DUP3 CALLER PUSH20 0xFFFFFFFFFFFFFFFFFFFFFFFFFFFFFFFFFFFFFFFF AND DUP2 PUSH20 0xFFFFFFFFFFFFFFFFFFFFFFFFFFFFFFFFFFFFFFFF AND EQ PUSH2 0x9F1 JUMPI PUSH2 0x9F0 CALLER PUSH2 0x177F JUMP JUMPDEST JUMPDEST PUSH2 0x9FC DUP5 DUP5 DUP5 PUSH2 0x1AC0 JUMP JUMPDEST POP POP POP POP JUMP JUMPDEST PUSH1 0x9 DUP2 DUP2 SLOAD DUP2 LT PUSH2 0xA12 JUMPI PUSH1 0x0 DUP1 REVERT JUMPDEST SWAP1 PUSH1 0x0 MSTORE PUSH1 0x20 PUSH1 0x0 KECCAK256 SWAP1 PUSH1 0x2 MUL ADD PUSH1 0x0 SWAP2 POP SWAP1 POP DUP1 PUSH1 0x0 ADD DUP1 SLOAD PUSH2 0xA35 SWAP1 PUSH2 0x3604 JUMP JUMPDEST DUP1 PUSH1 0x1F ADD PUSH1 0x20 DUP1 SWAP2 DIV MUL PUSH1 0x20 ADD PUSH1 0x40 MLOAD SWAP1 DUP2 ADD PUSH1 0x40 MSTORE DUP1 SWAP3 SWAP2 SWAP1 DUP2 DUP2 MSTORE PUSH1 0x20 ADD DUP3 DUP1 SLOAD PUSH2 0xA61 SWAP1 PUSH2 0x3604 JUMP JUMPDEST DUP1 ISZERO PUSH2 0xAAE JUMPI DUP1 PUSH1 0x1F LT PUSH2 0xA83 JUMPI PUSH2 0x100 DUP1 DUP4 SLOAD DIV MUL DUP4 MSTORE SWAP2 PUSH1 0x20 ADD SWAP2 PUSH2 0xAAE JUMP JUMPDEST DUP3 ADD SWAP2 SWAP1 PUSH1 0x0 MSTORE PUSH1 0x20 PUSH1 0x0 KECCAK256 SWAP1 JUMPDEST DUP2 SLOAD DUP2 MSTORE SWAP1 PUSH1 0x1 ADD SWAP1 PUSH1 0x20 ADD DUP1 DUP4 GT PUSH2 0xA91 JUMPI DUP3 SWAP1 SUB PUSH1 0x1F AND DUP3 ADD SWAP2 JUMPDEST POP POP POP POP POP SWAP1 DUP1 PUSH1 0x1 ADD PUSH1 0x0 SWAP1 SLOAD SWAP1 PUSH2 0x100 EXP SWAP1 DIV PUSH1 0x0 SIGNEXTEND SWAP1 DUP1 PUSH1 0x1 ADD PUSH1 0x1 SWAP1 SLOAD SWAP1 PUSH2 0x100 EXP SWAP1 DIV PUSH1 0x0 SIGNEXTEND SWAP1 DUP1 PUSH1 0x1 ADD PUSH1 0x2 SWAP1 SLOAD SWAP1 PUSH2 0x100 EXP SWAP1 DIV PUSH1 0x0 SIGNEXTEND SWAP1 DUP1 PUSH1 0x1 ADD PUSH1 0x3 SWAP1 SLOAD SWAP1 PUSH2 0x100 EXP SWAP1 DIV PUSH1 0x0 SIGNEXTEND SWAP1 DUP1 PUSH1 0x1 ADD PUSH1 0x4 SWAP1 SLOAD SWAP1 PUSH2 0x100 EXP SWAP1 DIV PUSH1 0x0 SIGNEXTEND SWAP1 DUP1 PUSH1 0x1 ADD PUSH1 0x5 SWAP1 SLOAD SWAP1 PUSH2 0x100 EXP SWAP1 DIV PUSH1 0x0 SIGNEXTEND SWAP1 POP DUP8 JUMP JUMPDEST PUSH1 0x0 DUP1 PUSH2 0xB36 DUP4 PUSH2 0x1AE0 JUMP JUMPDEST SWAP1 POP PUSH1 0x0 PUSH20 0xFFFFFFFFFFFFFFFFFFFFFFFFFFFFFFFFFFFFFFFF AND DUP2 PUSH20 0xFFFFFFFFFFFFFFFFFFFFFFFFFFFFFFFFFFFFFFFF AND SUB PUSH2 0xBA7 JUMPI PUSH1 0x40 MLOAD PUSH32 0x8C379A000000000000000000000000000000000000000000000000000000000 DUP2 MSTORE PUSH1 0x4 ADD PUSH2 0xB9E SWAP1 PUSH2 0x38DD JUMP JUMPDEST PUSH1 0x40 MLOAD DUP1 SWAP2 SUB SWAP1 REVERT JUMPDEST DUP1 SWAP2 POP POP SWAP2 SWAP1 POP JUMP JUMPDEST PUSH1 0x64 PUSH2 0xBBA PUSH2 0x7DC JUMP JUMPDEST GT ISZERO PUSH2 0xBFB JUMPI PUSH1 0x40 MLOAD PUSH32 0x8C379A000000000000000000000000000000000000000000000000000000000 DUP2 MSTORE PUSH1 0x4 ADD PUSH2 0xBF2 SWAP1 PUSH2 0x3949 JUMP JUMPDEST PUSH1 0x40 MLOAD DUP1 SWAP2 SUB SWAP1 REVERT JUMPDEST PUSH7 0x38D7EA4C68000 CALLVALUE LT ISZERO PUSH2 0xC45 JUMPI PUSH1 0x40 MLOAD PUSH32 0x8C379A000000000000000000000000000000000000000000000000000000000 DUP2 MSTORE PUSH1 0x4 ADD PUSH2 0xC3C SWAP1 PUSH2 0x39B5 JUMP JUMPDEST PUSH1 0x40 MLOAD DUP1 SWAP2 SUB SWAP1 REVERT JUMPDEST PUSH2 0xC4F PUSH1 0x7 PUSH2 0x1B1D JUMP JUMPDEST PUSH2 0xC60 CALLER PUSH2 0xC5B PUSH2 0x7DC JUMP JUMPDEST PUSH2 0x1B33 JUMP JUMPDEST PUSH1 0x0 PUSH1 0x40 MLOAD DUP1 PUSH1 0xE0 ADD PUSH1 0x40 MSTORE DUP1 DUP10 DUP2 MSTORE PUSH1 0x20 ADD DUP9 PUSH1 0x0 SIGNEXTEND DUP2 MSTORE PUSH1 0x20 ADD DUP8 PUSH1 0x0 SIGNEXTEND DUP2 MSTORE PUSH1 0x20 ADD DUP7 PUSH1 0x0 SIGNEXTEND DUP2 MSTORE PUSH1 0x20 ADD DUP6 PUSH1 0x0 SIGNEXTEND DUP2 MSTORE PUSH1 0x20 ADD DUP5 PUSH1 0x0 SIGNEXTEND DUP2 MSTORE PUSH1 0x20 ADD DUP4 PUSH1 0x0 SIGNEXTEND DUP2 MSTORE POP SWAP1 POP PUSH1 0x9 DUP2 SWAP1 DUP1 PUSH1 0x1 DUP2 SLOAD ADD DUP1 DUP3 SSTORE DUP1 SWAP2 POP POP PUSH1 0x1 SWAP1 SUB SWAP1 PUSH1 0x0 MSTORE PUSH1 0x20 PUSH1 0x0 KECCAK256 SWAP1 PUSH1 0x2 MUL ADD PUSH1 0x0 SWAP1 SWAP2 SWAP1 SWAP2 SWAP1 SWAP2 POP PUSH1 0x0 DUP3 ADD MLOAD DUP2 PUSH1 0x0 ADD SWAP1 DUP1 MLOAD SWAP1 PUSH1 0x20 ADD SWAP1 PUSH2 0xCF1 SWAP3 SWAP2 SWAP1 PUSH2 0x2A96 JUMP JUMPDEST POP PUSH1 0x20 DUP3 ADD MLOAD DUP2 PUSH1 0x1 ADD PUSH1 0x0 PUSH2 0x100 EXP DUP2 SLOAD DUP2 PUSH1 0xFF MUL NOT AND SWAP1 DUP4 PUSH1 0x0 SIGNEXTEND PUSH1 0xFF AND MUL OR SWAP1 SSTORE POP PUSH1 0x40 DUP3 ADD MLOAD DUP2 PUSH1 0x1 ADD PUSH1 0x1 PUSH2 0x100 EXP DUP2 SLOAD DUP2 PUSH1 0xFF MUL NOT AND SWAP1 DUP4 PUSH1 0x0 SIGNEXTEND PUSH1 0xFF AND MUL OR SWAP1 SSTORE POP PUSH1 0x60 DUP3 ADD MLOAD DUP2 PUSH1 0x1 ADD PUSH1 0x2 PUSH2 0x100 EXP DUP2 SLOAD DUP2 PUSH1 0xFF MUL NOT AND SWAP1 DUP4 PUSH1 0x0 SIGNEXTEND PUSH1 0xFF AND MUL OR SWAP1 SSTORE POP PUSH1 0x80 DUP3 ADD MLOAD DUP2 PUSH1 0x1 ADD PUSH1 0x3 PUSH2 0x100 EXP DUP2 SLOAD DUP2 PUSH1 0xFF MUL NOT AND SWAP1 DUP4 PUSH1 0x0 SIGNEXTEND PUSH1 0xFF AND MUL OR SWAP1 SSTORE POP PUSH1 0xA0 DUP3 ADD MLOAD DUP2 PUSH1 0x1 ADD PUSH1 0x4 PUSH2 0x100 EXP DUP2 SLOAD DUP2 PUSH1 0xFF MUL NOT AND SWAP1 DUP4 PUSH1 0x0 SIGNEXTEND PUSH1 0xFF AND MUL OR SWAP1 SSTORE POP PUSH1 0xC0 DUP3 ADD MLOAD DUP2 PUSH1 0x1 ADD PUSH1 0x5 PUSH2 0x100 EXP DUP2 SLOAD DUP2 PUSH1 0xFF MUL NOT AND SWAP1 DUP4 PUSH1 0x0 SIGNEXTEND PUSH1 0xFF AND MUL OR SWAP1 SSTORE POP POP POP PUSH1 0x8 PUSH1 0x0 CALLER PUSH20 0xFFFFFFFFFFFFFFFFFFFFFFFFFFFFFFFFFFFFFFFF AND PUSH20 0xFFFFFFFFFFFFFFFFFFFFFFFFFFFFFFFFFFFFFFFF AND DUP2 MSTORE PUSH1 0x20 ADD SWAP1 DUP2 MSTORE PUSH1 0x20 ADD PUSH1 0x0 KECCAK256 DUP2 SWAP1 DUP1 PUSH1 0x1 DUP2 SLOAD ADD DUP1 DUP3 SSTORE DUP1 SWAP2 POP POP PUSH1 0x1 SWAP1 SUB SWAP1 PUSH1 0x0 MSTORE PUSH1 0x20 PUSH1 0x0 KECCAK256 SWAP1 PUSH1 0x2 MUL ADD PUSH1 0x0 SWAP1 SWAP2 SWAP1 SWAP2 SWAP1 SWAP2 POP PUSH1 0x0 DUP3 ADD MLOAD DUP2 PUSH1 0x0 ADD SWAP1 DUP1 MLOAD SWAP1 PUSH1 0x20 ADD SWAP1 PUSH2 0xE51 SWAP3 SWAP2 SWAP1 PUSH2 0x2A96 JUMP JUMPDEST POP PUSH1 0x20 DUP3 ADD MLOAD DUP2 PUSH1 0x1 ADD PUSH1 0x0 PUSH2 0x100 EXP DUP2 SLOAD DUP2 PUSH1 0xFF MUL NOT AND SWAP1 DUP4 PUSH1 0x0 SIGNEXTEND PUSH1 0xFF AND MUL OR SWAP1 SSTORE POP PUSH1 0x40 DUP3 ADD MLOAD DUP2 PUSH1 0x1 ADD PUSH1 0x1 PUSH2 0x100 EXP DUP2 SLOAD DUP2 PUSH1 0xFF MUL NOT AND SWAP1 DUP4 PUSH1 0x0 SIGNEXTEND PUSH1 0xFF AND MUL OR SWAP1 SSTORE POP PUSH1 0x60 DUP3 ADD MLOAD DUP2 PUSH1 0x1 ADD PUSH1 0x2 PUSH2 0x100 EXP DUP2 SLOAD DUP2 PUSH1 0xFF MUL NOT AND SWAP1 DUP4 PUSH1 0x0 SIGNEXTEND PUSH1 0xFF AND MUL OR SWAP1 SSTORE POP PUSH1 0x80 DUP3 ADD MLOAD DUP2 PUSH1 0x1 ADD PUSH1 0x3 PUSH2 0x100 EXP DUP2 SLOAD DUP2 PUSH1 0xFF MUL NOT AND SWAP1 DUP4 PUSH1 0x0 SIGNEXTEND PUSH1 0xFF AND MUL OR SWAP1 SSTORE POP PUSH1 0xA0 DUP3 ADD MLOAD DUP2 PUSH1 0x1 ADD PUSH1 0x4 PUSH2 0x100 EXP DUP2 SLOAD DUP2 PUSH1 0xFF MUL NOT AND SWAP1 DUP4 PUSH1 0x0 SIGNEXTEND PUSH1 0xFF AND MUL OR SWAP1 SSTORE POP PUSH1 0xC0 DUP3 ADD MLOAD DUP2 PUSH1 0x1 ADD PUSH1 0x5 PUSH2 0x100 EXP DUP2 SLOAD DUP2 PUSH1 0xFF MUL NOT AND SWAP1 DUP4 PUSH1 0x0 SIGNEXTEND PUSH1 0xFF AND MUL OR SWAP1 SSTORE POP POP POP POP POP POP POP POP POP POP POP JUMP JUMPDEST PUSH1 0x0 DUP1 PUSH20 0xFFFFFFFFFFFFFFFFFFFFFFFFFFFFFFFFFFFFFFFF AND DUP3 PUSH20 0xFFFFFFFFFFFFFFFFFFFFFFFFFFFFFFFFFFFFFFFF AND SUB PUSH2 0xFA6 JUMPI PUSH1 0x40 MLOAD PUSH32 0x8C379A000000000000000000000000000000000000000000000000000000000 DUP2 MSTORE PUSH1 0x4 ADD PUSH2 0xF9D SWAP1 PUSH2 0x3A47 JUMP JUMPDEST PUSH1 0x40 MLOAD DUP1 SWAP2 SUB SWAP1 REVERT JUMPDEST PUSH1 0x3 PUSH1 0x0 DUP4 PUSH20 0xFFFFFFFFFFFFFFFFFFFFFFFFFFFFFFFFFFFFFFFF AND PUSH20 0xFFFFFFFFFFFFFFFFFFFFFFFFFFFFFFFFFFFFFFFF AND DUP2 MSTORE PUSH1 0x20 ADD SWAP1 DUP2 MSTORE PUSH1 0x20 ADD PUSH1 0x0 KECCAK256 SLOAD SWAP1 POP SWAP2 SWAP1 POP JUMP JUMPDEST PUSH2 0xFF5 PUSH2 0x1A42 JUMP JUMPDEST PUSH2 0xFFF PUSH1 0x0 PUSH2 0x1B51 JUMP JUMPDEST JUMP JUMPDEST PUSH1 0x0 PUSH1 0x6 PUSH1 0x0 SWAP1 SLOAD SWAP1 PUSH2 0x100 EXP SWAP1 DIV PUSH20 0xFFFFFFFFFFFFFFFFFFFFFFFFFFFFFFFFFFFFFFFF AND SWAP1 POP SWAP1 JUMP JUMPDEST PUSH1 0x60 PUSH1 0x1 DUP1 SLOAD PUSH2 0x103A SWAP1 PUSH2 0x3604 JUMP JUMPDEST DUP1 PUSH1 0x1F ADD PUSH1 0x20 DUP1 SWAP2 DIV MUL PUSH1 0x20 ADD PUSH1 0x40 MLOAD SWAP1 DUP2 ADD PUSH1 0x40 MSTORE DUP1 SWAP3 SWAP2 SWAP1 DUP2 DUP2 MSTORE PUSH1 0x20 ADD DUP3 DUP1 SLOAD PUSH2 0x1066 SWAP1 PUSH2 0x3604 JUMP JUMPDEST DUP1 ISZERO PUSH2 0x10B3 JUMPI DUP1 PUSH1 0x1F LT PUSH2 0x1088 JUMPI PUSH2 0x100 DUP1 DUP4 SLOAD DIV MUL DUP4 MSTORE SWAP2 PUSH1 0x20 ADD SWAP2 PUSH2 0x10B3 JUMP JUMPDEST DUP3 ADD SWAP2 SWAP1 PUSH1 0x0 MSTORE PUSH1 0x20 PUSH1 0x0 KECCAK256 SWAP1 JUMPDEST DUP2 SLOAD DUP2 MSTORE SWAP1 PUSH1 0x1 ADD SWAP1 PUSH1 0x20 ADD DUP1 DUP4 GT PUSH2 0x1096 JUMPI DUP3 SWAP1 SUB PUSH1 0x1F AND DUP3 ADD SWAP2 JUMPDEST POP POP POP POP POP SWAP1 POP SWAP1 JUMP JUMPDEST PUSH1 0xA PUSH1 0x0 SWAP1 SLOAD SWAP1 PUSH2 0x100 EXP SWAP1 DIV PUSH20 0xFFFFFFFFFFFFFFFFFFFFFFFFFFFFFFFFFFFFFFFF AND DUP2 JUMP JUMPDEST DUP2 PUSH2 0x10ED DUP2 PUSH2 0x177F JUMP JUMPDEST PUSH2 0x10F7 DUP4 DUP4 PUSH2 0x1C17 JUMP JUMPDEST POP POP POP JUMP JUMPDEST DUP4 CALLER PUSH20 0xFFFFFFFFFFFFFFFFFFFFFFFFFFFFFFFFFFFFFFFF AND DUP2 PUSH20 0xFFFFFFFFFFFFFFFFFFFFFFFFFFFFFFFFFFFFFFFF AND EQ PUSH2 0x113A JUMPI PUSH2 0x1139 CALLER PUSH2 0x177F JUMP JUMPDEST JUMPDEST PUSH2 0x1146 DUP6 DUP6 DUP6 DUP6 PUSH2 0x1C2D JUMP JUMPDEST POP POP POP POP POP JUMP JUMPDEST PUSH7 0x38D7EA4C68000 DUP2 JUMP JUMPDEST PUSH1 0x60 PUSH2 0x1163 DUP3 PUSH2 0x1734 JUMP JUMPDEST PUSH1 0x0 PUSH2 0x116D PUSH2 0x1C8F JUMP JUMPDEST SWAP1 POP PUSH1 0x0 DUP2 MLOAD GT PUSH2 0x118D JUMPI PUSH1 0x40 MLOAD DUP1 PUSH1 0x20 ADD PUSH1 0x40 MSTORE DUP1 PUSH1 0x0 DUP2 MSTORE POP PUSH2 0x11B8 JUMP JUMPDEST DUP1 PUSH2 0x1197 DUP5 PUSH2 0x1CA6 JUMP JUMPDEST PUSH1 0x40 MLOAD PUSH1 0x20 ADD PUSH2 0x11A8 SWAP3 SWAP2 SWAP1 PUSH2 0x3AA3 JUMP JUMPDEST PUSH1 0x40 MLOAD PUSH1 0x20 DUP2 DUP4 SUB SUB DUP2 MSTORE SWAP1 PUSH1 0x40 MSTORE JUMPDEST SWAP2 POP POP SWAP2 SWAP1 POP JUMP JUMPDEST PUSH1 0x60 PUSH1 0x8 PUSH1 0x0 CALLER PUSH20 0xFFFFFFFFFFFFFFFFFFFFFFFFFFFFFFFFFFFFFFFF AND PUSH20 0xFFFFFFFFFFFFFFFFFFFFFFFFFFFFFFFFFFFFFFFF AND DUP2 MSTORE PUSH1 0x20 ADD SWAP1 DUP2 MSTORE PUSH1 0x20 ADD PUSH1 0x0 KECCAK256 DUP1 SLOAD DUP1 PUSH1 0x20 MUL PUSH1 0x20 ADD PUSH1 0x40 MLOAD SWAP1 DUP2 ADD PUSH1 0x40 MSTORE DUP1 SWAP3 SWAP2 SWAP1 DUP2 DUP2 MSTORE PUSH1 0x20 ADD PUSH1 0x0 SWAP1 JUMPDEST DUP3 DUP3 LT ISZERO PUSH2 0x1393 JUMPI DUP4 DUP3 SWAP1 PUSH1 0x0 MSTORE PUSH1 0x20 PUSH1 0x0 KECCAK256 SWAP1 PUSH1 0x2 MUL ADD PUSH1 0x40 MLOAD DUP1 PUSH1 0xE0 ADD PUSH1 0x40 MSTORE SWAP1 DUP2 PUSH1 0x0 DUP3 ADD DUP1 SLOAD PUSH2 0x1254 SWAP1 PUSH2 0x3604 JUMP JUMPDEST DUP1 PUSH1 0x1F ADD PUSH1 0x20 DUP1 SWAP2 DIV MUL PUSH1 0x20 ADD PUSH1 0x40 MLOAD SWAP1 DUP2 ADD PUSH1 0x40 MSTORE DUP1 SWAP3 SWAP2 SWAP1 DUP2 DUP2 MSTORE PUSH1 0x20 ADD DUP3 DUP1 SLOAD PUSH2 0x1280 SWAP1 PUSH2 0x3604 JUMP JUMPDEST DUP1 ISZERO PUSH2 0x12CD JUMPI DUP1 PUSH1 0x1F LT PUSH2 0x12A2 JUMPI PUSH2 0x100 DUP1 DUP4 SLOAD DIV MUL DUP4 MSTORE SWAP2 PUSH1 0x20 ADD SWAP2 PUSH2 0x12CD JUMP JUMPDEST DUP3 ADD SWAP2 SWAP1 PUSH1 0x0 MSTORE PUSH1 0x20 PUSH1 0x0 KECCAK256 SWAP1 JUMPDEST DUP2 SLOAD DUP2 MSTORE SWAP1 PUSH1 0x1 ADD SWAP1 PUSH1 0x20 ADD DUP1 DUP4 GT PUSH2 0x12B0 JUMPI DUP3 SWAP1 SUB PUSH1 0x1F AND DUP3 ADD SWAP2 JUMPDEST POP POP POP POP POP DUP2 MSTORE PUSH1 0x20 ADD PUSH1 0x1 DUP3 ADD PUSH1 0x0 SWAP1 SLOAD SWAP1 PUSH2 0x100 EXP SWAP1 DIV PUSH1 0x0 SIGNEXTEND PUSH1 0x0 SIGNEXTEND PUSH1 0x0 SIGNEXTEND DUP2 MSTORE PUSH1 0x20 ADD PUSH1 0x1 DUP3 ADD PUSH1 0x1 SWAP1 SLOAD SWAP1 PUSH2 0x100 EXP SWAP1 DIV PUSH1 0x0 SIGNEXTEND PUSH1 0x0 SIGNEXTEND PUSH1 0x0 SIGNEXTEND DUP2 MSTORE PUSH1 0x20 ADD PUSH1 0x1 DUP3 ADD PUSH1 0x2 SWAP1 SLOAD SWAP1 PUSH2 0x100 EXP SWAP1 DIV PUSH1 0x0 SIGNEXTEND PUSH1 0x0 SIGNEXTEND PUSH1 0x0 SIGNEXTEND DUP2 MSTORE PUSH1 0x20 ADD PUSH1 0x1 DUP3 ADD PUSH1 0x3 SWAP1 SLOAD SWAP1 PUSH2 0x100 EXP SWAP1 DIV PUSH1 0x0 SIGNEXTEND PUSH1 0x0 SIGNEXTEND PUSH1 0x0 SIGNEXTEND DUP2 MSTORE PUSH1 0x20 ADD PUSH1 0x1 DUP3 ADD PUSH1 0x4 SWAP1 SLOAD SWAP1 PUSH2 0x100 EXP SWAP1 DIV PUSH1 0x0 SIGNEXTEND PUSH1 0x0 SIGNEXTEND PUSH1 0x0 SIGNEXTEND DUP2 MSTORE PUSH1 0x20 ADD PUSH1 0x1 DUP3 ADD PUSH1 0x5 SWAP1 SLOAD SWAP1 PUSH2 0x100 EXP SWAP1 DIV PUSH1 0x0 SIGNEXTEND PUSH1 0x0 SIGNEXTEND PUSH1 0x0 SIGNEXTEND DUP2 MSTORE POP POP DUP2 MSTORE PUSH1 0x20 ADD SWAP1 PUSH1 0x1 ADD SWAP1 PUSH2 0x1221 JUMP JUMPDEST POP POP POP POP SWAP1 POP SWAP1 JUMP JUMPDEST PUSH1 0x60 PUSH1 0x9 DUP1 SLOAD DUP1 PUSH1 0x20 MUL PUSH1 0x20 ADD PUSH1 0x40 MLOAD SWAP1 DUP2 ADD PUSH1 0x40 MSTORE DUP1 SWAP3 SWAP2 SWAP1 DUP2 DUP2 MSTORE PUSH1 0x20 ADD PUSH1 0x0 SWAP1 JUMPDEST DUP3 DUP3 LT ISZERO PUSH2 0x1532 JUMPI DUP4 DUP3 SWAP1 PUSH1 0x0 MSTORE PUSH1 0x20 PUSH1 0x0 KECCAK256 SWAP1 PUSH1 0x2 MUL ADD PUSH1 0x40 MLOAD DUP1 PUSH1 0xE0 ADD PUSH1 0x40 MSTORE SWAP1 DUP2 PUSH1 0x0 DUP3 ADD DUP1 SLOAD PUSH2 0x13F3 SWAP1 PUSH2 0x3604 JUMP JUMPDEST DUP1 PUSH1 0x1F ADD PUSH1 0x20 DUP1 SWAP2 DIV MUL PUSH1 0x20 ADD PUSH1 0x40 MLOAD SWAP1 DUP2 ADD PUSH1 0x40 MSTORE DUP1 SWAP3 SWAP2 SWAP1 DUP2 DUP2 MSTORE PUSH1 0x20 ADD DUP3 DUP1 SLOAD PUSH2 0x141F SWAP1 PUSH2 0x3604 JUMP JUMPDEST DUP1 ISZERO PUSH2 0x146C JUMPI DUP1 PUSH1 0x1F LT PUSH2 0x1441 JUMPI PUSH2 0x100 DUP1 DUP4 SLOAD DIV MUL DUP4 MSTORE SWAP2 PUSH1 0x20 ADD SWAP2 PUSH2 0x146C JUMP JUMPDEST DUP3 ADD SWAP2 SWAP1 PUSH1 0x0 MSTORE PUSH1 0x20 PUSH1 0x0 KECCAK256 SWAP1 JUMPDEST DUP2 SLOAD DUP2 MSTORE SWAP1 PUSH1 0x1 ADD SWAP1 PUSH1 0x20 ADD DUP1 DUP4 GT PUSH2 0x144F JUMPI DUP3 SWAP1 SUB PUSH1 0x1F AND DUP3 ADD SWAP2 JUMPDEST POP POP POP POP POP DUP2 MSTORE PUSH1 0x20 ADD PUSH1 0x1 DUP3 ADD PUSH1 0x0 SWAP1 SLOAD SWAP1 PUSH2 0x100 EXP SWAP1 DIV PUSH1 0x0 SIGNEXTEND PUSH1 0x0 SIGNEXTEND PUSH1 0x0 SIGNEXTEND DUP2 MSTORE PUSH1 0x20 ADD PUSH1 0x1 DUP3 ADD PUSH1 0x1 SWAP1 SLOAD SWAP1 PUSH2 0x100 EXP SWAP1 DIV PUSH1 0x0 SIGNEXTEND PUSH1 0x0 SIGNEXTEND PUSH1 0x0 SIGNEXTEND DUP2 MSTORE PUSH1 0x20 ADD PUSH1 0x1 DUP3 ADD PUSH1 0x2 SWAP1 SLOAD SWAP1 PUSH2 0x100 EXP SWAP1 DIV PUSH1 0x0 SIGNEXTEND PUSH1 0x0 SIGNEXTEND PUSH1 0x0 SIGNEXTEND DUP2 MSTORE PUSH1 0x20 ADD PUSH1 0x1 DUP3 ADD PUSH1 0x3 SWAP1 SLOAD SWAP1 PUSH2 0x100 EXP SWAP1 DIV PUSH1 0x0 SIGNEXTEND PUSH1 0x0 SIGNEXTEND PUSH1 0x0 SIGNEXTEND DUP2 MSTORE PUSH1 0x20 ADD PUSH1 0x1 DUP3 ADD PUSH1 0x4 SWAP1 SLOAD SWAP1 PUSH2 0x100 EXP SWAP1 DIV PUSH1 0x0 SIGNEXTEND PUSH1 0x0 SIGNEXTEND PUSH1 0x0 SIGNEXTEND DUP2 MSTORE PUSH1 0x20 ADD PUSH1 0x1 DUP3 ADD PUSH1 0x5 SWAP1 SLOAD SWAP1 PUSH2 0x100 EXP SWAP1 DIV PUSH1 0x0 SIGNEXTEND PUSH1 0x0 SIGNEXTEND PUSH1 0x0 SIGNEXTEND DUP2 MSTORE POP POP DUP2 MSTORE PUSH1 0x20 ADD SWAP1 PUSH1 0x1 ADD SWAP1 PUSH2 0x13C0 JUMP JUMPDEST POP POP POP POP SWAP1 POP SWAP1 JUMP JUMPDEST PUSH1 0x0 PUSH1 0x5 PUSH1 0x0 DUP5 PUSH20 0xFFFFFFFFFFFFFFFFFFFFFFFFFFFFFFFFFFFFFFFF AND PUSH20 0xFFFFFFFFFFFFFFFFFFFFFFFFFFFFFFFFFFFFFFFF AND DUP2 MSTORE PUSH1 0x20 ADD SWAP1 DUP2 MSTORE PUSH1 0x20 ADD PUSH1 0x0 KECCAK256 PUSH1 0x0 DUP4 PUSH20 0xFFFFFFFFFFFFFFFFFFFFFFFFFFFFFFFFFFFFFFFF AND PUSH20 0xFFFFFFFFFFFFFFFFFFFFFFFFFFFFFFFFFFFFFFFF AND DUP2 MSTORE PUSH1 0x20 ADD SWAP1 DUP2 MSTORE PUSH1 0x20 ADD PUSH1 0x0 KECCAK256 PUSH1 0x0 SWAP1 SLOAD SWAP1 PUSH2 0x100 EXP SWAP1 DIV PUSH1 0xFF AND SWAP1 POP SWAP3 SWAP2 POP POP JUMP JUMPDEST PUSH2 0x15D7 PUSH2 0x1A42 JUMP JUMPDEST PUSH1 0x0 PUSH20 0xFFFFFFFFFFFFFFFFFFFFFFFFFFFFFFFFFFFFFFFF AND DUP2 PUSH20 0xFFFFFFFFFFFFFFFFFFFFFFFFFFFFFFFFFFFFFFFF AND SUB PUSH2 0x1646 JUMPI PUSH1 0x40 MLOAD PUSH32 0x8C379A000000000000000000000000000000000000000000000000000000000 DUP2 MSTORE PUSH1 0x4 ADD PUSH2 0x163D SWAP1 PUSH2 0x3B39 JUMP JUMPDEST PUSH1 0x40 MLOAD DUP1 SWAP2 SUB SWAP1 REVERT JUMPDEST PUSH2 0x164F DUP2 PUSH2 0x1B51 JUMP JUMPDEST POP JUMP JUMPDEST PUSH1 0x0 PUSH32 0x80AC58CD00000000000000000000000000000000000000000000000000000000 PUSH28 0xFFFFFFFFFFFFFFFFFFFFFFFFFFFFFFFFFFFFFFFFFFFFFFFFFFFFFFFF NOT AND DUP3 PUSH28 0xFFFFFFFFFFFFFFFFFFFFFFFFFFFFFFFFFFFFFFFFFFFFFFFFFFFFFFFF NOT AND EQ DUP1 PUSH2 0x171D JUMPI POP PUSH32 0x5B5E139F00000000000000000000000000000000000000000000000000000000 PUSH28 0xFFFFFFFFFFFFFFFFFFFFFFFFFFFFFFFFFFFFFFFFFFFFFFFFFFFFFFFF NOT AND DUP3 PUSH28 0xFFFFFFFFFFFFFFFFFFFFFFFFFFFFFFFFFFFFFFFFFFFFFFFFFFFFFFFF NOT AND EQ JUMPDEST DUP1 PUSH2 0x172D JUMPI POP PUSH2 0x172C DUP3 PUSH2 0x1D74 JUMP JUMPDEST JUMPDEST SWAP1 POP SWAP2 SWAP1 POP JUMP JUMPDEST PUSH2 0x173D DUP2 PUSH2 0x1A01 JUMP JUMPDEST PUSH2 0x177C JUMPI PUSH1 0x40 MLOAD PUSH32 0x8C379A000000000000000000000000000000000000000000000000000000000 DUP2 MSTORE PUSH1 0x4 ADD PUSH2 0x1773 SWAP1 PUSH2 0x38DD JUMP JUMPDEST PUSH1 0x40 MLOAD DUP1 SWAP2 SUB SWAP1 REVERT JUMPDEST POP JUMP JUMPDEST PUSH1 0x0 PUSH14 0xAAEB6D7670E522A718067333CD4E PUSH20 0xFFFFFFFFFFFFFFFFFFFFFFFFFFFFFFFFFFFFFFFF AND EXTCODESIZE GT ISZERO PUSH2 0x1879 JUMPI PUSH14 0xAAEB6D7670E522A718067333CD4E PUSH20 0xFFFFFFFFFFFFFFFFFFFFFFFFFFFFFFFFFFFFFFFF AND PUSH4 0xC6171134 ADDRESS DUP4 PUSH1 0x40 MLOAD DUP4 PUSH4 0xFFFFFFFF AND PUSH1 0xE0 SHL DUP2 MSTORE PUSH1 0x4 ADD PUSH2 0x17F6 SWAP3 SWAP2 SWAP1 PUSH2 0x3B59 JUMP JUMPDEST PUSH1 0x20 PUSH1 0x40 MLOAD DUP1 DUP4 SUB DUP2 DUP7 GAS STATICCALL ISZERO DUP1 ISZERO PUSH2 0x1813 JUMPI RETURNDATASIZE PUSH1 0x0 DUP1 RETURNDATACOPY RETURNDATASIZE PUSH1 0x0 REVERT JUMPDEST POP POP POP POP PUSH1 0x40 MLOAD RETURNDATASIZE PUSH1 0x1F NOT PUSH1 0x1F DUP3 ADD AND DUP3 ADD DUP1 PUSH1 0x40 MSTORE POP DUP2 ADD SWAP1 PUSH2 0x1837 SWAP2 SWAP1 PUSH2 0x3B97 JUMP JUMPDEST PUSH2 0x1878 JUMPI DUP1 PUSH1 0x40 MLOAD PUSH32 0xEDE71DCC00000000000000000000000000000000000000000000000000000000 DUP2 MSTORE PUSH1 0x4 ADD PUSH2 0x186F SWAP2 SWAP1 PUSH2 0x2D67 JUMP JUMPDEST PUSH1 0x40 MLOAD DUP1 SWAP2 SUB SWAP1 REVERT JUMPDEST JUMPDEST POP JUMP JUMPDEST PUSH1 0x0 PUSH2 0x1887 DUP3 PUSH2 0xB2A JUMP JUMPDEST SWAP1 POP DUP1 PUSH20 0xFFFFFFFFFFFFFFFFFFFFFFFFFFFFFFFFFFFFFFFF AND DUP4 PUSH20 0xFFFFFFFFFFFFFFFFFFFFFFFFFFFFFFFFFFFFFFFF AND SUB PUSH2 0x18F7 JUMPI PUSH1 0x40 MLOAD PUSH32 0x8C379A000000000000000000000000000000000000000000000000000000000 DUP2 MSTORE PUSH1 0x4 ADD PUSH2 0x18EE SWAP1 PUSH2 0x3C36 JUMP JUMPDEST PUSH1 0x40 MLOAD DUP1 SWAP2 SUB SWAP1 REVERT JUMPDEST DUP1 PUSH20 0xFFFFFFFFFFFFFFFFFFFFFFFFFFFFFFFFFFFFFFFF AND PUSH2 0x1916 PUSH2 0x1DDE JUMP JUMPDEST PUSH20 0xFFFFFFFFFFFFFFFFFFFFFFFFFFFFFFFFFFFFFFFF AND EQ DUP1 PUSH2 0x1945 JUMPI POP PUSH2 0x1944 DUP2 PUSH2 0x193F PUSH2 0x1DDE JUMP JUMPDEST PUSH2 0x153B JUMP JUMPDEST JUMPDEST PUSH2 0x1984 JUMPI PUSH1 0x40 MLOAD PUSH32 0x8C379A000000000000000000000000000000000000000000000000000000000 DUP2 MSTORE PUSH1 0x4 ADD PUSH2 0x197B SWAP1 PUSH2 0x3CC8 JUMP JUMPDEST PUSH1 0x40 MLOAD DUP1 SWAP2 SUB SWAP1 REVERT JUMPDEST PUSH2 0x198E DUP4 DUP4 PUSH2 0x1DE6 JUMP JUMPDEST POP POP POP JUMP JUMPDEST PUSH1 0x0 DUP2 PUSH1 0x0 ADD SLOAD SWAP1 POP SWAP2 SWAP1 POP JUMP JUMPDEST PUSH2 0x19B2 PUSH2 0x19AC PUSH2 0x1DDE JUMP JUMPDEST DUP3 PUSH2 0x1E9F JUMP JUMPDEST PUSH2 0x19F1 JUMPI PUSH1 0x40 MLOAD PUSH32 0x8C379A000000000000000000000000000000000000000000000000000000000 DUP2 MSTORE PUSH1 0x4 ADD PUSH2 0x19E8 SWAP1 PUSH2 0x3D5A JUMP JUMPDEST PUSH1 0x40 MLOAD DUP1 SWAP2 SUB SWAP1 REVERT JUMPDEST PUSH2 0x19FC DUP4 DUP4 DUP4 PUSH2 0x1F34 JUMP JUMPDEST POP POP POP JUMP JUMPDEST PUSH1 0x0 DUP1 PUSH20 0xFFFFFFFFFFFFFFFFFFFFFFFFFFFFFFFFFFFFFFFF AND PUSH2 0x1A23 DUP4 PUSH2 0x1AE0 JUMP JUMPDEST PUSH20 0xFFFFFFFFFFFFFFFFFFFFFFFFFFFFFFFFFFFFFFFF AND EQ ISZERO SWAP1 POP SWAP2 SWAP1 POP JUMP JUMPDEST PUSH2 0x1A4A PUSH2 0x1DDE JUMP JUMPDEST PUSH20 0xFFFFFFFFFFFFFFFFFFFFFFFFFFFFFFFFFFFFFFFF AND PUSH2 0x1A68 PUSH2 0x1001 JUMP JUMPDEST PUSH20 0xFFFFFFFFFFFFFFFFFFFFFFFFFFFFFFFFFFFFFFFF AND EQ PUSH2 0x1ABE JUMPI PUSH1 0x40 MLOAD PUSH32 0x8C379A000000000000000000000000000000000000000000000000000000000 DUP2 MSTORE PUSH1 0x4 ADD PUSH2 0x1AB5 SWAP1 PUSH2 0x3DC6 JUMP JUMPDEST PUSH1 0x40 MLOAD DUP1 SWAP2 SUB SWAP1 REVERT JUMPDEST JUMP JUMPDEST PUSH2 0x1ADB DUP4 DUP4 DUP4 PUSH1 0x40 MLOAD DUP1 PUSH1 0x20 ADD PUSH1 0x40 MSTORE DUP1 PUSH1 0x0 DUP2 MSTORE POP PUSH2 0x10FC JUMP JUMPDEST POP POP POP JUMP JUMPDEST PUSH1 0x0 PUSH1 0x2 PUSH1 0x0 DUP4 DUP2 MSTORE PUSH1 0x20 ADD SWAP1 DUP2 MSTORE PUSH1 0x20 ADD PUSH1 0x0 KECCAK256 PUSH1 0x0 SWAP1 SLOAD SWAP1 PUSH2 0x100 EXP SWAP1 DIV PUSH20 0xFFFFFFFFFFFFFFFFFFFFFFFFFFFFFFFFFFFFFFFF AND SWAP1 POP SWAP2 SWAP1 POP JUMP JUMPDEST PUSH1 0x1 DUP2 PUSH1 0x0 ADD PUSH1 0x0 DUP3 DUP3 SLOAD ADD SWAP3 POP POP DUP2 SWAP1 SSTORE POP POP JUMP JUMPDEST PUSH2 0x1B4D DUP3 DUP3 PUSH1 0x40 MLOAD DUP1 PUSH1 0x20 ADD PUSH1 0x40 MSTORE DUP1 PUSH1 0x0 DUP2 MSTORE POP PUSH2 0x222D JUMP JUMPDEST POP POP JUMP JUMPDEST PUSH1 0x0 PUSH1 0x6 PUSH1 0x0 SWAP1 SLOAD SWAP1 PUSH2 0x100 EXP SWAP1 DIV PUSH20 0xFFFFFFFFFFFFFFFFFFFFFFFFFFFFFFFFFFFFFFFF AND SWAP1 POP DUP2 PUSH1 0x6 PUSH1 0x0 PUSH2 0x100 EXP DUP2 SLOAD DUP2 PUSH20 0xFFFFFFFFFFFFFFFFFFFFFFFFFFFFFFFFFFFFFFFF MUL NOT AND SWAP1 DUP4 PUSH20 0xFFFFFFFFFFFFFFFFFFFFFFFFFFFFFFFFFFFFFFFF AND MUL OR SWAP1 SSTORE POP DUP2 PUSH20 0xFFFFFFFFFFFFFFFFFFFFFFFFFFFFFFFFFFFFFFFF AND DUP2 PUSH20 0xFFFFFFFFFFFFFFFFFFFFFFFFFFFFFFFFFFFFFFFF AND PUSH32 0x8BE0079C531659141344CD1FD0A4F28419497F9722A3DAAFE3B4186F6B6457E0 PUSH1 0x40 MLOAD PUSH1 0x40 MLOAD DUP1 SWAP2 SUB SWAP1 LOG3 POP POP JUMP JUMPDEST PUSH2 0x1C29 PUSH2 0x1C22 PUSH2 0x1DDE JUMP JUMPDEST DUP4 DUP4 PUSH2 0x2288 JUMP JUMPDEST POP POP JUMP JUMPDEST PUSH2 0x1C3E PUSH2 0x1C38 PUSH2 0x1DDE JUMP JUMPDEST DUP4 PUSH2 0x1E9F JUMP JUMPDEST PUSH2 0x1C7D JUMPI PUSH1 0x40 MLOAD PUSH32 0x8C379A000000000000000000000000000000000000000000000000000000000 DUP2 MSTORE PUSH1 0x4 ADD PUSH2 0x1C74 SWAP1 PUSH2 0x3D5A JUMP JUMPDEST PUSH1 0x40 MLOAD DUP1 SWAP2 SUB SWAP1 REVERT JUMPDEST PUSH2 0x1C89 DUP5 DUP5 DUP5 DUP5 PUSH2 0x23F4 JUMP JUMPDEST POP POP POP POP JUMP JUMPDEST PUSH1 0x60 PUSH1 0x40 MLOAD DUP1 PUSH1 0x20 ADD PUSH1 0x40 MSTORE DUP1 PUSH1 0x0 DUP2 MSTORE POP SWAP1 POP SWAP1 JUMP JUMPDEST PUSH1 0x60 PUSH1 0x0 PUSH1 0x1 PUSH2 0x1CB5 DUP5 PUSH2 0x2450 JUMP JUMPDEST ADD SWAP1 POP PUSH1 0x0 DUP2 PUSH8 0xFFFFFFFFFFFFFFFF DUP2 GT ISZERO PUSH2 0x1CD4 JUMPI PUSH2 0x1CD3 PUSH2 0x2FEA JUMP JUMPDEST JUMPDEST PUSH1 0x40 MLOAD SWAP1 DUP1 DUP3 MSTORE DUP1 PUSH1 0x1F ADD PUSH1 0x1F NOT AND PUSH1 0x20 ADD DUP3 ADD PUSH1 0x40 MSTORE DUP1 ISZERO PUSH2 0x1D06 JUMPI DUP2 PUSH1 0x20 ADD PUSH1 0x1 DUP3 MUL DUP1 CALLDATASIZE DUP4 CALLDATACOPY DUP1 DUP3 ADD SWAP2 POP POP SWAP1 POP JUMPDEST POP SWAP1 POP PUSH1 0x0 DUP3 PUSH1 0x20 ADD DUP3 ADD SWAP1 POP JUMPDEST PUSH1 0x1 ISZERO PUSH2 0x1D69 JUMPI DUP1 DUP1 PUSH1 0x1 SWAP1 SUB SWAP2 POP POP PUSH32 0x3031323334353637383961626364656600000000000000000000000000000000 PUSH1 0xA DUP7 MOD BYTE DUP2 MSTORE8 PUSH1 0xA DUP6 DUP2 PUSH2 0x1D5D JUMPI PUSH2 0x1D5C PUSH2 0x3750 JUMP JUMPDEST JUMPDEST DIV SWAP5 POP PUSH1 0x0 DUP6 SUB PUSH2 0x1D14 JUMPI JUMPDEST DUP2 SWAP4 POP POP POP POP SWAP2 SWAP1 POP JUMP JUMPDEST PUSH1 0x0 PUSH32 0x1FFC9A700000000000000000000000000000000000000000000000000000000 PUSH28 0xFFFFFFFFFFFFFFFFFFFFFFFFFFFFFFFFFFFFFFFFFFFFFFFFFFFFFFFF NOT AND DUP3 PUSH28 0xFFFFFFFFFFFFFFFFFFFFFFFFFFFFFFFFFFFFFFFFFFFFFFFFFFFFFFFF NOT AND EQ SWAP1 POP SWAP2 SWAP1 POP JUMP JUMPDEST PUSH1 0x0 CALLER SWAP1 POP SWAP1 JUMP JUMPDEST DUP2 PUSH1 0x4 PUSH1 0x0 DUP4 DUP2 MSTORE PUSH1 0x20 ADD SWAP1 DUP2 MSTORE PUSH1 0x20 ADD PUSH1 0x0 KECCAK256 PUSH1 0x0 PUSH2 0x100 EXP DUP2 SLOAD DUP2 PUSH20 0xFFFFFFFFFFFFFFFFFFFFFFFFFFFFFFFFFFFFFFFF MUL NOT AND SWAP1 DUP4 PUSH20 0xFFFFFFFFFFFFFFFFFFFFFFFFFFFFFFFFFFFFFFFF AND MUL OR SWAP1 SSTORE POP DUP1 DUP3 PUSH20 0xFFFFFFFFFFFFFFFFFFFFFFFFFFFFFFFFFFFFFFFF AND PUSH2 0x1E59 DUP4 PUSH2 0xB2A JUMP JUMPDEST PUSH20 0xFFFFFFFFFFFFFFFFFFFFFFFFFFFFFFFFFFFFFFFF AND PUSH32 0x8C5BE1E5EBEC7D5BD14F71427D1E84F3DD0314C0F7B2291E5B200AC8C7C3B925 PUSH1 0x40 MLOAD PUSH1 0x40 MLOAD DUP1 SWAP2 SUB SWAP1 LOG4 POP POP JUMP JUMPDEST PUSH1 0x0 DUP1 PUSH2 0x1EAB DUP4 PUSH2 0xB2A JUMP JUMPDEST SWAP1 POP DUP1 PUSH20 0xFFFFFFFFFFFFFFFFFFFFFFFFFFFFFFFFFFFFFFFF AND DUP5 PUSH20 0xFFFFFFFFFFFFFFFFFFFFFFFFFFFFFFFFFFFFFFFF AND EQ DUP1 PUSH2 0x1EED JUMPI POP PUSH2 0x1EEC DUP2 DUP6 PUSH2 0x153B JUMP JUMPDEST JUMPDEST DUP1 PUSH2 0x1F2B JUMPI POP DUP4 PUSH20 0xFFFFFFFFFFFFFFFFFFFFFFFFFFFFFFFFFFFFFFFF AND PUSH2 0x1F13 DUP5 PUSH2 0x77D JUMP JUMPDEST PUSH20 0xFFFFFFFFFFFFFFFFFFFFFFFFFFFFFFFFFFFFFFFF AND EQ JUMPDEST SWAP2 POP POP SWAP3 SWAP2 POP POP JUMP JUMPDEST DUP3 PUSH20 0xFFFFFFFFFFFFFFFFFFFFFFFFFFFFFFFFFFFFFFFF AND PUSH2 0x1F54 DUP3 PUSH2 0xB2A JUMP JUMPDEST PUSH20 0xFFFFFFFFFFFFFFFFFFFFFFFFFFFFFFFFFFFFFFFF AND EQ PUSH2 0x1FAA JUMPI PUSH1 0x40 MLOAD PUSH32 0x8C379A000000000000000000000000000000000000000000000000000000000 DUP2 MSTORE PUSH1 0x4 ADD PUSH2 0x1FA1 SWAP1 PUSH2 0x3E58 JUMP JUMPDEST PUSH1 0x40 MLOAD DUP1 SWAP2 SUB SWAP1 REVERT JUMPDEST PUSH1 0x0 PUSH20 0xFFFFFFFFFFFFFFFFFFFFFFFFFFFFFFFFFFFFFFFF AND DUP3 PUSH20 0xFFFFFFFFFFFFFFFFFFFFFFFFFFFFFFFFFFFFFFFF AND SUB PUSH2 0x2019 JUMPI PUSH1 0x40 MLOAD PUSH32 0x8C379A000000000000000000000000000000000000000000000000000000000 DUP2 MSTORE PUSH1 0x4 ADD PUSH2 0x2010 SWAP1 PUSH2 0x3EEA JUMP JUMPDEST PUSH1 0x40 MLOAD DUP1 SWAP2 SUB SWAP1 REVERT JUMPDEST PUSH2 0x2026 DUP4 DUP4 DUP4 PUSH1 0x1 PUSH2 0x25A3 JUMP JUMPDEST DUP3 PUSH20 0xFFFFFFFFFFFFFFFFFFFFFFFFFFFFFFFFFFFFFFFF AND PUSH2 0x2046 DUP3 PUSH2 0xB2A JUMP JUMPDEST PUSH20 0xFFFFFFFFFFFFFFFFFFFFFFFFFFFFFFFFFFFFFFFF AND EQ PUSH2 0x209C JUMPI PUSH1 0x40 MLOAD PUSH32 0x8C379A000000000000000000000000000000000000000000000000000000000 DUP2 MSTORE PUSH1 0x4 ADD PUSH2 0x2093 SWAP1 PUSH2 0x3E58 JUMP JUMPDEST PUSH1 0x40 MLOAD DUP1 SWAP2 SUB SWAP1 REVERT JUMPDEST PUSH1 0x4 PUSH1 0x0 DUP3 DUP2 MSTORE PUSH1 0x20 ADD SWAP1 DUP2 MSTORE PUSH1 0x20 ADD PUSH1 0x0 KECCAK256 PUSH1 0x0 PUSH2 0x100 EXP DUP2 SLOAD SWAP1 PUSH20 0xFFFFFFFFFFFFFFFFFFFFFFFFFFFFFFFFFFFFFFFF MUL NOT AND SWAP1 SSTORE PUSH1 0x1 PUSH1 0x3 PUSH1 0x0 DUP6 PUSH20 0xFFFFFFFFFFFFFFFFFFFFFFFFFFFFFFFFFFFFFFFF AND PUSH20 0xFFFFFFFFFFFFFFFFFFFFFFFFFFFFFFFFFFFFFFFF AND DUP2 MSTORE PUSH1 0x20 ADD SWAP1 DUP2 MSTORE PUSH1 0x20 ADD PUSH1 0x0 KECCAK256 PUSH1 0x0 DUP3 DUP3 SLOAD SUB SWAP3 POP POP DUP2 SWAP1 SSTORE POP PUSH1 0x1 PUSH1 0x3 PUSH1 0x0 DUP5 PUSH20 0xFFFFFFFFFFFFFFFFFFFFFFFFFFFFFFFFFFFFFFFF AND PUSH20 0xFFFFFFFFFFFFFFFFFFFFFFFFFFFFFFFFFFFFFFFF AND DUP2 MSTORE PUSH1 0x20 ADD SWAP1 DUP2 MSTORE PUSH1 0x20 ADD PUSH1 0x0 KECCAK256 PUSH1 0x0 DUP3 DUP3 SLOAD ADD SWAP3 POP POP DUP2 SWAP1 SSTORE POP DUP2 PUSH1 0x2 PUSH1 0x0 DUP4 DUP2 MSTORE PUSH1 0x20 ADD SWAP1 DUP2 MSTORE PUSH1 0x20 ADD PUSH1 0x0 KECCAK256 PUSH1 0x0 PUSH2 0x100 EXP DUP2 SLOAD DUP2 PUSH20 0xFFFFFFFFFFFFFFFFFFFFFFFFFFFFFFFFFFFFFFFF MUL NOT AND SWAP1 DUP4 PUSH20 0xFFFFFFFFFFFFFFFFFFFFFFFFFFFFFFFFFFFFFFFF AND MUL OR SWAP1 SSTORE POP DUP1 DUP3 PUSH20 0xFFFFFFFFFFFFFFFFFFFFFFFFFFFFFFFFFFFFFFFF AND DUP5 PUSH20 0xFFFFFFFFFFFFFFFFFFFFFFFFFFFFFFFFFFFFFFFF AND PUSH32 0xDDF252AD1BE2C89B69C2B068FC378DAA952BA7F163C4A11628F55A4DF523B3EF PUSH1 0x40 MLOAD PUSH1 0x40 MLOAD DUP1 SWAP2 SUB SWAP1 LOG4 PUSH2 0x2228 DUP4 DUP4 DUP4 PUSH1 0x1 PUSH2 0x26C9 JUMP JUMPDEST POP POP POP JUMP JUMPDEST PUSH2 0x2237 DUP4 DUP4 PUSH2 0x26CF JUMP JUMPDEST PUSH2 0x2244 PUSH1 0x0 DUP5 DUP5 DUP5 PUSH2 0x28EC JUMP JUMPDEST PUSH2 0x2283 JUMPI PUSH1 0x40 MLOAD PUSH32 0x8C379A000000000000000000000000000000000000000000000000000000000 DUP2 MSTORE PUSH1 0x4 ADD PUSH2 0x227A SWAP1 PUSH2 0x3F7C JUMP JUMPDEST PUSH1 0x40 MLOAD DUP1 SWAP2 SUB SWAP1 REVERT JUMPDEST POP POP POP JUMP JUMPDEST DUP2 PUSH20 0xFFFFFFFFFFFFFFFFFFFFFFFFFFFFFFFFFFFFFFFF AND DUP4 PUSH20 0xFFFFFFFFFFFFFFFFFFFFFFFFFFFFFFFFFFFFFFFF AND SUB PUSH2 0x22F6 JUMPI PUSH1 0x40 MLOAD PUSH32 0x8C379A000000000000000000000000000000000000000000000000000000000 DUP2 MSTORE PUSH1 0x4 ADD PUSH2 0x22ED SWAP1 PUSH2 0x3FE8 JUMP JUMPDEST PUSH1 0x40 MLOAD DUP1 SWAP2 SUB SWAP1 REVERT JUMPDEST DUP1 PUSH1 0x5 PUSH1 0x0 DUP6 PUSH20 0xFFFFFFFFFFFFFFFFFFFFFFFFFFFFFFFFFFFFFFFF AND PUSH20 0xFFFFFFFFFFFFFFFFFFFFFFFFFFFFFFFFFFFFFFFF AND DUP2 MSTORE PUSH1 0x20 ADD SWAP1 DUP2 MSTORE PUSH1 0x20 ADD PUSH1 0x0 KECCAK256 PUSH1 0x0 DUP5 PUSH20 0xFFFFFFFFFFFFFFFFFFFFFFFFFFFFFFFFFFFFFFFF AND PUSH20 0xFFFFFFFFFFFFFFFFFFFFFFFFFFFFFFFFFFFFFFFF AND DUP2 MSTORE PUSH1 0x20 ADD SWAP1 DUP2 MSTORE PUSH1 0x20 ADD PUSH1 0x0 KECCAK256 PUSH1 0x0 PUSH2 0x100 EXP DUP2 SLOAD DUP2 PUSH1 0xFF MUL NOT AND SWAP1 DUP4 ISZERO ISZERO MUL OR SWAP1 SSTORE POP DUP2 PUSH20 0xFFFFFFFFFFFFFFFFFFFFFFFFFFFFFFFFFFFFFFFF AND DUP4 PUSH20 0xFFFFFFFFFFFFFFFFFFFFFFFFFFFFFFFFFFFFFFFF AND PUSH32 0x17307EAB39AB6107E8899845AD3D59BD9653F200F220920489CA2B5937696C31 DUP4 PUSH1 0x40 MLOAD PUSH2 0x23E7 SWAP2 SWAP1 PUSH2 0x2BED JUMP JUMPDEST PUSH1 0x40 MLOAD DUP1 SWAP2 SUB SWAP1 LOG3 POP POP POP JUMP JUMPDEST PUSH2 0x23FF DUP5 DUP5 DUP5 PUSH2 0x1F34 JUMP JUMPDEST PUSH2 0x240B DUP5 DUP5 DUP5 DUP5 PUSH2 0x28EC JUMP JUMPDEST PUSH2 0x244A JUMPI PUSH1 0x40 MLOAD PUSH32 0x8C379A000000000000000000000000000000000000000000000000000000000 DUP2 MSTORE PUSH1 0x4 ADD PUSH2 0x2441 SWAP1 PUSH2 0x3F7C JUMP JUMPDEST PUSH1 0x40 MLOAD DUP1 SWAP2 SUB SWAP1 REVERT JUMPDEST POP POP POP POP JUMP JUMPDEST PUSH1 0x0 DUP1 PUSH1 0x0 SWAP1 POP PUSH27 0x184F03E93FF9F4DAA797ED6E38ED64BF6A1F010000000000000000 DUP4 LT PUSH2 0x24AE JUMPI PUSH27 0x184F03E93FF9F4DAA797ED6E38ED64BF6A1F010000000000000000 DUP4 DUP2 PUSH2 0x24A4 JUMPI PUSH2 0x24A3 PUSH2 0x3750 JUMP JUMPDEST JUMPDEST DIV SWAP3 POP PUSH1 0x40 DUP2 ADD SWAP1 POP JUMPDEST PUSH14 0x4EE2D6D415B85ACEF8100000000 DUP4 LT PUSH2 0x24EB JUMPI PUSH14 0x4EE2D6D415B85ACEF8100000000 DUP4 DUP2 PUSH2 0x24E1 JUMPI PUSH2 0x24E0 PUSH2 0x3750 JUMP JUMPDEST JUMPDEST DIV SWAP3 POP PUSH1 0x20 DUP2 ADD SWAP1 POP JUMPDEST PUSH7 0x2386F26FC10000 DUP4 LT PUSH2 0x251A JUMPI PUSH7 0x2386F26FC10000 DUP4 DUP2 PUSH2 0x2510 JUMPI PUSH2 0x250F PUSH2 0x3750 JUMP JUMPDEST JUMPDEST DIV SWAP3 POP PUSH1 0x10 DUP2 ADD SWAP1 POP JUMPDEST PUSH4 0x5F5E100 DUP4 LT PUSH2 0x2543 JUMPI PUSH4 0x5F5E100 DUP4 DUP2 PUSH2 0x2539 JUMPI PUSH2 0x2538 PUSH2 0x3750 JUMP JUMPDEST JUMPDEST DIV SWAP3 POP PUSH1 0x8 DUP2 ADD SWAP1 POP JUMPDEST PUSH2 0x2710 DUP4 LT PUSH2 0x2568 JUMPI PUSH2 0x2710 DUP4 DUP2 PUSH2 0x255E JUMPI PUSH2 0x255D PUSH2 0x3750 JUMP JUMPDEST JUMPDEST DIV SWAP3 POP PUSH1 0x4 DUP2 ADD SWAP1 POP JUMPDEST PUSH1 0x64 DUP4 LT PUSH2 0x258B JUMPI PUSH1 0x64 DUP4 DUP2 PUSH2 0x2581 JUMPI PUSH2 0x2580 PUSH2 0x3750 JUMP JUMPDEST JUMPDEST DIV SWAP3 POP PUSH1 0x2 DUP2 ADD SWAP1 POP JUMPDEST PUSH1 0xA DUP4 LT PUSH2 0x259A JUMPI PUSH1 0x1 DUP2 ADD SWAP1 POP JUMPDEST DUP1 SWAP2 POP POP SWAP2 SWAP1 POP JUMP JUMPDEST PUSH1 0x1 DUP2 GT ISZERO PUSH2 0x26C3 JUMPI PUSH1 0x0 PUSH20 0xFFFFFFFFFFFFFFFFFFFFFFFFFFFFFFFFFFFFFFFF AND DUP5 PUSH20 0xFFFFFFFFFFFFFFFFFFFFFFFFFFFFFFFFFFFFFFFF AND EQ PUSH2 0x2637 JUMPI DUP1 PUSH1 0x3 PUSH1 0x0 DUP7 PUSH20 0xFFFFFFFFFFFFFFFFFFFFFFFFFFFFFFFFFFFFFFFF AND PUSH20 0xFFFFFFFFFFFFFFFFFFFFFFFFFFFFFFFFFFFFFFFF AND DUP2 MSTORE PUSH1 0x20 ADD SWAP1 DUP2 MSTORE PUSH1 0x20 ADD PUSH1 0x0 KECCAK256 PUSH1 0x0 DUP3 DUP3 SLOAD PUSH2 0x262F SWAP2 SWAP1 PUSH2 0x4008 JUMP JUMPDEST SWAP3 POP POP DUP2 SWAP1 SSTORE POP JUMPDEST PUSH1 0x0 PUSH20 0xFFFFFFFFFFFFFFFFFFFFFFFFFFFFFFFFFFFFFFFF AND DUP4 PUSH20 0xFFFFFFFFFFFFFFFFFFFFFFFFFFFFFFFFFFFFFFFF AND EQ PUSH2 0x26C2 JUMPI DUP1 PUSH1 0x3 PUSH1 0x0 DUP6 PUSH20 0xFFFFFFFFFFFFFFFFFFFFFFFFFFFFFFFFFFFFFFFF AND PUSH20 0xFFFFFFFFFFFFFFFFFFFFFFFFFFFFFFFFFFFFFFFF AND DUP2 MSTORE PUSH1 0x20 ADD SWAP1 DUP2 MSTORE PUSH1 0x20 ADD PUSH1 0x0 KECCAK256 PUSH1 0x0 DUP3 DUP3 SLOAD PUSH2 0x26BA SWAP2 SWAP1 PUSH2 0x403C JUMP JUMPDEST SWAP3 POP POP DUP2 SWAP1 SSTORE POP JUMPDEST JUMPDEST POP POP POP POP JUMP JUMPDEST POP POP POP POP JUMP JUMPDEST PUSH1 0x0 PUSH20 0xFFFFFFFFFFFFFFFFFFFFFFFFFFFFFFFFFFFFFFFF AND DUP3 PUSH20 0xFFFFFFFFFFFFFFFFFFFFFFFFFFFFFFFFFFFFFFFF AND SUB PUSH2 0x273E JUMPI PUSH1 0x40 MLOAD PUSH32 0x8C379A000000000000000000000000000000000000000000000000000000000 DUP2 MSTORE PUSH1 0x4 ADD PUSH2 0x2735 SWAP1 PUSH2 0x40DE JUMP JUMPDEST PUSH1 0x40 MLOAD DUP1 SWAP2 SUB SWAP1 REVERT JUMPDEST PUSH2 0x2747 DUP2 PUSH2 0x1A01 JUMP JUMPDEST ISZERO PUSH2 0x2787 JUMPI PUSH1 0x40 MLOAD PUSH32 0x8C379A000000000000000000000000000000000000000000000000000000000 DUP2 MSTORE PUSH1 0x4 ADD PUSH2 0x277E SWAP1 PUSH2 0x414A JUMP JUMPDEST PUSH1 0x40 MLOAD DUP1 SWAP2 SUB SWAP1 REVERT JUMPDEST PUSH2 0x2795 PUSH1 0x0 DUP4 DUP4 PUSH1 0x1 PUSH2 0x25A3 JUMP JUMPDEST PUSH2 0x279E DUP2 PUSH2 0x1A01 JUMP JUMPDEST ISZERO PUSH2 0x27DE JUMPI PUSH1 0x40 MLOAD PUSH32 0x8C379A000000000000000000000000000000000000000000000000000000000 DUP2 MSTORE PUSH1 0x4 ADD PUSH2 0x27D5 SWAP1 PUSH2 0x414A JUMP JUMPDEST PUSH1 0x40 MLOAD DUP1 SWAP2 SUB SWAP1 REVERT JUMPDEST PUSH1 0x1 PUSH1 0x3 PUSH1 0x0 DUP5 PUSH20 0xFFFFFFFFFFFFFFFFFFFFFFFFFFFFFFFFFFFFFFFF AND PUSH20 0xFFFFFFFFFFFFFFFFFFFFFFFFFFFFFFFFFFFFFFFF AND DUP2 MSTORE PUSH1 0x20 ADD SWAP1 DUP2 MSTORE PUSH1 0x20 ADD PUSH1 0x0 KECCAK256 PUSH1 0x0 DUP3 DUP3 SLOAD ADD SWAP3 POP POP DUP2 SWAP1 SSTORE POP DUP2 PUSH1 0x2 PUSH1 0x0 DUP4 DUP2 MSTORE PUSH1 0x20 ADD SWAP1 DUP2 MSTORE PUSH1 0x20 ADD PUSH1 0x0 KECCAK256 PUSH1 0x0 PUSH2 0x100 EXP DUP2 SLOAD DUP2 PUSH20 0xFFFFFFFFFFFFFFFFFFFFFFFFFFFFFFFFFFFFFFFF MUL NOT AND SWAP1 DUP4 PUSH20 0xFFFFFFFFFFFFFFFFFFFFFFFFFFFFFFFFFFFFFFFF AND MUL OR SWAP1 SSTORE POP DUP1 DUP3 PUSH20 0xFFFFFFFFFFFFFFFFFFFFFFFFFFFFFFFFFFFFFFFF AND PUSH1 0x0 PUSH20 0xFFFFFFFFFFFFFFFFFFFFFFFFFFFFFFFFFFFFFFFF AND PUSH32 0xDDF252AD1BE2C89B69C2B068FC378DAA952BA7F163C4A11628F55A4DF523B3EF PUSH1 0x40 MLOAD PUSH1 0x40 MLOAD DUP1 SWAP2 SUB SWAP1 LOG4 PUSH2 0x28E8 PUSH1 0x0 DUP4 DUP4 PUSH1 0x1 PUSH2 0x26C9 JUMP JUMPDEST POP POP JUMP JUMPDEST PUSH1 0x0 PUSH2 0x290D DUP5 PUSH20 0xFFFFFFFFFFFFFFFFFFFFFFFFFFFFFFFFFFFFFFFF AND PUSH2 0x2A73 JUMP JUMPDEST ISZERO PUSH2 0x2A66 JUMPI DUP4 PUSH20 0xFFFFFFFFFFFFFFFFFFFFFFFFFFFFFFFFFFFFFFFF AND PUSH4 0x150B7A02 PUSH2 0x2936 PUSH2 0x1DDE JUMP JUMPDEST DUP8 DUP7 DUP7 PUSH1 0x40 MLOAD DUP6 PUSH4 0xFFFFFFFF AND PUSH1 0xE0 SHL DUP2 MSTORE PUSH1 0x4 ADD PUSH2 0x2958 SWAP5 SWAP4 SWAP3 SWAP2 SWAP1 PUSH2 0x41BF JUMP JUMPDEST PUSH1 0x20 PUSH1 0x40 MLOAD DUP1 DUP4 SUB DUP2 PUSH1 0x0 DUP8 GAS CALL SWAP3 POP POP POP DUP1 ISZERO PUSH2 0x2994 JUMPI POP PUSH1 0x40 MLOAD RETURNDATASIZE PUSH1 0x1F NOT PUSH1 0x1F DUP3 ADD AND DUP3 ADD DUP1 PUSH1 0x40 MSTORE POP DUP2 ADD SWAP1 PUSH2 0x2991 SWAP2 SWAP1 PUSH2 0x4220 JUMP JUMPDEST PUSH1 0x1 JUMPDEST PUSH2 0x2A16 JUMPI RETURNDATASIZE DUP1 PUSH1 0x0 DUP2 EQ PUSH2 0x29C4 JUMPI PUSH1 0x40 MLOAD SWAP2 POP PUSH1 0x1F NOT PUSH1 0x3F RETURNDATASIZE ADD AND DUP3 ADD PUSH1 0x40 MSTORE RETURNDATASIZE DUP3 MSTORE RETURNDATASIZE PUSH1 0x0 PUSH1 0x20 DUP5 ADD RETURNDATACOPY PUSH2 0x29C9 JUMP JUMPDEST PUSH1 0x60 SWAP2 POP JUMPDEST POP PUSH1 0x0 DUP2 MLOAD SUB PUSH2 0x2A0E JUMPI PUSH1 0x40 MLOAD PUSH32 0x8C379A000000000000000000000000000000000000000000000000000000000 DUP2 MSTORE PUSH1 0x4 ADD PUSH2 0x2A05 SWAP1 PUSH2 0x3F7C JUMP JUMPDEST PUSH1 0x40 MLOAD DUP1 SWAP2 SUB SWAP1 REVERT JUMPDEST DUP1 MLOAD DUP2 PUSH1 0x20 ADD REVERT JUMPDEST PUSH4 0x150B7A02 PUSH1 0xE0 SHL PUSH28 0xFFFFFFFFFFFFFFFFFFFFFFFFFFFFFFFFFFFFFFFFFFFFFFFFFFFFFFFF NOT AND DUP2 PUSH28 0xFFFFFFFFFFFFFFFFFFFFFFFFFFFFFFFFFFFFFFFFFFFFFFFFFFFFFFFF NOT AND EQ SWAP2 POP POP PUSH2 0x2A6B JUMP JUMPDEST PUSH1 0x1 SWAP1 POP JUMPDEST SWAP5 SWAP4 POP POP POP POP JUMP JUMPDEST PUSH1 0x0 DUP1 DUP3 PUSH20 0xFFFFFFFFFFFFFFFFFFFFFFFFFFFFFFFFFFFFFFFF AND EXTCODESIZE GT SWAP1 POP SWAP2 SWAP1 POP JUMP JUMPDEST DUP3 DUP1 SLOAD PUSH2 0x2AA2 SWAP1 PUSH2 0x3604 JUMP JUMPDEST SWAP1 PUSH1 0x0 MSTORE PUSH1 0x20 PUSH1 0x0 KECCAK256 SWAP1 PUSH1 0x1F ADD PUSH1 0x20 SWAP1 DIV DUP2 ADD SWAP3 DUP3 PUSH2 0x2AC4 JUMPI PUSH1 0x0 DUP6 SSTORE PUSH2 0x2B0B JUMP JUMPDEST DUP3 PUSH1 0x1F LT PUSH2 0x2ADD JUMPI DUP1 MLOAD PUSH1 0xFF NOT AND DUP4 DUP1 ADD OR DUP6 SSTORE PUSH2 0x2B0B JUMP JUMPDEST DUP3 DUP1 ADD PUSH1 0x1 ADD DUP6 SSTORE DUP3 ISZERO PUSH2 0x2B0B JUMPI SWAP2 DUP3 ADD JUMPDEST DUP3 DUP2 GT ISZERO PUSH2 0x2B0A JUMPI DUP3 MLOAD DUP3 SSTORE SWAP2 PUSH1 0x20 ADD SWAP2 SWAP1 PUSH1 0x1 ADD SWAP1 PUSH2 0x2AEF JUMP JUMPDEST JUMPDEST POP SWAP1 POP PUSH2 0x2B18 SWAP2 SWAP1 PUSH2 0x2B1C JUMP JUMPDEST POP SWAP1 JUMP JUMPDEST JUMPDEST DUP1 DUP3 GT ISZERO PUSH2 0x2B35 JUMPI PUSH1 0x0 DUP2 PUSH1 0x0 SWAP1 SSTORE POP PUSH1 0x1 ADD PUSH2 0x2B1D JUMP JUMPDEST POP SWAP1 JUMP JUMPDEST PUSH1 0x0 PUSH1 0x40 MLOAD SWAP1 POP SWAP1 JUMP JUMPDEST PUSH1 0x0 DUP1 REVERT JUMPDEST PUSH1 0x0 DUP1 REVERT JUMPDEST PUSH1 0x0 PUSH32 0xFFFFFFFF00000000000000000000000000000000000000000000000000000000 DUP3 AND SWAP1 POP SWAP2 SWAP1 POP JUMP JUMPDEST PUSH2 0x2B82 DUP2 PUSH2 0x2B4D JUMP JUMPDEST DUP2 EQ PUSH2 0x2B8D JUMPI PUSH1 0x0 DUP1 REVERT JUMPDEST POP JUMP JUMPDEST PUSH1 0x0 DUP2 CALLDATALOAD SWAP1 POP PUSH2 0x2B9F DUP2 PUSH2 0x2B79 JUMP JUMPDEST SWAP3 SWAP2 POP POP JUMP JUMPDEST PUSH1 0x0 PUSH1 0x20 DUP3 DUP5 SUB SLT ISZERO PUSH2 0x2BBB JUMPI PUSH2 0x2BBA PUSH2 0x2B43 JUMP JUMPDEST JUMPDEST PUSH1 0x0 PUSH2 0x2BC9 DUP5 DUP3 DUP6 ADD PUSH2 0x2B90 JUMP JUMPDEST SWAP2 POP POP SWAP3 SWAP2 POP POP JUMP JUMPDEST PUSH1 0x0 DUP2 ISZERO ISZERO SWAP1 POP SWAP2 SWAP1 POP JUMP JUMPDEST PUSH2 0x2BE7 DUP2 PUSH2 0x2BD2 JUMP JUMPDEST DUP3 MSTORE POP POP JUMP JUMPDEST PUSH1 0x0 PUSH1 0x20 DUP3 ADD SWAP1 POP PUSH2 0x2C02 PUSH1 0x0 DUP4 ADD DUP5 PUSH2 0x2BDE JUMP JUMPDEST SWAP3 SWAP2 POP POP JUMP JUMPDEST PUSH1 0x0 DUP2 MLOAD SWAP1 POP SWAP2 SWAP1 POP JUMP JUMPDEST PUSH1 0x0 DUP3 DUP3 MSTORE PUSH1 0x20 DUP3 ADD SWAP1 POP SWAP3 SWAP2 POP POP JUMP JUMPDEST PUSH1 0x0 JUMPDEST DUP4 DUP2 LT ISZERO PUSH2 0x2C42 JUMPI DUP1 DUP3 ADD MLOAD DUP2 DUP5 ADD MSTORE PUSH1 0x20 DUP2 ADD SWAP1 POP PUSH2 0x2C27 JUMP JUMPDEST DUP4 DUP2 GT ISZERO PUSH2 0x2C51 JUMPI PUSH1 0x0 DUP5 DUP5 ADD MSTORE JUMPDEST POP POP POP POP JUMP JUMPDEST PUSH1 0x0 PUSH1 0x1F NOT PUSH1 0x1F DUP4 ADD AND SWAP1 POP SWAP2 SWAP1 POP JUMP JUMPDEST PUSH1 0x0 PUSH2 0x2C73 DUP3 PUSH2 0x2C08 JUMP JUMPDEST PUSH2 0x2C7D DUP2 DUP6 PUSH2 0x2C13 JUMP JUMPDEST SWAP4 POP PUSH2 0x2C8D DUP2 DUP6 PUSH1 0x20 DUP7 ADD PUSH2 0x2C24 JUMP JUMPDEST PUSH2 0x2C96 DUP2 PUSH2 0x2C57 JUMP JUMPDEST DUP5 ADD SWAP2 POP POP SWAP3 SWAP2 POP POP JUMP JUMPDEST PUSH1 0x0 PUSH1 0x20 DUP3 ADD SWAP1 POP DUP2 DUP2 SUB PUSH1 0x0 DUP4 ADD MSTORE PUSH2 0x2CBB DUP2 DUP5 PUSH2 0x2C68 JUMP JUMPDEST SWAP1 POP SWAP3 SWAP2 POP POP JUMP JUMPDEST PUSH1 0x0 DUP2 SWAP1 POP SWAP2 SWAP1 POP JUMP JUMPDEST PUSH2 0x2CD6 DUP2 PUSH2 0x2CC3 JUMP JUMPDEST DUP2 EQ PUSH2 0x2CE1 JUMPI PUSH1 0x0 DUP1 REVERT JUMPDEST POP JUMP JUMPDEST PUSH1 0x0 DUP2 CALLDATALOAD SWAP1 POP PUSH2 0x2CF3 DUP2 PUSH2 0x2CCD JUMP JUMPDEST SWAP3 SWAP2 POP POP JUMP JUMPDEST PUSH1 0x0 PUSH1 0x20 DUP3 DUP5 SUB SLT ISZERO PUSH2 0x2D0F JUMPI PUSH2 0x2D0E PUSH2 0x2B43 JUMP JUMPDEST JUMPDEST PUSH1 0x0 PUSH2 0x2D1D DUP5 DUP3 DUP6 ADD PUSH2 0x2CE4 JUMP JUMPDEST SWAP2 POP POP SWAP3 SWAP2 POP POP JUMP JUMPDEST PUSH1 0x0 PUSH20 0xFFFFFFFFFFFFFFFFFFFFFFFFFFFFFFFFFFFFFFFF DUP3 AND SWAP1 POP SWAP2 SWAP1 POP JUMP JUMPDEST PUSH1 0x0 PUSH2 0x2D51 DUP3 PUSH2 0x2D26 JUMP JUMPDEST SWAP1 POP SWAP2 SWAP1 POP JUMP JUMPDEST PUSH2 0x2D61 DUP2 PUSH2 0x2D46 JUMP JUMPDEST DUP3 MSTORE POP POP JUMP JUMPDEST PUSH1 0x0 PUSH1 0x20 DUP3 ADD SWAP1 POP PUSH2 0x2D7C PUSH1 0x0 DUP4 ADD DUP5 PUSH2 0x2D58 JUMP JUMPDEST SWAP3 SWAP2 POP POP JUMP JUMPDEST PUSH2 0x2D8B DUP2 PUSH2 0x2D46 JUMP JUMPDEST DUP2 EQ PUSH2 0x2D96 JUMPI PUSH1 0x0 DUP1 REVERT JUMPDEST POP JUMP JUMPDEST PUSH1 0x0 DUP2 CALLDATALOAD SWAP1 POP PUSH2 0x2DA8 DUP2 PUSH2 0x2D82 JUMP JUMPDEST SWAP3 SWAP2 POP POP JUMP JUMPDEST PUSH1 0x0 DUP1 PUSH1 0x40 DUP4 DUP6 SUB SLT ISZERO PUSH2 0x2DC5 JUMPI PUSH2 0x2DC4 PUSH2 0x2B43 JUMP JUMPDEST JUMPDEST PUSH1 0x0 PUSH2 0x2DD3 DUP6 DUP3 DUP7 ADD PUSH2 0x2D99 JUMP JUMPDEST SWAP3 POP POP PUSH1 0x20 PUSH2 0x2DE4 DUP6 DUP3 DUP7 ADD PUSH2 0x2CE4 JUMP JUMPDEST SWAP2 POP POP SWAP3 POP SWAP3 SWAP1 POP JUMP JUMPDEST PUSH2 0x2DF7 DUP2 PUSH2 0x2CC3 JUMP JUMPDEST DUP3 MSTORE POP POP JUMP JUMPDEST PUSH1 0x0 PUSH1 0x20 DUP3 ADD SWAP1 POP PUSH2 0x2E12 PUSH1 0x0 DUP4 ADD DUP5 PUSH2 0x2DEE JUMP JUMPDEST SWAP3 SWAP2 POP POP JUMP JUMPDEST PUSH1 0x0 DUP1 PUSH1 0x0 PUSH1 0x60 DUP5 DUP7 SUB SLT ISZERO PUSH2 0x2E31 JUMPI PUSH2 0x2E30 PUSH2 0x2B43 JUMP JUMPDEST JUMPDEST PUSH1 0x0 PUSH2 0x2E3F DUP7 DUP3 DUP8 ADD PUSH2 0x2D99 JUMP JUMPDEST SWAP4 POP POP PUSH1 0x20 PUSH2 0x2E50 DUP7 DUP3 DUP8 ADD PUSH2 0x2D99 JUMP JUMPDEST SWAP3 POP POP PUSH1 0x40 PUSH2 0x2E61 DUP7 DUP3 DUP8 ADD PUSH2 0x2CE4 JUMP JUMPDEST SWAP2 POP POP SWAP3 POP SWAP3 POP SWAP3 JUMP JUMPDEST PUSH1 0x0 DUP1 PUSH1 0x40 DUP4 DUP6 SUB SLT ISZERO PUSH2 0x2E82 JUMPI PUSH2 0x2E81 PUSH2 0x2B43 JUMP JUMPDEST JUMPDEST PUSH1 0x0 PUSH2 0x2E90 DUP6 DUP3 DUP7 ADD PUSH2 0x2CE4 JUMP JUMPDEST SWAP3 POP POP PUSH1 0x20 PUSH2 0x2EA1 DUP6 DUP3 DUP7 ADD PUSH2 0x2CE4 JUMP JUMPDEST SWAP2 POP POP SWAP3 POP SWAP3 SWAP1 POP JUMP JUMPDEST PUSH1 0x0 PUSH1 0x40 DUP3 ADD SWAP1 POP PUSH2 0x2EC0 PUSH1 0x0 DUP4 ADD DUP6 PUSH2 0x2D58 JUMP JUMPDEST PUSH2 0x2ECD PUSH1 0x20 DUP4 ADD DUP5 PUSH2 0x2DEE JUMP JUMPDEST SWAP4 SWAP3 POP POP POP JUMP JUMPDEST PUSH1 0x0 DUP2 SWAP1 POP SWAP2 SWAP1 POP JUMP JUMPDEST PUSH1 0x0 PUSH2 0x2EF9 PUSH2 0x2EF4 PUSH2 0x2EEF DUP5 PUSH2 0x2D26 JUMP JUMPDEST PUSH2 0x2ED4 JUMP JUMPDEST PUSH2 0x2D26 JUMP JUMPDEST SWAP1 POP SWAP2 SWAP1 POP JUMP JUMPDEST PUSH1 0x0 PUSH2 0x2F0B DUP3 PUSH2 0x2EDE JUMP JUMPDEST SWAP1 POP SWAP2 SWAP1 POP JUMP JUMPDEST PUSH1 0x0 PUSH2 0x2F1D DUP3 PUSH2 0x2F00 JUMP JUMPDEST SWAP1 POP SWAP2 SWAP1 POP JUMP JUMPDEST PUSH2 0x2F2D DUP2 PUSH2 0x2F12 JUMP JUMPDEST DUP3 MSTORE POP POP JUMP JUMPDEST PUSH1 0x0 PUSH1 0x20 DUP3 ADD SWAP1 POP PUSH2 0x2F48 PUSH1 0x0 DUP4 ADD DUP5 PUSH2 0x2F24 JUMP JUMPDEST SWAP3 SWAP2 POP POP JUMP JUMPDEST PUSH1 0x0 DUP2 PUSH1 0x0 SIGNEXTEND SWAP1 POP SWAP2 SWAP1 POP JUMP JUMPDEST PUSH2 0x2F64 DUP2 PUSH2 0x2F4E JUMP JUMPDEST DUP3 MSTORE POP POP JUMP JUMPDEST PUSH1 0x0 PUSH1 0xE0 DUP3 ADD SWAP1 POP DUP2 DUP2 SUB PUSH1 0x0 DUP4 ADD MSTORE PUSH2 0x2F84 DUP2 DUP11 PUSH2 0x2C68 JUMP JUMPDEST SWAP1 POP PUSH2 0x2F93 PUSH1 0x20 DUP4 ADD DUP10 PUSH2 0x2F5B JUMP JUMPDEST PUSH2 0x2FA0 PUSH1 0x40 DUP4 ADD DUP9 PUSH2 0x2F5B JUMP JUMPDEST PUSH2 0x2FAD PUSH1 0x60 DUP4 ADD DUP8 PUSH2 0x2F5B JUMP JUMPDEST PUSH2 0x2FBA PUSH1 0x80 DUP4 ADD DUP7 PUSH2 0x2F5B JUMP JUMPDEST PUSH2 0x2FC7 PUSH1 0xA0 DUP4 ADD DUP6 PUSH2 0x2F5B JUMP JUMPDEST PUSH2 0x2FD4 PUSH1 0xC0 DUP4 ADD DUP5 PUSH2 0x2F5B JUMP JUMPDEST SWAP9 SWAP8 POP POP POP POP POP POP POP POP JUMP JUMPDEST PUSH1 0x0 DUP1 REVERT JUMPDEST PUSH1 0x0 DUP1 REVERT JUMPDEST PUSH32 0x4E487B7100000000000000000000000000000000000000000000000000000000 PUSH1 0x0 MSTORE PUSH1 0x41 PUSH1 0x4 MSTORE PUSH1 0x24 PUSH1 0x0 REVERT JUMPDEST PUSH2 0x3022 DUP3 PUSH2 0x2C57 JUMP JUMPDEST DUP2 ADD DUP2 DUP2 LT PUSH8 0xFFFFFFFFFFFFFFFF DUP3 GT OR ISZERO PUSH2 0x3041 JUMPI PUSH2 0x3040 PUSH2 0x2FEA JUMP JUMPDEST JUMPDEST DUP1 PUSH1 0x40 MSTORE POP POP POP JUMP JUMPDEST PUSH1 0x0 PUSH2 0x3054 PUSH2 0x2B39 JUMP JUMPDEST SWAP1 POP PUSH2 0x3060 DUP3 DUP3 PUSH2 0x3019 JUMP JUMPDEST SWAP2 SWAP1 POP JUMP JUMPDEST PUSH1 0x0 PUSH8 0xFFFFFFFFFFFFFFFF DUP3 GT ISZERO PUSH2 0x3080 JUMPI PUSH2 0x307F PUSH2 0x2FEA JUMP JUMPDEST JUMPDEST PUSH2 0x3089 DUP3 PUSH2 0x2C57 JUMP JUMPDEST SWAP1 POP PUSH1 0x20 DUP2 ADD SWAP1 POP SWAP2 SWAP1 POP JUMP JUMPDEST DUP3 DUP2 DUP4 CALLDATACOPY PUSH1 0x0 DUP4 DUP4 ADD MSTORE POP POP POP JUMP JUMPDEST PUSH1 0x0 PUSH2 0x30B8 PUSH2 0x30B3 DUP5 PUSH2 0x3065 JUMP JUMPDEST PUSH2 0x304A JUMP JUMPDEST SWAP1 POP DUP3 DUP2 MSTORE PUSH1 0x20 DUP2 ADD DUP5 DUP5 DUP5 ADD GT ISZERO PUSH2 0x30D4 JUMPI PUSH2 0x30D3 PUSH2 0x2FE5 JUMP JUMPDEST JUMPDEST PUSH2 0x30DF DUP5 DUP3 DUP6 PUSH2 0x3096 JUMP JUMPDEST POP SWAP4 SWAP3 POP POP POP JUMP JUMPDEST PUSH1 0x0 DUP3 PUSH1 0x1F DUP4 ADD SLT PUSH2 0x30FC JUMPI PUSH2 0x30FB PUSH2 0x2FE0 JUMP JUMPDEST JUMPDEST DUP2 CALLDATALOAD PUSH2 0x310C DUP5 DUP3 PUSH1 0x20 DUP7 ADD PUSH2 0x30A5 JUMP JUMPDEST SWAP2 POP POP SWAP3 SWAP2 POP POP JUMP JUMPDEST PUSH2 0x311E DUP2 PUSH2 0x2F4E JUMP JUMPDEST DUP2 EQ PUSH2 0x3129 JUMPI PUSH1 0x0 DUP1 REVERT JUMPDEST POP JUMP JUMPDEST PUSH1 0x0 DUP2 CALLDATALOAD SWAP1 POP PUSH2 0x313B DUP2 PUSH2 0x3115 JUMP JUMPDEST SWAP3 SWAP2 POP POP JUMP JUMPDEST PUSH1 0x0 DUP1 PUSH1 0x0 DUP1 PUSH1 0x0 DUP1 PUSH1 0x0 PUSH1 0xE0 DUP9 DUP11 SUB SLT ISZERO PUSH2 0x3160 JUMPI PUSH2 0x315F PUSH2 0x2B43 JUMP JUMPDEST JUMPDEST PUSH1 0x0 DUP9 ADD CALLDATALOAD PUSH8 0xFFFFFFFFFFFFFFFF DUP2 GT ISZERO PUSH2 0x317E JUMPI PUSH2 0x317D PUSH2 0x2B48 JUMP JUMPDEST JUMPDEST PUSH2 0x318A DUP11 DUP3 DUP12 ADD PUSH2 0x30E7 JUMP JUMPDEST SWAP8 POP POP PUSH1 0x20 PUSH2 0x319B DUP11 DUP3 DUP12 ADD PUSH2 0x312C JUMP JUMPDEST SWAP7 POP POP PUSH1 0x40 PUSH2 0x31AC DUP11 DUP3 DUP12 ADD PUSH2 0x312C JUMP JUMPDEST SWAP6 POP POP PUSH1 0x60 PUSH2 0x31BD DUP11 DUP3 DUP12 ADD PUSH2 0x312C JUMP JUMPDEST SWAP5 POP POP PUSH1 0x80 PUSH2 0x31CE DUP11 DUP3 DUP12 ADD PUSH2 0x312C JUMP JUMPDEST SWAP4 POP POP PUSH1 0xA0 PUSH2 0x31DF DUP11 DUP3 DUP12 ADD PUSH2 0x312C JUMP JUMPDEST SWAP3 POP POP PUSH1 0xC0 PUSH2 0x31F0 DUP11 DUP3 DUP12 ADD PUSH2 0x312C JUMP JUMPDEST SWAP2 POP POP SWAP3 SWAP6 SWAP9 SWAP2 SWAP5 SWAP8 POP SWAP3 SWAP6 POP JUMP JUMPDEST PUSH1 0x0 PUSH1 0x20 DUP3 DUP5 SUB SLT ISZERO PUSH2 0x3215 JUMPI PUSH2 0x3214 PUSH2 0x2B43 JUMP JUMPDEST JUMPDEST PUSH1 0x0 PUSH2 0x3223 DUP5 DUP3 DUP6 ADD PUSH2 0x2D99 JUMP JUMPDEST SWAP2 POP POP SWAP3 SWAP2 POP POP JUMP JUMPDEST PUSH2 0x3235 DUP2 PUSH2 0x2BD2 JUMP JUMPDEST DUP2 EQ PUSH2 0x3240 JUMPI PUSH1 0x0 DUP1 REVERT JUMPDEST POP JUMP JUMPDEST PUSH1 0x0 DUP2 CALLDATALOAD SWAP1 POP PUSH2 0x3252 DUP2 PUSH2 0x322C JUMP JUMPDEST SWAP3 SWAP2 POP POP JUMP JUMPDEST PUSH1 0x0 DUP1 PUSH1 0x40 DUP4 DUP6 SUB SLT ISZERO PUSH2 0x326F JUMPI PUSH2 0x326E PUSH2 0x2B43 JUMP JUMPDEST JUMPDEST PUSH1 0x0 PUSH2 0x327D DUP6 DUP3 DUP7 ADD PUSH2 0x2D99 JUMP JUMPDEST SWAP3 POP POP PUSH1 0x20 PUSH2 0x328E DUP6 DUP3 DUP7 ADD PUSH2 0x3243 JUMP JUMPDEST SWAP2 POP POP SWAP3 POP SWAP3 SWAP1 POP JUMP JUMPDEST PUSH1 0x0 PUSH8 0xFFFFFFFFFFFFFFFF DUP3 GT ISZERO PUSH2 0x32B3 JUMPI PUSH2 0x32B2 PUSH2 0x2FEA JUMP JUMPDEST JUMPDEST PUSH2 0x32BC DUP3 PUSH2 0x2C57 JUMP JUMPDEST SWAP1 POP PUSH1 0x20 DUP2 ADD SWAP1 POP SWAP2 SWAP1 POP JUMP JUMPDEST PUSH1 0x0 PUSH2 0x32DC PUSH2 0x32D7 DUP5 PUSH2 0x3298 JUMP JUMPDEST PUSH2 0x304A JUMP JUMPDEST SWAP1 POP DUP3 DUP2 MSTORE PUSH1 0x20 DUP2 ADD DUP5 DUP5 DUP5 ADD GT ISZERO PUSH2 0x32F8 JUMPI PUSH2 0x32F7 PUSH2 0x2FE5 JUMP JUMPDEST JUMPDEST PUSH2 0x3303 DUP5 DUP3 DUP6 PUSH2 0x3096 JUMP JUMPDEST POP SWAP4 SWAP3 POP POP POP JUMP JUMPDEST PUSH1 0x0 DUP3 PUSH1 0x1F DUP4 ADD SLT PUSH2 0x3320 JUMPI PUSH2 0x331F PUSH2 0x2FE0 JUMP JUMPDEST JUMPDEST DUP2 CALLDATALOAD PUSH2 0x3330 DUP5 DUP3 PUSH1 0x20 DUP7 ADD PUSH2 0x32C9 JUMP JUMPDEST SWAP2 POP POP SWAP3 SWAP2 POP POP JUMP JUMPDEST PUSH1 0x0 DUP1 PUSH1 0x0 DUP1 PUSH1 0x80 DUP6 DUP8 SUB SLT ISZERO PUSH2 0x3353 JUMPI PUSH2 0x3352 PUSH2 0x2B43 JUMP JUMPDEST JUMPDEST PUSH1 0x0 PUSH2 0x3361 DUP8 DUP3 DUP9 ADD PUSH2 0x2D99 JUMP JUMPDEST SWAP5 POP POP PUSH1 0x20 PUSH2 0x3372 DUP8 DUP3 DUP9 ADD PUSH2 0x2D99 JUMP JUMPDEST SWAP4 POP POP PUSH1 0x40 PUSH2 0x3383 DUP8 DUP3 DUP9 ADD PUSH2 0x2CE4 JUMP JUMPDEST SWAP3 POP POP PUSH1 0x60 DUP6 ADD CALLDATALOAD PUSH8 0xFFFFFFFFFFFFFFFF DUP2 GT ISZERO PUSH2 0x33A4 JUMPI PUSH2 0x33A3 PUSH2 0x2B48 JUMP JUMPDEST JUMPDEST PUSH2 0x33B0 DUP8 DUP3 DUP9 ADD PUSH2 0x330B JUMP JUMPDEST SWAP2 POP POP SWAP3 SWAP6 SWAP2 SWAP5 POP SWAP3 POP JUMP JUMPDEST PUSH1 0x0 DUP2 MLOAD SWAP1 POP SWAP2 SWAP1 POP JUMP JUMPDEST PUSH1 0x0 DUP3 DUP3 MSTORE PUSH1 0x20 DUP3 ADD SWAP1 POP SWAP3 SWAP2 POP POP JUMP JUMPDEST PUSH1 0x0 DUP2 SWAP1 POP PUSH1 0x20 DUP3 ADD SWAP1 POP SWAP2 SWAP1 POP JUMP JUMPDEST PUSH1 0x0 DUP3 DUP3 MSTORE PUSH1 0x20 DUP3 ADD SWAP1 POP SWAP3 SWAP2 POP POP JUMP JUMPDEST PUSH1 0x0 PUSH2 0x3404 DUP3 PUSH2 0x2C08 JUMP JUMPDEST PUSH2 0x340E DUP2 DUP6 PUSH2 0x33E8 JUMP JUMPDEST SWAP4 POP PUSH2 0x341E DUP2 DUP6 PUSH1 0x20 DUP7 ADD PUSH2 0x2C24 JUMP JUMPDEST PUSH2 0x3427 DUP2 PUSH2 0x2C57 JUMP JUMPDEST DUP5 ADD SWAP2 POP POP SWAP3 SWAP2 POP POP JUMP JUMPDEST PUSH2 0x343B DUP2 PUSH2 0x2F4E JUMP JUMPDEST DUP3 MSTORE POP POP JUMP JUMPDEST PUSH1 0x0 PUSH1 0xE0 DUP4 ADD PUSH1 0x0 DUP4 ADD MLOAD DUP5 DUP3 SUB PUSH1 0x0 DUP7 ADD MSTORE PUSH2 0x345E DUP3 DUP3 PUSH2 0x33F9 JUMP JUMPDEST SWAP2 POP POP PUSH1 0x20 DUP4 ADD MLOAD PUSH2 0x3473 PUSH1 0x20 DUP7 ADD DUP3 PUSH2 0x3432 JUMP JUMPDEST POP PUSH1 0x40 DUP4 ADD MLOAD PUSH2 0x3486 PUSH1 0x40 DUP7 ADD DUP3 PUSH2 0x3432 JUMP JUMPDEST POP PUSH1 0x60 DUP4 ADD MLOAD PUSH2 0x3499 PUSH1 0x60 DUP7 ADD DUP3 PUSH2 0x3432 JUMP JUMPDEST POP PUSH1 0x80 DUP4 ADD MLOAD PUSH2 0x34AC PUSH1 0x80 DUP7 ADD DUP3 PUSH2 0x3432 JUMP JUMPDEST POP PUSH1 0xA0 DUP4 ADD MLOAD PUSH2 0x34BF PUSH1 0xA0 DUP7 ADD DUP3 PUSH2 0x3432 JUMP JUMPDEST POP PUSH1 0xC0 DUP4 ADD MLOAD PUSH2 0x34D2 PUSH1 0xC0 DUP7 ADD DUP3 PUSH2 0x3432 JUMP JUMPDEST POP DUP1 SWAP2 POP POP SWAP3 SWAP2 POP POP JUMP JUMPDEST PUSH1 0x0 PUSH2 0x34E9 DUP4 DUP4 PUSH2 0x3441 JUMP JUMPDEST SWAP1 POP SWAP3 SWAP2 POP POP JUMP JUMPDEST PUSH1 0x0 PUSH1 0x20 DUP3 ADD SWAP1 POP SWAP2 SWAP1 POP JUMP JUMPDEST PUSH1 0x0 PUSH2 0x3509 DUP3 PUSH2 0x33BC JUMP JUMPDEST PUSH2 0x3513 DUP2 DUP6 PUSH2 0x33C7 JUMP JUMPDEST SWAP4 POP DUP4 PUSH1 0x20 DUP3 MUL DUP6 ADD PUSH2 0x3525 DUP6 PUSH2 0x33D8 JUMP JUMPDEST DUP1 PUSH1 0x0 JUMPDEST DUP6 DUP2 LT ISZERO PUSH2 0x3561 JUMPI DUP5 DUP5 SUB DUP10 MSTORE DUP2 MLOAD PUSH2 0x3542 DUP6 DUP3 PUSH2 0x34DD JUMP JUMPDEST SWAP5 POP PUSH2 0x354D DUP4 PUSH2 0x34F1 JUMP JUMPDEST SWAP3 POP PUSH1 0x20 DUP11 ADD SWAP10 POP POP PUSH1 0x1 DUP2 ADD SWAP1 POP PUSH2 0x3529 JUMP JUMPDEST POP DUP3 SWAP8 POP DUP8 SWAP6 POP POP POP POP POP POP SWAP3 SWAP2 POP POP JUMP JUMPDEST PUSH1 0x0 PUSH1 0x20 DUP3 ADD SWAP1 POP DUP2 DUP2 SUB PUSH1 0x0 DUP4 ADD MSTORE PUSH2 0x358D DUP2 DUP5 PUSH2 0x34FE JUMP JUMPDEST SWAP1 POP SWAP3 SWAP2 POP POP JUMP JUMPDEST PUSH1 0x0 DUP1 PUSH1 0x40 DUP4 DUP6 SUB SLT ISZERO PUSH2 0x35AC JUMPI PUSH2 0x35AB PUSH2 0x2B43 JUMP JUMPDEST JUMPDEST PUSH1 0x0 PUSH2 0x35BA DUP6 DUP3 DUP7 ADD PUSH2 0x2D99 JUMP JUMPDEST SWAP3 POP POP PUSH1 0x20 PUSH2 0x35CB DUP6 DUP3 DUP7 ADD PUSH2 0x2D99 JUMP JUMPDEST SWAP2 POP POP SWAP3 POP SWAP3 SWAP1 POP JUMP JUMPDEST PUSH32 0x4E487B7100000000000000000000000000000000000000000000000000000000 PUSH1 0x0 MSTORE PUSH1 0x22 PUSH1 0x4 MSTORE PUSH1 0x24 PUSH1 0x0 REVERT JUMPDEST PUSH1 0x0 PUSH1 0x2 DUP3 DIV SWAP1 POP PUSH1 0x1 DUP3 AND DUP1 PUSH2 0x361C JUMPI PUSH1 0x7F DUP3 AND SWAP2 POP JUMPDEST PUSH1 0x20 DUP3 LT DUP2 SUB PUSH2 0x362F JUMPI PUSH2 0x362E PUSH2 0x35D5 JUMP JUMPDEST JUMPDEST POP SWAP2 SWAP1 POP JUMP JUMPDEST PUSH32 0x4552433732314D657461646174613A2055524920717565727920666F72206E6F PUSH1 0x0 DUP3 ADD MSTORE PUSH32 0x6E6578697374656E7420746F6B656E0000000000000000000000000000000000 PUSH1 0x20 DUP3 ADD MSTORE POP JUMP JUMPDEST PUSH1 0x0 PUSH2 0x3691 PUSH1 0x2F DUP4 PUSH2 0x2C13 JUMP JUMPDEST SWAP2 POP PUSH2 0x369C DUP3 PUSH2 0x3635 JUMP JUMPDEST PUSH1 0x40 DUP3 ADD SWAP1 POP SWAP2 SWAP1 POP JUMP JUMPDEST PUSH1 0x0 PUSH1 0x20 DUP3 ADD SWAP1 POP DUP2 DUP2 SUB PUSH1 0x0 DUP4 ADD MSTORE PUSH2 0x36C0 DUP2 PUSH2 0x3684 JUMP JUMPDEST SWAP1 POP SWAP2 SWAP1 POP JUMP JUMPDEST PUSH32 0x4E487B7100000000000000000000000000000000000000000000000000000000 PUSH1 0x0 MSTORE PUSH1 0x11 PUSH1 0x4 MSTORE PUSH1 0x24 PUSH1 0x0 REVERT JUMPDEST PUSH1 0x0 PUSH2 0x3701 DUP3 PUSH2 0x2CC3 JUMP JUMPDEST SWAP2 POP PUSH2 0x370C DUP4 PUSH2 0x2CC3 JUMP JUMPDEST SWAP3 POP DUP2 PUSH32 0xFFFFFFFFFFFFFFFFFFFFFFFFFFFFFFFFFFFFFFFFFFFFFFFFFFFFFFFFFFFFFFFF DIV DUP4 GT DUP3 ISZERO ISZERO AND ISZERO PUSH2 0x3745 JUMPI PUSH2 0x3744 PUSH2 0x36C7 JUMP JUMPDEST JUMPDEST DUP3 DUP3 MUL SWAP1 POP SWAP3 SWAP2 POP POP JUMP JUMPDEST PUSH32 0x4E487B7100000000000000000000000000000000000000000000000000000000 PUSH1 0x0 MSTORE PUSH1 0x12 PUSH1 0x4 MSTORE PUSH1 0x24 PUSH1 0x0 REVERT JUMPDEST PUSH1 0x0 PUSH2 0x378A DUP3 PUSH2 0x2CC3 JUMP JUMPDEST SWAP2 POP PUSH2 0x3795 DUP4 PUSH2 0x2CC3 JUMP JUMPDEST SWAP3 POP DUP3 PUSH2 0x37A5 JUMPI PUSH2 0x37A4 PUSH2 0x3750 JUMP JUMPDEST JUMPDEST DUP3 DUP3 DIV SWAP1 POP SWAP3 SWAP2 POP POP JUMP JUMPDEST PUSH32 0x4E487B7100000000000000000000000000000000000000000000000000000000 PUSH1 0x0 MSTORE PUSH1 0x1 PUSH1 0x4 MSTORE PUSH1 0x24 PUSH1 0x0 REVERT JUMPDEST PUSH1 0x0 DUP2 SWAP1 POP SWAP3 SWAP2 POP POP JUMP JUMPDEST POP JUMP JUMPDEST PUSH1 0x0 PUSH2 0x37FA PUSH1 0x0 DUP4 PUSH2 0x37DF JUMP JUMPDEST SWAP2 POP PUSH2 0x3805 DUP3 PUSH2 0x37EA JUMP JUMPDEST PUSH1 0x0 DUP3 ADD SWAP1 POP SWAP2 SWAP1 POP JUMP JUMPDEST PUSH1 0x0 PUSH2 0x381B DUP3 PUSH2 0x37ED JUMP JUMPDEST SWAP2 POP DUP2 SWAP1 POP SWAP2 SWAP1 POP JUMP JUMPDEST PUSH32 0x7472616E73666572206661696C65642E00000000000000000000000000000000 PUSH1 0x0 DUP3 ADD MSTORE POP JUMP JUMPDEST PUSH1 0x0 PUSH2 0x385B PUSH1 0x10 DUP4 PUSH2 0x2C13 JUMP JUMPDEST SWAP2 POP PUSH2 0x3866 DUP3 PUSH2 0x3825 JUMP JUMPDEST PUSH1 0x20 DUP3 ADD SWAP1 POP SWAP2 SWAP1 POP JUMP JUMPDEST PUSH1 0x0 PUSH1 0x20 DUP3 ADD SWAP1 POP DUP2 DUP2 SUB PUSH1 0x0 DUP4 ADD MSTORE PUSH2 0x388A DUP2 PUSH2 0x384E JUMP JUMPDEST SWAP1 POP SWAP2 SWAP1 POP JUMP JUMPDEST PUSH32 0x4552433732313A20696E76616C696420746F6B656E2049440000000000000000 PUSH1 0x0 DUP3 ADD MSTORE POP JUMP JUMPDEST PUSH1 0x0 PUSH2 0x38C7 PUSH1 0x18 DUP4 PUSH2 0x2C13 JUMP JUMPDEST SWAP2 POP PUSH2 0x38D2 DUP3 PUSH2 0x3891 JUMP JUMPDEST PUSH1 0x20 DUP3 ADD SWAP1 POP SWAP2 SWAP1 POP JUMP JUMPDEST PUSH1 0x0 PUSH1 0x20 DUP3 ADD SWAP1 POP DUP2 DUP2 SUB PUSH1 0x0 DUP4 ADD MSTORE PUSH2 0x38F6 DUP2 PUSH2 0x38BA JUMP JUMPDEST SWAP1 POP SWAP2 SWAP1 POP JUMP JUMPDEST PUSH32 0x4D617820737570706C7920657863656564656421000000000000000000000000 PUSH1 0x0 DUP3 ADD MSTORE POP JUMP JUMPDEST PUSH1 0x0 PUSH2 0x3933 PUSH1 0x14 DUP4 PUSH2 0x2C13 JUMP JUMPDEST SWAP2 POP PUSH2 0x393E DUP3 PUSH2 0x38FD JUMP JUMPDEST PUSH1 0x20 DUP3 ADD SWAP1 POP SWAP2 SWAP1 POP JUMP JUMPDEST PUSH1 0x0 PUSH1 0x20 DUP3 ADD SWAP1 POP DUP2 DUP2 SUB PUSH1 0x0 DUP4 ADD MSTORE PUSH2 0x3962 DUP2 PUSH2 0x3926 JUMP JUMPDEST SWAP1 POP SWAP2 SWAP1 POP JUMP JUMPDEST PUSH32 0x496E737566696369656E742066756E6473210000000000000000000000000000 PUSH1 0x0 DUP3 ADD MSTORE POP JUMP JUMPDEST PUSH1 0x0 PUSH2 0x399F PUSH1 0x12 DUP4 PUSH2 0x2C13 JUMP JUMPDEST SWAP2 POP PUSH2 0x39AA DUP3 PUSH2 0x3969 JUMP JUMPDEST PUSH1 0x20 DUP3 ADD SWAP1 POP SWAP2 SWAP1 POP JUMP JUMPDEST PUSH1 0x0 PUSH1 0x20 DUP3 ADD SWAP1 POP DUP2 DUP2 SUB PUSH1 0x0 DUP4 ADD MSTORE PUSH2 0x39CE DUP2 PUSH2 0x3992 JUMP JUMPDEST SWAP1 POP SWAP2 SWAP1 POP JUMP JUMPDEST PUSH32 0x4552433732313A2061646472657373207A65726F206973206E6F742061207661 PUSH1 0x0 DUP3 ADD MSTORE PUSH32 0x6C6964206F776E65720000000000000000000000000000000000000000000000 PUSH1 0x20 DUP3 ADD MSTORE POP JUMP JUMPDEST PUSH1 0x0 PUSH2 0x3A31 PUSH1 0x29 DUP4 PUSH2 0x2C13 JUMP JUMPDEST SWAP2 POP PUSH2 0x3A3C DUP3 PUSH2 0x39D5 JUMP JUMPDEST PUSH1 0x40 DUP3 ADD SWAP1 POP SWAP2 SWAP1 POP JUMP JUMPDEST PUSH1 0x0 PUSH1 0x20 DUP3 ADD SWAP1 POP DUP2 DUP2 SUB PUSH1 0x0 DUP4 ADD MSTORE PUSH2 0x3A60 DUP2 PUSH2 0x3A24 JUMP JUMPDEST SWAP1 POP SWAP2 SWAP1 POP JUMP JUMPDEST PUSH1 0x0 DUP2 SWAP1 POP SWAP3 SWAP2 POP POP JUMP JUMPDEST PUSH1 0x0 PUSH2 0x3A7D DUP3 PUSH2 0x2C08 JUMP JUMPDEST PUSH2 0x3A87 DUP2 DUP6 PUSH2 0x3A67 JUMP JUMPDEST SWAP4 POP PUSH2 0x3A97 DUP2 DUP6 PUSH1 0x20 DUP7 ADD PUSH2 0x2C24 JUMP JUMPDEST DUP1 DUP5 ADD SWAP2 POP POP SWAP3 SWAP2 POP POP JUMP JUMPDEST PUSH1 0x0 PUSH2 0x3AAF DUP3 DUP6 PUSH2 0x3A72 JUMP JUMPDEST SWAP2 POP PUSH2 0x3ABB DUP3 DUP5 PUSH2 0x3A72 JUMP JUMPDEST SWAP2 POP DUP2 SWAP1 POP SWAP4 SWAP3 POP POP POP JUMP JUMPDEST PUSH32 0x4F776E61626C653A206E6577206F776E657220697320746865207A65726F2061 PUSH1 0x0 DUP3 ADD MSTORE PUSH32 0x6464726573730000000000000000000000000000000000000000000000000000 PUSH1 0x20 DUP3 ADD MSTORE POP JUMP JUMPDEST PUSH1 0x0 PUSH2 0x3B23 PUSH1 0x26 DUP4 PUSH2 0x2C13 JUMP JUMPDEST SWAP2 POP PUSH2 0x3B2E DUP3 PUSH2 0x3AC7 JUMP JUMPDEST PUSH1 0x40 DUP3 ADD SWAP1 POP SWAP2 SWAP1 POP JUMP JUMPDEST PUSH1 0x0 PUSH1 0x20 DUP3 ADD SWAP1 POP DUP2 DUP2 SUB PUSH1 0x0 DUP4 ADD MSTORE PUSH2 0x3B52 DUP2 PUSH2 0x3B16 JUMP JUMPDEST SWAP1 POP SWAP2 SWAP1 POP JUMP JUMPDEST PUSH1 0x0 PUSH1 0x40 DUP3 ADD SWAP1 POP PUSH2 0x3B6E PUSH1 0x0 DUP4 ADD DUP6 PUSH2 0x2D58 JUMP JUMPDEST PUSH2 0x3B7B PUSH1 0x20 DUP4 ADD DUP5 PUSH2 0x2D58 JUMP JUMPDEST SWAP4 SWAP3 POP POP POP JUMP JUMPDEST PUSH1 0x0 DUP2 MLOAD SWAP1 POP PUSH2 0x3B91 DUP2 PUSH2 0x322C JUMP JUMPDEST SWAP3 SWAP2 POP POP JUMP JUMPDEST PUSH1 0x0 PUSH1 0x20 DUP3 DUP5 SUB SLT ISZERO PUSH2 0x3BAD JUMPI PUSH2 0x3BAC PUSH2 0x2B43 JUMP JUMPDEST JUMPDEST PUSH1 0x0 PUSH2 0x3BBB DUP5 DUP3 DUP6 ADD PUSH2 0x3B82 JUMP JUMPDEST SWAP2 POP POP SWAP3 SWAP2 POP POP JUMP JUMPDEST PUSH32 0x4552433732313A20617070726F76616C20746F2063757272656E74206F776E65 PUSH1 0x0 DUP3 ADD MSTORE PUSH32 0x7200000000000000000000000000000000000000000000000000000000000000 PUSH1 0x20 DUP3 ADD MSTORE POP JUMP JUMPDEST PUSH1 0x0 PUSH2 0x3C20 PUSH1 0x21 DUP4 PUSH2 0x2C13 JUMP JUMPDEST SWAP2 POP PUSH2 0x3C2B DUP3 PUSH2 0x3BC4 JUMP JUMPDEST PUSH1 0x40 DUP3 ADD SWAP1 POP SWAP2 SWAP1 POP JUMP JUMPDEST PUSH1 0x0 PUSH1 0x20 DUP3 ADD SWAP1 POP DUP2 DUP2 SUB PUSH1 0x0 DUP4 ADD MSTORE PUSH2 0x3C4F DUP2 PUSH2 0x3C13 JUMP JUMPDEST SWAP1 POP SWAP2 SWAP1 POP JUMP JUMPDEST PUSH32 0x4552433732313A20617070726F76652063616C6C6572206973206E6F7420746F PUSH1 0x0 DUP3 ADD MSTORE PUSH32 0x6B656E206F776E6572206F7220617070726F76656420666F7220616C6C000000 PUSH1 0x20 DUP3 ADD MSTORE POP JUMP JUMPDEST PUSH1 0x0 PUSH2 0x3CB2 PUSH1 0x3D DUP4 PUSH2 0x2C13 JUMP JUMPDEST SWAP2 POP PUSH2 0x3CBD DUP3 PUSH2 0x3C56 JUMP JUMPDEST PUSH1 0x40 DUP3 ADD SWAP1 POP SWAP2 SWAP1 POP JUMP JUMPDEST PUSH1 0x0 PUSH1 0x20 DUP3 ADD SWAP1 POP DUP2 DUP2 SUB PUSH1 0x0 DUP4 ADD MSTORE PUSH2 0x3CE1 DUP2 PUSH2 0x3CA5 JUMP JUMPDEST SWAP1 POP SWAP2 SWAP1 POP JUMP JUMPDEST PUSH32 0x4552433732313A2063616C6C6572206973206E6F7420746F6B656E206F776E65 PUSH1 0x0 DUP3 ADD MSTORE PUSH32 0x72206F7220617070726F76656400000000000000000000000000000000000000 PUSH1 0x20 DUP3 ADD MSTORE POP JUMP JUMPDEST PUSH1 0x0 PUSH2 0x3D44 PUSH1 0x2D DUP4 PUSH2 0x2C13 JUMP JUMPDEST SWAP2 POP PUSH2 0x3D4F DUP3 PUSH2 0x3CE8 JUMP JUMPDEST PUSH1 0x40 DUP3 ADD SWAP1 POP SWAP2 SWAP1 POP JUMP JUMPDEST PUSH1 0x0 PUSH1 0x20 DUP3 ADD SWAP1 POP DUP2 DUP2 SUB PUSH1 0x0 DUP4 ADD MSTORE PUSH2 0x3D73 DUP2 PUSH2 0x3D37 JUMP JUMPDEST SWAP1 POP SWAP2 SWAP1 POP JUMP JUMPDEST PUSH32 0x4F776E61626C653A2063616C6C6572206973206E6F7420746865206F776E6572 PUSH1 0x0 DUP3 ADD MSTORE POP JUMP JUMPDEST PUSH1 0x0 PUSH2 0x3DB0 PUSH1 0x20 DUP4 PUSH2 0x2C13 JUMP JUMPDEST SWAP2 POP PUSH2 0x3DBB DUP3 PUSH2 0x3D7A JUMP JUMPDEST PUSH1 0x20 DUP3 ADD SWAP1 POP SWAP2 SWAP1 POP JUMP JUMPDEST PUSH1 0x0 PUSH1 0x20 DUP3 ADD SWAP1 POP DUP2 DUP2 SUB PUSH1 0x0 DUP4 ADD MSTORE PUSH2 0x3DDF DUP2 PUSH2 0x3DA3 JUMP JUMPDEST SWAP1 POP SWAP2 SWAP1 POP JUMP JUMPDEST PUSH32 0x4552433732313A207472616E736665722066726F6D20696E636F727265637420 PUSH1 0x0 DUP3 ADD MSTORE PUSH32 0x6F776E6572000000000000000000000000000000000000000000000000000000 PUSH1 0x20 DUP3 ADD MSTORE POP JUMP JUMPDEST PUSH1 0x0 PUSH2 0x3E42 PUSH1 0x25 DUP4 PUSH2 0x2C13 JUMP JUMPDEST SWAP2 POP PUSH2 0x3E4D DUP3 PUSH2 0x3DE6 JUMP JUMPDEST PUSH1 0x40 DUP3 ADD SWAP1 POP SWAP2 SWAP1 POP JUMP JUMPDEST PUSH1 0x0 PUSH1 0x20 DUP3 ADD SWAP1 POP DUP2 DUP2 SUB PUSH1 0x0 DUP4 ADD MSTORE PUSH2 0x3E71 DUP2 PUSH2 0x3E35 JUMP JUMPDEST SWAP1 POP SWAP2 SWAP1 POP JUMP JUMPDEST PUSH32 0x4552433732313A207472616E7366657220746F20746865207A65726F20616464 PUSH1 0x0 DUP3 ADD MSTORE PUSH32 0x7265737300000000000000000000000000000000000000000000000000000000 PUSH1 0x20 DUP3 ADD MSTORE POP JUMP JUMPDEST PUSH1 0x0 PUSH2 0x3ED4 PUSH1 0x24 DUP4 PUSH2 0x2C13 JUMP JUMPDEST SWAP2 POP PUSH2 0x3EDF DUP3 PUSH2 0x3E78 JUMP JUMPDEST PUSH1 0x40 DUP3 ADD SWAP1 POP SWAP2 SWAP1 POP JUMP JUMPDEST PUSH1 0x0 PUSH1 0x20 DUP3 ADD SWAP1 POP DUP2 DUP2 SUB PUSH1 0x0 DUP4 ADD MSTORE PUSH2 0x3F03 DUP2 PUSH2 0x3EC7 JUMP JUMPDEST SWAP1 POP SWAP2 SWAP1 POP JUMP JUMPDEST PUSH32 0x4552433732313A207472616E7366657220746F206E6F6E204552433732315265 PUSH1 0x0 DUP3 ADD MSTORE PUSH32 0x63656976657220696D706C656D656E7465720000000000000000000000000000 PUSH1 0x20 DUP3 ADD MSTORE POP JUMP JUMPDEST PUSH1 0x0 PUSH2 0x3F66 PUSH1 0x32 DUP4 PUSH2 0x2C13 JUMP JUMPDEST SWAP2 POP PUSH2 0x3F71 DUP3 PUSH2 0x3F0A JUMP JUMPDEST PUSH1 0x40 DUP3 ADD SWAP1 POP SWAP2 SWAP1 POP JUMP JUMPDEST PUSH1 0x0 PUSH1 0x20 DUP3 ADD SWAP1 POP DUP2 DUP2 SUB PUSH1 0x0 DUP4 ADD MSTORE PUSH2 0x3F95 DUP2 PUSH2 0x3F59 JUMP JUMPDEST SWAP1 POP SWAP2 SWAP1 POP JUMP JUMPDEST PUSH32 0x4552433732313A20617070726F766520746F2063616C6C657200000000000000 PUSH1 0x0 DUP3 ADD MSTORE POP JUMP JUMPDEST PUSH1 0x0 PUSH2 0x3FD2 PUSH1 0x19 DUP4 PUSH2 0x2C13 JUMP JUMPDEST SWAP2 POP PUSH2 0x3FDD DUP3 PUSH2 0x3F9C JUMP JUMPDEST PUSH1 0x20 DUP3 ADD SWAP1 POP SWAP2 SWAP1 POP JUMP JUMPDEST PUSH1 0x0 PUSH1 0x20 DUP3 ADD SWAP1 POP DUP2 DUP2 SUB PUSH1 0x0 DUP4 ADD MSTORE PUSH2 0x4001 DUP2 PUSH2 0x3FC5 JUMP JUMPDEST SWAP1 POP SWAP2 SWAP1 POP JUMP JUMPDEST PUSH1 0x0 PUSH2 0x4013 DUP3 PUSH2 0x2CC3 JUMP JUMPDEST SWAP2 POP PUSH2 0x401E DUP4 PUSH2 0x2CC3 JUMP JUMPDEST SWAP3 POP DUP3 DUP3 LT ISZERO PUSH2 0x4031 JUMPI PUSH2 0x4030 PUSH2 0x36C7 JUMP JUMPDEST JUMPDEST DUP3 DUP3 SUB SWAP1 POP SWAP3 SWAP2 POP POP JUMP JUMPDEST PUSH1 0x0 PUSH2 0x4047 DUP3 PUSH2 0x2CC3 JUMP JUMPDEST SWAP2 POP PUSH2 0x4052 DUP4 PUSH2 0x2CC3 JUMP JUMPDEST SWAP3 POP DUP3 PUSH32 0xFFFFFFFFFFFFFFFFFFFFFFFFFFFFFFFFFFFFFFFFFFFFFFFFFFFFFFFFFFFFFFFF SUB DUP3 GT ISZERO PUSH2 0x4087 JUMPI PUSH2 0x4086 PUSH2 0x36C7 JUMP JUMPDEST JUMPDEST DUP3 DUP3 ADD SWAP1 POP SWAP3 SWAP2 POP POP JUMP JUMPDEST PUSH32 0x4552433732313A206D696E7420746F20746865207A65726F2061646472657373 PUSH1 0x0 DUP3 ADD MSTORE POP JUMP JUMPDEST PUSH1 0x0 PUSH2 0x40C8 PUSH1 0x20 DUP4 PUSH2 0x2C13 JUMP JUMPDEST SWAP2 POP PUSH2 0x40D3 DUP3 PUSH2 0x4092 JUMP JUMPDEST PUSH1 0x20 DUP3 ADD SWAP1 POP SWAP2 SWAP1 POP JUMP JUMPDEST PUSH1 0x0 PUSH1 0x20 DUP3 ADD SWAP1 POP DUP2 DUP2 SUB PUSH1 0x0 DUP4 ADD MSTORE PUSH2 0x40F7 DUP2 PUSH2 0x40BB JUMP JUMPDEST SWAP1 POP SWAP2 SWAP1 POP JUMP JUMPDEST PUSH32 0x4552433732313A20746F6B656E20616C7265616479206D696E74656400000000 PUSH1 0x0 DUP3 ADD MSTORE POP JUMP JUMPDEST PUSH1 0x0 PUSH2 0x4134 PUSH1 0x1C DUP4 PUSH2 0x2C13 JUMP JUMPDEST SWAP2 POP PUSH2 0x413F DUP3 PUSH2 0x40FE JUMP JUMPDEST PUSH1 0x20 DUP3 ADD SWAP1 POP SWAP2 SWAP1 POP JUMP JUMPDEST PUSH1 0x0 PUSH1 0x20 DUP3 ADD SWAP1 POP DUP2 DUP2 SUB PUSH1 0x0 DUP4 ADD MSTORE PUSH2 0x4163 DUP2 PUSH2 0x4127 JUMP JUMPDEST SWAP1 POP SWAP2 SWAP1 POP JUMP JUMPDEST PUSH1 0x0 DUP2 MLOAD SWAP1 POP SWAP2 SWAP1 POP JUMP JUMPDEST PUSH1 0x0 DUP3 DUP3 MSTORE PUSH1 0x20 DUP3 ADD SWAP1 POP SWAP3 SWAP2 POP POP JUMP JUMPDEST PUSH1 0x0 PUSH2 0x4191 DUP3 PUSH2 0x416A JUMP JUMPDEST PUSH2 0x419B DUP2 DUP6 PUSH2 0x4175 JUMP JUMPDEST SWAP4 POP PUSH2 0x41AB DUP2 DUP6 PUSH1 0x20 DUP7 ADD PUSH2 0x2C24 JUMP JUMPDEST PUSH2 0x41B4 DUP2 PUSH2 0x2C57 JUMP JUMPDEST DUP5 ADD SWAP2 POP POP SWAP3 SWAP2 POP POP JUMP JUMPDEST PUSH1 0x0 PUSH1 0x80 DUP3 ADD SWAP1 POP PUSH2 0x41D4 PUSH1 0x0 DUP4 ADD DUP8 PUSH2 0x2D58 JUMP JUMPDEST PUSH2 0x41E1 PUSH1 0x20 DUP4 ADD DUP7 PUSH2 0x2D58 JUMP JUMPDEST PUSH2 0x41EE PUSH1 0x40 DUP4 ADD DUP6 PUSH2 0x2DEE JUMP JUMPDEST DUP2 DUP2 SUB PUSH1 0x60 DUP4 ADD MSTORE PUSH2 0x4200 DUP2 DUP5 PUSH2 0x4186 JUMP JUMPDEST SWAP1 POP SWAP6 SWAP5 POP POP POP POP POP JUMP JUMPDEST PUSH1 0x0 DUP2 MLOAD SWAP1 POP PUSH2 0x421A DUP2 PUSH2 0x2B79 JUMP JUMPDEST SWAP3 SWAP2 POP POP JUMP JUMPDEST PUSH1 0x0 PUSH1 0x20 DUP3 DUP5 SUB SLT ISZERO PUSH2 0x4236 JUMPI PUSH2 0x4235 PUSH2 0x2B43 JUMP JUMPDEST JUMPDEST PUSH1 0x0 PUSH2 0x4244 DUP5 DUP3 DUP6 ADD PUSH2 0x420B JUMP JUMPDEST SWAP2 POP POP SWAP3 SWAP2 POP POP JUMP INVALID LOG2 PUSH5 0x6970667358 0x22 SLT KECCAK256 MOD MSIZE MSIZE PUSH30 0x40E9D153DF56B21D61268DDA20C895E1457B42F61AD40E13AD19EF46473 PUSH16 0x6C634300080D00330000000000000000 "},"methodIdentifiers":{"COST()":"bf8fbbd2","MAX_SUPPLY()":"32cb6b0c","OPERATOR_FILTER_REGISTRY()":"41f43434","approve(address,uint256)":"095ea7b3","balanceOf(address)":"70a08231","buildings(uint256)":"4c96a062","getApproved(uint256)":"081812fc","getBuildings()":"d9cf6a26","getOwnerBuildings()":"cbdca984","isApprovedForAll(address,address)":"e985e9c5","mint(string,int8,int8,int8,int8,int8,int8)":"6e0f3f1e","name()":"06fdde03","owner()":"8da5cb5b","ownerOf(uint256)":"6352211e","renounceOwnership()":"715018a6","royaltyInfo(uint256,uint256)":"2a55205a","royaltyReceiver()":"9fbc8713","safeTransferFrom(address,address,uint256)":"42842e0e","safeTransferFrom(address,address,uint256,bytes)":"b88d4fde","setApprovalForAll(address,bool)":"a22cb465","supportsInterface(bytes4)":"01ffc9a7","symbol()":"95d89b41","tokenURI(uint256)":"c87b56dd","totalSupply()":"18160ddd","transferFrom(address,address,uint256)":"23b872dd","transferOwnership(address)":"f2fde38b","withdraw()":"3ccfd60b"}}}}}