{
  "_format": "hh-sol-artifact-1",
  "contractName": "metaverse",
  "sourceName": "contracts/metaverse.sol",
  "abi": [
    {
      "inputs": [],
      "stateMutability": "nonpayable",
      "type": "constructor"
    },
    {
      "inputs": [
        {
          "internalType": "address",
          "name": "operator",
          "type": "address"
        }
      ],
      "name": "OperatorNotAllowed",
      "type": "error"
    },
    {
      "anonymous": false,
      "inputs": [
        {
          "indexed": true,
          "internalType": "address",
          "name": "owner",
          "type": "address"
        },
        {
          "indexed": true,
          "internalType": "address",
          "name": "approved",
          "type": "address"
        },
        {
          "indexed": true,
          "internalType": "uint256",
          "name": "tokenId",
          "type": "uint256"
        }
      ],
      "name": "Approval",
      "type": "event"
    },
    {
      "anonymous": false,
      "inputs": [
        {
          "indexed": true,
          "internalType": "address",
          "name": "owner",
          "type": "address"
        },
        {
          "indexed": true,
          "internalType": "address",
          "name": "operator",
          "type": "address"
        },
        {
          "indexed": false,
          "internalType": "bool",
          "name": "approved",
          "type": "bool"
        }
      ],
      "name": "ApprovalForAll",
      "type": "event"
    },
    {
      "anonymous": false,
      "inputs": [
        {
          "indexed": true,
          "internalType": "address",
          "name": "previousOwner",
          "type": "address"
        },
        {
          "indexed": true,
          "internalType": "address",
          "name": "newOwner",
          "type": "address"
        }
      ],
      "name": "OwnershipTransferred",
      "type": "event"
    },
    {
      "anonymous": false,
      "inputs": [
        {
          "indexed": true,
          "internalType": "address",
          "name": "from",
          "type": "address"
        },
        {
          "indexed": true,
          "internalType": "address",
          "name": "to",
          "type": "address"
        },
        {
          "indexed": true,
          "internalType": "uint256",
          "name": "tokenId",
          "type": "uint256"
        }
      ],
      "name": "Transfer",
      "type": "event"
    },
    {
      "inputs": [],
      "name": "COST",
      "outputs": [
        {
          "internalType": "uint256",
          "name": "",
          "type": "uint256"
        }
      ],
      "stateMutability": "view",
      "type": "function"
    },
    {
      "inputs": [],
      "name": "MAX_SUPPLY",
      "outputs": [
        {
          "internalType": "uint256",
          "name": "",
          "type": "uint256"
        }
      ],
      "stateMutability": "view",
      "type": "function"
    },
    {
      "inputs": [],
      "name": "OPERATOR_FILTER_REGISTRY",
      "outputs": [
        {
          "internalType": "contract IOperatorFilterRegistry",
          "name": "",
          "type": "address"
        }
      ],
      "stateMutability": "view",
      "type": "function"
    },
    {
      "inputs": [
        {
          "internalType": "address",
          "name": "operator",
          "type": "address"
        },
        {
          "internalType": "uint256",
          "name": "tokenId",
          "type": "uint256"
        }
      ],
      "name": "approve",
      "outputs": [],
      "stateMutability": "nonpayable",
      "type": "function"
    },
    {
      "inputs": [
        {
          "internalType": "address",
          "name": "owner",
          "type": "address"
        }
      ],
      "name": "balanceOf",
      "outputs": [
        {
          "internalType": "uint256",
          "name": "",
          "type": "uint256"
        }
      ],
      "stateMutability": "view",
      "type": "function"
    },
    {
      "inputs": [
        {
          "internalType": "uint256",
          "name": "",
          "type": "uint256"
        }
      ],
      "name": "buildings",
      "outputs": [
        {
          "internalType": "string",
          "name": "name",
          "type": "string"
        },
        {
          "internalType": "int8",
          "name": "w",
          "type": "int8"
        },
        {
          "internalType": "int8",
          "name": "h",
          "type": "int8"
        },
        {
          "internalType": "int8",
          "name": "d",
          "type": "int8"
        },
        {
          "internalType": "int8",
          "name": "x",
          "type": "int8"
        },
        {
          "internalType": "int8",
          "name": "y",
          "type": "int8"
        },
        {
          "internalType": "int8",
          "name": "z",
          "type": "int8"
        }
      ],
      "stateMutability": "view",
      "type": "function"
    },
    {
      "inputs": [
        {
          "internalType": "uint256",
          "name": "tokenId",
          "type": "uint256"
        }
      ],
      "name": "getApproved",
      "outputs": [
        {
          "internalType": "address",
          "name": "",
          "type": "address"
        }
      ],
      "stateMutability": "view",
      "type": "function"
    },
    {
      "inputs": [],
      "name": "getBuildings",
      "outputs": [
        {
          "components": [
            {
              "internalType": "string",
              "name": "name",
              "type": "string"
            },
            {
              "internalType": "int8",
              "name": "w",
              "type": "int8"
            },
            {
              "internalType": "int8",
              "name": "h",
              "type": "int8"
            },
            {
              "internalType": "int8",
              "name": "d",
              "type": "int8"
            },
            {
              "internalType": "int8",
              "name": "x",
              "type": "int8"
            },
            {
              "internalType": "int8",
              "name": "y",
              "type": "int8"
            },
            {
              "internalType": "int8",
              "name": "z",
              "type": "int8"
            }
          ],
          "internalType": "struct metaverse.Building[]",
          "name": "",
          "type": "tuple[]"
        }
      ],
      "stateMutability": "view",
      "type": "function"
    },
    {
      "inputs": [],
      "name": "getOwnerBuildings",
      "outputs": [
        {
          "components": [
            {
              "internalType": "string",
              "name": "name",
              "type": "string"
            },
            {
              "internalType": "int8",
              "name": "w",
              "type": "int8"
            },
            {
              "internalType": "int8",
              "name": "h",
              "type": "int8"
            },
            {
              "internalType": "int8",
              "name": "d",
              "type": "int8"
            },
            {
              "internalType": "int8",
              "name": "x",
              "type": "int8"
            },
            {
              "internalType": "int8",
              "name": "y",
              "type": "int8"
            },
            {
              "internalType": "int8",
              "name": "z",
              "type": "int8"
            }
          ],
          "internalType": "struct metaverse.Building[]",
          "name": "",
          "type": "tuple[]"
        }
      ],
      "stateMutability": "view",
      "type": "function"
    },
    {
      "inputs": [
        {
          "internalType": "address",
          "name": "owner",
          "type": "address"
        },
        {
          "internalType": "address",
          "name": "operator",
          "type": "address"
        }
      ],
      "name": "isApprovedForAll",
      "outputs": [
        {
          "internalType": "bool",
          "name": "",
          "type": "bool"
        }
      ],
      "stateMutability": "view",
      "type": "function"
    },
    {
      "inputs": [
        {
          "internalType": "string",
          "name": "_building_name",
          "type": "string"
        },
        {
          "internalType": "int8",
          "name": "_w",
          "type": "int8"
        },
        {
          "internalType": "int8",
          "name": "_h",
          "type": "int8"
        },
        {
          "internalType": "int8",
          "name": "_d",
          "type": "int8"
        },
        {
          "internalType": "int8",
          "name": "_x",
          "type": "int8"
        },
        {
          "internalType": "int8",
          "name": "_y",
          "type": "int8"
        },
        {
          "internalType": "int8",
          "name": "_z",
          "type": "int8"
        }
      ],
      "name": "mint",
      "outputs": [],
      "stateMutability": "payable",
      "type": "function"
    },
    {
      "inputs": [],
      "name": "name",
      "outputs": [
        {
          "internalType": "string",
          "name": "",
          "type": "string"
        }
      ],
      "stateMutability": "view",
      "type": "function"
    },
    {
      "inputs": [],
      "name": "owner",
      "outputs": [
        {
          "internalType": "address",
          "name": "",
          "type": "address"
        }
      ],
      "stateMutability": "view",
      "type": "function"
    },
    {
      "inputs": [
        {
          "internalType": "uint256",
          "name": "tokenId",
          "type": "uint256"
        }
      ],
      "name": "ownerOf",
      "outputs": [
        {
          "internalType": "address",
          "name": "",
          "type": "address"
        }
      ],
      "stateMutability": "view",
      "type": "function"
    },
    {
      "inputs": [],
      "name": "renounceOwnership",
      "outputs": [],
      "stateMutability": "nonpayable",
      "type": "function"
    },
    {
      "inputs": [
        {
          "internalType": "uint256",
          "name": "_tokenId",
          "type": "uint256"
        },
        {
          "internalType": "uint256",
          "name": "_salePrice",
          "type": "uint256"
        }
      ],
      "name": "royaltyInfo",
      "outputs": [
        {
          "internalType": "address",
          "name": "receiver",
          "type": "address"
        },
        {
          "internalType": "uint256",
          "name": "royaltyAmount",
          "type": "uint256"
        }
      ],
      "stateMutability": "view",
      "type": "function"
    },
    {
      "inputs": [],
      "name": "royaltyReceiver",
      "outputs": [
        {
          "internalType": "address",
          "name": "",
          "type": "address"
        }
      ],
      "stateMutability": "view",
      "type": "function"
    },
    {
      "inputs": [
        {
          "internalType": "address",
          "name": "from",
          "type": "address"
        },
        {
          "internalType": "address",
          "name": "to",
          "type": "address"
        },
        {
          "internalType": "uint256",
          "name": "tokenId",
          "type": "uint256"
        }
      ],
      "name": "safeTransferFrom",
      "outputs": [],
      "stateMutability": "nonpayable",
      "type": "function"
    },
    {
      "inputs": [
        {
          "internalType": "address",
          "name": "from",
          "type": "address"
        },
        {
          "internalType": "address",
          "name": "to",
          "type": "address"
        },
        {
          "internalType": "uint256",
          "name": "tokenId",
          "type": "uint256"
        },
        {
          "internalType": "bytes",
          "name": "data",
          "type": "bytes"
        }
      ],
      "name": "safeTransferFrom",
      "outputs": [],
      "stateMutability": "nonpayable",
      "type": "function"
    },
    {
      "inputs": [
        {
          "internalType": "address",
          "name": "operator",
          "type": "address"
        },
        {
          "internalType": "bool",
          "name": "approved",
          "type": "bool"
        }
      ],
      "name": "setApprovalForAll",
      "outputs": [],
      "stateMutability": "nonpayable",
      "type": "function"
    },
    {
      "inputs": [
        {
          "internalType": "bytes4",
          "name": "interfaceId",
          "type": "bytes4"
        }
      ],
      "name": "supportsInterface",
      "outputs": [
        {
          "internalType": "bool",
          "name": "",
          "type": "bool"
        }
      ],
      "stateMutability": "view",
      "type": "function"
    },
    {
      "inputs": [],
      "name": "symbol",
      "outputs": [
        {
          "internalType": "string",
          "name": "",
          "type": "string"
        }
      ],
      "stateMutability": "view",
      "type": "function"
    },
    {
      "inputs": [
        {
          "internalType": "uint256",
          "name": "tokenId",
          "type": "uint256"
        }
      ],
      "name": "tokenURI",
      "outputs": [
        {
          "internalType": "string",
          "name": "",
          "type": "string"
        }
      ],
      "stateMutability": "view",
      "type": "function"
    },
    {
      "inputs": [],
      "name": "totalSupply",
      "outputs": [
        {
          "internalType": "uint256",
          "name": "",
          "type": "uint256"
        }
      ],
      "stateMutability": "view",
      "type": "function"
    },
    {
      "inputs": [
        {
          "internalType": "address",
          "name": "from",
          "type": "address"
        },
        {
          "internalType": "address",
          "name": "to",
          "type": "address"
        },
        {
          "internalType": "uint256",
          "name": "tokenId",
          "type": "uint256"
        }
      ],
      "name": "transferFrom",
      "outputs": [],
      "stateMutability": "nonpayable",
      "type": "function"
    },
    {
      "inputs": [
        {
          "internalType": "address",
          "name": "newOwner",
          "type": "address"
        }
      ],
      "name": "transferOwnership",
      "outputs": [],
      "stateMutability": "nonpayable",
      "type": "function"
    },
    {
      "inputs": [],
      "name": "withdraw",
      "outputs": [],
      "stateMutability": "payable",
      "type": "function"
    }
  ],
  "bytecode": "0x60806040523480156200001157600080fd5b50733cc6cdda760b79bafa08df41ecfa224f810dceb660016040518060400160405280600f81526020017f47425742485f4d455441564552534500000000000000000000000000000000008152506040518060400160405280600a81526020017f47425742485f4d455441000000000000000000000000000000000000000000008152508160009080519060200190620000ad929190620003f5565b508060019080519060200190620000c6929190620003f5565b50505060006daaeb6d7670e522a718067333cd4e73ffffffffffffffffffffffffffffffffffffffff163b1115620002be57801562000184576daaeb6d7670e522a718067333cd4e73ffffffffffffffffffffffffffffffffffffffff16637d3e3dbe30846040518363ffffffff1660e01b81526004016200014a929190620004ea565b600060405180830381600087803b1580156200016557600080fd5b505af11580156200017a573d6000803e3d6000fd5b50505050620002bd565b600073ffffffffffffffffffffffffffffffffffffffff168273ffffffffffffffffffffffffffffffffffffffff16146200023e576daaeb6d7670e522a718067333cd4e73ffffffffffffffffffffffffffffffffffffffff1663a0af290330846040518363ffffffff1660e01b815260040162000204929190620004ea565b600060405180830381600087803b1580156200021f57600080fd5b505af115801562000234573d6000803e3d6000fd5b50505050620002bc565b6daaeb6d7670e522a718067333cd4e73ffffffffffffffffffffffffffffffffffffffff16634420e486306040518263ffffffff1660e01b815260040162000287919062000517565b600060405180830381600087803b158015620002a257600080fd5b505af1158015620002b7573d6000803e3d6000fd5b505050505b5b5b5050620002e0620002d46200032760201b60201c565b6200032f60201b60201c565b33600a60006101000a81548173ffffffffffffffffffffffffffffffffffffffff021916908373ffffffffffffffffffffffffffffffffffffffff16021790555062000598565b600033905090565b6000600660009054906101000a900473ffffffffffffffffffffffffffffffffffffffff16905081600660006101000a81548173ffffffffffffffffffffffffffffffffffffffff021916908373ffffffffffffffffffffffffffffffffffffffff1602179055508173ffffffffffffffffffffffffffffffffffffffff168173ffffffffffffffffffffffffffffffffffffffff167f8be0079c531659141344cd1fd0a4f28419497f9722a3daafe3b4186f6b6457e060405160405180910390a35050565b828054620004039062000563565b90600052602060002090601f01602090048101928262000427576000855562000473565b82601f106200044257805160ff191683800117855562000473565b8280016001018555821562000473579182015b828111156200047257825182559160200191906001019062000455565b5b50905062000482919062000486565b5090565b5b80821115620004a157600081600090555060010162000487565b5090565b600073ffffffffffffffffffffffffffffffffffffffff82169050919050565b6000620004d282620004a5565b9050919050565b620004e481620004c5565b82525050565b6000604082019050620005016000830185620004d9565b620005106020830184620004d9565b9392505050565b60006020820190506200052e6000830184620004d9565b92915050565b7f4e487b7100000000000000000000000000000000000000000000000000000000600052602260045260246000fd5b600060028204905060018216806200057c57607f821691505b60208210810362000592576200059162000534565b5b50919050565b61428380620005a86000396000f3fe60806040526004361061019c5760003560e01c80636e0f3f1e116100ec578063b88d4fde1161008a578063cbdca98411610064578063cbdca984146105b5578063d9cf6a26146105e0578063e985e9c51461060b578063f2fde38b146106485761019c565b8063b88d4fde14610524578063bf8fbbd21461054d578063c87b56dd146105785761019c565b80638da5cb5b116100c65780638da5cb5b1461047a57806395d89b41146104a55780639fbc8713146104d0578063a22cb465146104fb5761019c565b80636e0f3f1e1461040a57806370a0823114610426578063715018a6146104635761019c565b80632a55205a1161015957806341f434341161013357806341f434341461033657806342842e0e146103615780634c96a0621461038a5780636352211e146103cd5761019c565b80632a55205a146102c357806332cb6b0c146103015780633ccfd60b1461032c5761019c565b806301ffc9a7146101a157806306fdde03146101de578063081812fc14610209578063095ea7b31461024657806318160ddd1461026f57806323b872dd1461029a575b600080fd5b3480156101ad57600080fd5b506101c860048036038101906101c39190612ba5565b610671565b6040516101d59190612bed565b60405180910390f35b3480156101ea57600080fd5b506101f36106eb565b6040516102009190612ca1565b60405180910390f35b34801561021557600080fd5b50610230600480360381019061022b9190612cf9565b61077d565b60405161023d9190612d67565b60405180910390f35b34801561025257600080fd5b5061026d60048036038101906102689190612dae565b6107c3565b005b34801561027b57600080fd5b506102846107dc565b6040516102919190612dfd565b60405180910390f35b3480156102a657600080fd5b506102c160048036038101906102bc9190612e18565b6107ed565b005b3480156102cf57600080fd5b506102ea60048036038101906102e59190612e6b565b61083c565b6040516102f8929190612eab565b60405180910390f35b34801561030d57600080fd5b506103166108e5565b6040516103239190612dfd565b60405180910390f35b6103346108ea565b005b34801561034257600080fd5b5061034b6109a1565b6040516103589190612f33565b60405180910390f35b34801561036d57600080fd5b5061038860048036038101906103839190612e18565b6109b3565b005b34801561039657600080fd5b506103b160048036038101906103ac9190612cf9565b610a02565b6040516103c49796959493929190612f6a565b60405180910390f35b3480156103d957600080fd5b506103f460048036038101906103ef9190612cf9565b610b2a565b6040516104019190612d67565b60405180910390f35b610424600480360381019061041f9190613141565b610bb0565b005b34801561043257600080fd5b5061044d600480360381019061044891906131ff565b610f36565b60405161045a9190612dfd565b60405180910390f35b34801561046f57600080fd5b50610478610fed565b005b34801561048657600080fd5b5061048f611001565b60405161049c9190612d67565b60405180910390f35b3480156104b157600080fd5b506104ba61102b565b6040516104c79190612ca1565b60405180910390f35b3480156104dc57600080fd5b506104e56110bd565b6040516104f29190612d67565b60405180910390f35b34801561050757600080fd5b50610522600480360381019061051d9190613258565b6110e3565b005b34801561053057600080fd5b5061054b60048036038101906105469190613339565b6110fc565b005b34801561055957600080fd5b5061056261114d565b60405161056f9190612dfd565b60405180910390f35b34801561058457600080fd5b5061059f600480360381019061059a9190612cf9565b611158565b6040516105ac9190612ca1565b60405180910390f35b3480156105c157600080fd5b506105ca6111c0565b6040516105d79190613573565b60405180910390f35b3480156105ec57600080fd5b506105f561139c565b6040516106029190613573565b60405180910390f35b34801561061757600080fd5b50610632600480360381019061062d9190613595565b61153b565b60405161063f9190612bed565b60405180910390f35b34801561065457600080fd5b5061066f600480360381019061066a91906131ff565b6115cf565b005b60007f2a55205a000000000000000000000000000000000000000000000000000000007bffffffffffffffffffffffffffffffffffffffffffffffffffffffff1916827bffffffffffffffffffffffffffffffffffffffffffffffffffffffff191614806106e457506106e382611652565b5b9050919050565b6060600080546106fa90613604565b80601f016020809104026020016040519081016040528092919081815260200182805461072690613604565b80156107735780601f1061074857610100808354040283529160200191610773565b820191906000526020600020905b81548152906001019060200180831161075657829003601f168201915b5050505050905090565b600061078882611734565b6004600083815260200190815260200160002060009054906101000a900473ffffffffffffffffffffffffffffffffffffffff169050919050565b816107cd8161177f565b6107d7838361187c565b505050565b60006107e86007611993565b905090565b823373ffffffffffffffffffffffffffffffffffffffff168173ffffffffffffffffffffffffffffffffffffffff161461082b5761082a3361177f565b5b6108368484846119a1565b50505050565b60008061084884611a01565b610887576040517f08c379a000000000000000000000000000000000000000000000000000000000815260040161087e906136a7565b60405180910390fd5b600061271060648561089991906136f6565b6108a3919061377f565b90508381106108b5576108b46137b0565b5b600a60009054906101000a900473ffffffffffffffffffffffffffffffffffffffff168192509250509250929050565b606481565b6108f2611a42565b60003373ffffffffffffffffffffffffffffffffffffffff164760405161091890613810565b60006040518083038185875af1925050503d8060008114610955576040519150601f19603f3d011682016040523d82523d6000602084013e61095a565b606091505b505090508061099e576040517f08c379a000000000000000000000000000000000000000000000000000000000815260040161099590613871565b60405180910390fd5b50565b6daaeb6d7670e522a718067333cd4e81565b823373ffffffffffffffffffffffffffffffffffffffff168173ffffffffffffffffffffffffffffffffffffffff16146109f1576109f03361177f565b5b6109fc848484611ac0565b50505050565b60098181548110610a1257600080fd5b9060005260206000209060020201600091509050806000018054610a3590613604565b80601f0160208091040260200160405190810160405280929190818152602001828054610a6190613604565b8015610aae5780601f10610a8357610100808354040283529160200191610aae565b820191906000526020600020905b815481529060010190602001808311610a9157829003601f168201915b5050505050908060010160009054906101000a900460000b908060010160019054906101000a900460000b908060010160029054906101000a900460000b908060010160039054906101000a900460000b908060010160049054906101000a900460000b908060010160059054906101000a900460000b905087565b600080610b3683611ae0565b9050600073ffffffffffffffffffffffffffffffffffffffff168173ffffffffffffffffffffffffffffffffffffffff1603610ba7576040517f08c379a0000000000000000000000000000000000000000000000000000000008152600401610b9e906138dd565b60405180910390fd5b80915050919050565b6064610bba6107dc565b1115610bfb576040517f08c379a0000000000000000000000000000000000000000000000000000000008152600401610bf290613949565b60405180910390fd5b66038d7ea4c68000341015610c45576040517f08c379a0000000000000000000000000000000000000000000000000000000008152600401610c3c906139b5565b60405180910390fd5b610c4f6007611b1d565b610c6033610c5b6107dc565b611b33565b60006040518060e001604052808981526020018860000b81526020018760000b81526020018660000b81526020018560000b81526020018460000b81526020018360000b815250905060098190806001815401808255809150506001900390600052602060002090600202016000909190919091506000820151816000019080519060200190610cf1929190612a96565b5060208201518160010160006101000a81548160ff021916908360000b60ff16021790555060408201518160010160016101000a81548160ff021916908360000b60ff16021790555060608201518160010160026101000a81548160ff021916908360000b60ff16021790555060808201518160010160036101000a81548160ff021916908360000b60ff16021790555060a08201518160010160046101000a81548160ff021916908360000b60ff16021790555060c08201518160010160056101000a81548160ff021916908360000b60ff1602179055505050600860003373ffffffffffffffffffffffffffffffffffffffff1673ffffffffffffffffffffffffffffffffffffffff1681526020019081526020016000208190806001815401808255809150506001900390600052602060002090600202016000909190919091506000820151816000019080519060200190610e51929190612a96565b5060208201518160010160006101000a81548160ff021916908360000b60ff16021790555060408201518160010160016101000a81548160ff021916908360000b60ff16021790555060608201518160010160026101000a81548160ff021916908360000b60ff16021790555060808201518160010160036101000a81548160ff021916908360000b60ff16021790555060a08201518160010160046101000a81548160ff021916908360000b60ff16021790555060c08201518160010160056101000a81548160ff021916908360000b60ff16021790555050505050505050505050565b60008073ffffffffffffffffffffffffffffffffffffffff168273ffffffffffffffffffffffffffffffffffffffff1603610fa6576040517f08c379a0000000000000000000000000000000000000000000000000000000008152600401610f9d90613a47565b60405180910390fd5b600360008373ffffffffffffffffffffffffffffffffffffffff1673ffffffffffffffffffffffffffffffffffffffff168152602001908152602001600020549050919050565b610ff5611a42565b610fff6000611b51565b565b6000600660009054906101000a900473ffffffffffffffffffffffffffffffffffffffff16905090565b60606001805461103a90613604565b80601f016020809104026020016040519081016040528092919081815260200182805461106690613604565b80156110b35780601f10611088576101008083540402835291602001916110b3565b820191906000526020600020905b81548152906001019060200180831161109657829003601f168201915b5050505050905090565b600a60009054906101000a900473ffffffffffffffffffffffffffffffffffffffff1681565b816110ed8161177f565b6110f78383611c17565b505050565b833373ffffffffffffffffffffffffffffffffffffffff168173ffffffffffffffffffffffffffffffffffffffff161461113a576111393361177f565b5b61114685858585611c2d565b5050505050565b66038d7ea4c6800081565b606061116382611734565b600061116d611c8f565b9050600081511161118d57604051806020016040528060008152506111b8565b8061119784611ca6565b6040516020016111a8929190613aa3565b6040516020818303038152906040525b915050919050565b6060600860003373ffffffffffffffffffffffffffffffffffffffff1673ffffffffffffffffffffffffffffffffffffffff168152602001908152602001600020805480602002602001604051908101604052809291908181526020016000905b8282101561139357838290600052602060002090600202016040518060e001604052908160008201805461125490613604565b80601f016020809104026020016040519081016040528092919081815260200182805461128090613604565b80156112cd5780601f106112a2576101008083540402835291602001916112cd565b820191906000526020600020905b8154815290600101906020018083116112b057829003601f168201915b505050505081526020016001820160009054906101000a900460000b60000b60000b81526020016001820160019054906101000a900460000b60000b60000b81526020016001820160029054906101000a900460000b60000b60000b81526020016001820160039054906101000a900460000b60000b60000b81526020016001820160049054906101000a900460000b60000b60000b81526020016001820160059054906101000a900460000b60000b60000b8152505081526020019060010190611221565b50505050905090565b60606009805480602002602001604051908101604052809291908181526020016000905b8282101561153257838290600052602060002090600202016040518060e00160405290816000820180546113f390613604565b80601f016020809104026020016040519081016040528092919081815260200182805461141f90613604565b801561146c5780601f106114415761010080835404028352916020019161146c565b820191906000526020600020905b81548152906001019060200180831161144f57829003601f168201915b505050505081526020016001820160009054906101000a900460000b60000b60000b81526020016001820160019054906101000a900460000b60000b60000b81526020016001820160029054906101000a900460000b60000b60000b81526020016001820160039054906101000a900460000b60000b60000b81526020016001820160049054906101000a900460000b60000b60000b81526020016001820160059054906101000a900460000b60000b60000b81525050815260200190600101906113c0565b50505050905090565b6000600560008473ffffffffffffffffffffffffffffffffffffffff1673ffffffffffffffffffffffffffffffffffffffff16815260200190815260200160002060008373ffffffffffffffffffffffffffffffffffffffff1673ffffffffffffffffffffffffffffffffffffffff16815260200190815260200160002060009054906101000a900460ff16905092915050565b6115d7611a42565b600073ffffffffffffffffffffffffffffffffffffffff168173ffffffffffffffffffffffffffffffffffffffff1603611646576040517f08c379a000000000000000000000000000000000000000000000000000000000815260040161163d90613b39565b60405180910390fd5b61164f81611b51565b50565b60007f80ac58cd000000000000000000000000000000000000000000000000000000007bffffffffffffffffffffffffffffffffffffffffffffffffffffffff1916827bffffffffffffffffffffffffffffffffffffffffffffffffffffffff1916148061171d57507f5b5e139f000000000000000000000000000000000000000000000000000000007bffffffffffffffffffffffffffffffffffffffffffffffffffffffff1916827bffffffffffffffffffffffffffffffffffffffffffffffffffffffff1916145b8061172d575061172c82611d74565b5b9050919050565b61173d81611a01565b61177c576040517f08c379a0000000000000000000000000000000000000000000000000000000008152600401611773906138dd565b60405180910390fd5b50565b60006daaeb6d7670e522a718067333cd4e73ffffffffffffffffffffffffffffffffffffffff163b1115611879576daaeb6d7670e522a718067333cd4e73ffffffffffffffffffffffffffffffffffffffff1663c617113430836040518363ffffffff1660e01b81526004016117f6929190613b59565b602060405180830381865afa158015611813573d6000803e3d6000fd5b505050506040513d601f19601f820116820180604052508101906118379190613b97565b61187857806040517fede71dcc00000000000000000000000000000000000000000000000000000000815260040161186f9190612d67565b60405180910390fd5b5b50565b600061188782610b2a565b90508073ffffffffffffffffffffffffffffffffffffffff168373ffffffffffffffffffffffffffffffffffffffff16036118f7576040517f08c379a00000000000000000000000000000000000000000000000000000000081526004016118ee90613c36565b60405180910390fd5b8073ffffffffffffffffffffffffffffffffffffffff16611916611dde565b73ffffffffffffffffffffffffffffffffffffffff16148061194557506119448161193f611dde565b61153b565b5b611984576040517f08c379a000000000000000000000000000000000000000000000000000000000815260040161197b90613cc8565b60405180910390fd5b61198e8383611de6565b505050565b600081600001549050919050565b6119b26119ac611dde565b82611e9f565b6119f1576040517f08c379a00000000000000000000000000000000000000000000000000000000081526004016119e890613d5a565b60405180910390fd5b6119fc838383611f34565b505050565b60008073ffffffffffffffffffffffffffffffffffffffff16611a2383611ae0565b73ffffffffffffffffffffffffffffffffffffffff1614159050919050565b611a4a611dde565b73ffffffffffffffffffffffffffffffffffffffff16611a68611001565b73ffffffffffffffffffffffffffffffffffffffff1614611abe576040517f08c379a0000000000000000000000000000000000000000000000000000000008152600401611ab590613dc6565b60405180910390fd5b565b611adb838383604051806020016040528060008152506110fc565b505050565b60006002600083815260200190815260200160002060009054906101000a900473ffffffffffffffffffffffffffffffffffffffff169050919050565b6001816000016000828254019250508190555050565b611b4d82826040518060200160405280600081525061222d565b5050565b6000600660009054906101000a900473ffffffffffffffffffffffffffffffffffffffff16905081600660006101000a81548173ffffffffffffffffffffffffffffffffffffffff021916908373ffffffffffffffffffffffffffffffffffffffff1602179055508173ffffffffffffffffffffffffffffffffffffffff168173ffffffffffffffffffffffffffffffffffffffff167f8be0079c531659141344cd1fd0a4f28419497f9722a3daafe3b4186f6b6457e060405160405180910390a35050565b611c29611c22611dde565b8383612288565b5050565b611c3e611c38611dde565b83611e9f565b611c7d576040517f08c379a0000000000000000000000000000000000000000000000000000000008152600401611c7490613d5a565b60405180910390fd5b611c89848484846123f4565b50505050565b606060405180602001604052806000815250905090565b606060006001611cb584612450565b01905060008167ffffffffffffffff811115611cd457611cd3612fea565b5b6040519080825280601f01601f191660200182016040528015611d065781602001600182028036833780820191505090505b509050600082602001820190505b600115611d69578080600190039150507f3031323334353637383961626364656600000000000000000000000000000000600a86061a8153600a8581611d5d57611d5c613750565b5b04945060008503611d14575b819350505050919050565b60007f01ffc9a7000000000000000000000000000000000000000000000000000000007bffffffffffffffffffffffffffffffffffffffffffffffffffffffff1916827bffffffffffffffffffffffffffffffffffffffffffffffffffffffff1916149050919050565b600033905090565b816004600083815260200190815260200160002060006101000a81548173ffffffffffffffffffffffffffffffffffffffff021916908373ffffffffffffffffffffffffffffffffffffffff160217905550808273ffffffffffffffffffffffffffffffffffffffff16611e5983610b2a565b73ffffffffffffffffffffffffffffffffffffffff167f8c5be1e5ebec7d5bd14f71427d1e84f3dd0314c0f7b2291e5b200ac8c7c3b92560405160405180910390a45050565b600080611eab83610b2a565b90508073ffffffffffffffffffffffffffffffffffffffff168473ffffffffffffffffffffffffffffffffffffffff161480611eed5750611eec818561153b565b5b80611f2b57508373ffffffffffffffffffffffffffffffffffffffff16611f138461077d565b73ffffffffffffffffffffffffffffffffffffffff16145b91505092915050565b8273ffffffffffffffffffffffffffffffffffffffff16611f5482610b2a565b73ffffffffffffffffffffffffffffffffffffffff1614611faa576040517f08c379a0000000000000000000000000000000000000000000000000000000008152600401611fa190613e58565b60405180910390fd5b600073ffffffffffffffffffffffffffffffffffffffff168273ffffffffffffffffffffffffffffffffffffffff1603612019576040517f08c379a000000000000000000000000000000000000000000000000000000000815260040161201090613eea565b60405180910390fd5b61202683838360016125a3565b8273ffffffffffffffffffffffffffffffffffffffff1661204682610b2a565b73ffffffffffffffffffffffffffffffffffffffff161461209c576040517f08c379a000000000000000000000000000000000000000000000000000000000815260040161209390613e58565b60405180910390fd5b6004600082815260200190815260200160002060006101000a81549073ffffffffffffffffffffffffffffffffffffffff02191690556001600360008573ffffffffffffffffffffffffffffffffffffffff1673ffffffffffffffffffffffffffffffffffffffff168152602001908152602001600020600082825403925050819055506001600360008473ffffffffffffffffffffffffffffffffffffffff1673ffffffffffffffffffffffffffffffffffffffff16815260200190815260200160002060008282540192505081905550816002600083815260200190815260200160002060006101000a81548173ffffffffffffffffffffffffffffffffffffffff021916908373ffffffffffffffffffffffffffffffffffffffff160217905550808273ffffffffffffffffffffffffffffffffffffffff168473ffffffffffffffffffffffffffffffffffffffff167fddf252ad1be2c89b69c2b068fc378daa952ba7f163c4a11628f55a4df523b3ef60405160405180910390a461222883838360016126c9565b505050565b61223783836126cf565b61224460008484846128ec565b612283576040517f08c379a000000000000000000000000000000000000000000000000000000000815260040161227a90613f7c565b60405180910390fd5b505050565b8173ffffffffffffffffffffffffffffffffffffffff168373ffffffffffffffffffffffffffffffffffffffff16036122f6576040517f08c379a00000000000000000000000000000000000000000000000000000000081526004016122ed90613fe8565b60405180910390fd5b80600560008573ffffffffffffffffffffffffffffffffffffffff1673ffffffffffffffffffffffffffffffffffffffff16815260200190815260200160002060008473ffffffffffffffffffffffffffffffffffffffff1673ffffffffffffffffffffffffffffffffffffffff16815260200190815260200160002060006101000a81548160ff0219169083151502179055508173ffffffffffffffffffffffffffffffffffffffff168373ffffffffffffffffffffffffffffffffffffffff167f17307eab39ab6107e8899845ad3d59bd9653f200f220920489ca2b5937696c31836040516123e79190612bed565b60405180910390a3505050565b6123ff848484611f34565b61240b848484846128ec565b61244a576040517f08c379a000000000000000000000000000000000000000000000000000000000815260040161244190613f7c565b60405180910390fd5b50505050565b600080600090507a184f03e93ff9f4daa797ed6e38ed64bf6a1f01000000000000000083106124ae577a184f03e93ff9f4daa797ed6e38ed64bf6a1f01000000000000000083816124a4576124a3613750565b5b0492506040810190505b6d04ee2d6d415b85acef810000000083106124eb576d04ee2d6d415b85acef810000000083816124e1576124e0613750565b5b0492506020810190505b662386f26fc10000831061251a57662386f26fc1000083816125105761250f613750565b5b0492506010810190505b6305f5e1008310612543576305f5e100838161253957612538613750565b5b0492506008810190505b612710831061256857612710838161255e5761255d613750565b5b0492506004810190505b6064831061258b576064838161258157612580613750565b5b0492506002810190505b600a831061259a576001810190505b80915050919050565b60018111156126c357600073ffffffffffffffffffffffffffffffffffffffff168473ffffffffffffffffffffffffffffffffffffffff16146126375780600360008673ffffffffffffffffffffffffffffffffffffffff1673ffffffffffffffffffffffffffffffffffffffff168152602001908152602001600020600082825461262f9190614008565b925050819055505b600073ffffffffffffffffffffffffffffffffffffffff168373ffffffffffffffffffffffffffffffffffffffff16146126c25780600360008573ffffffffffffffffffffffffffffffffffffffff1673ffffffffffffffffffffffffffffffffffffffff16815260200190815260200160002060008282546126ba919061403c565b925050819055505b5b50505050565b50505050565b600073ffffffffffffffffffffffffffffffffffffffff168273ffffffffffffffffffffffffffffffffffffffff160361273e576040517f08c379a0000000000000000000000000000000000000000000000000000000008152600401612735906140de565b60405180910390fd5b61274781611a01565b15612787576040517f08c379a000000000000000000000000000000000000000000000000000000000815260040161277e9061414a565b60405180910390fd5b6127956000838360016125a3565b61279e81611a01565b156127de576040517f08c379a00000000000000000000000000000000000000000000000000000000081526004016127d59061414a565b60405180910390fd5b6001600360008473ffffffffffffffffffffffffffffffffffffffff1673ffffffffffffffffffffffffffffffffffffffff16815260200190815260200160002060008282540192505081905550816002600083815260200190815260200160002060006101000a81548173ffffffffffffffffffffffffffffffffffffffff021916908373ffffffffffffffffffffffffffffffffffffffff160217905550808273ffffffffffffffffffffffffffffffffffffffff16600073ffffffffffffffffffffffffffffffffffffffff167fddf252ad1be2c89b69c2b068fc378daa952ba7f163c4a11628f55a4df523b3ef60405160405180910390a46128e86000838360016126c9565b5050565b600061290d8473ffffffffffffffffffffffffffffffffffffffff16612a73565b15612a66578373ffffffffffffffffffffffffffffffffffffffff1663150b7a02612936611dde565b8786866040518563ffffffff1660e01b815260040161295894939291906141bf565b6020604051808303816000875af192505050801561299457506040513d601f19601f820116820180604052508101906129919190614220565b60015b612a16573d80600081146129c4576040519150601f19603f3d011682016040523d82523d6000602084013e6129c9565b606091505b506000815103612a0e576040517f08c379a0000000000000000000000000000000000000000000000000000000008152600401612a0590613f7c565b60405180910390fd5b805181602001fd5b63150b7a0260e01b7bffffffffffffffffffffffffffffffffffffffffffffffffffffffff1916817bffffffffffffffffffffffffffffffffffffffffffffffffffffffff191614915050612a6b565b600190505b949350505050565b6000808273ffffffffffffffffffffffffffffffffffffffff163b119050919050565b828054612aa290613604565b90600052602060002090601f016020900481019282612ac45760008555612b0b565b82601f10612add57805160ff1916838001178555612b0b565b82800160010185558215612b0b579182015b82811115612b0a578251825591602001919060010190612aef565b5b509050612b189190612b1c565b5090565b5b80821115612b35576000816000905550600101612b1d565b5090565b6000604051905090565b600080fd5b600080fd5b60007fffffffff0000000000000000000000000000000000000000000000000000000082169050919050565b612b8281612b4d565b8114612b8d57600080fd5b50565b600081359050612b9f81612b79565b92915050565b600060208284031215612bbb57612bba612b43565b5b6000612bc984828501612b90565b91505092915050565b60008115159050919050565b612be781612bd2565b82525050565b6000602082019050612c026000830184612bde565b92915050565b600081519050919050565b600082825260208201905092915050565b60005b83811015612c42578082015181840152602081019050612c27565b83811115612c51576000848401525b50505050565b6000601f19601f8301169050919050565b6000612c7382612c08565b612c7d8185612c13565b9350612c8d818560208601612c24565b612c9681612c57565b840191505092915050565b60006020820190508181036000830152612cbb8184612c68565b905092915050565b6000819050919050565b612cd681612cc3565b8114612ce157600080fd5b50565b600081359050612cf381612ccd565b92915050565b600060208284031215612d0f57612d0e612b43565b5b6000612d1d84828501612ce4565b91505092915050565b600073ffffffffffffffffffffffffffffffffffffffff82169050919050565b6000612d5182612d26565b9050919050565b612d6181612d46565b82525050565b6000602082019050612d7c6000830184612d58565b92915050565b612d8b81612d46565b8114612d9657600080fd5b50565b600081359050612da881612d82565b92915050565b60008060408385031215612dc557612dc4612b43565b5b6000612dd385828601612d99565b9250506020612de485828601612ce4565b9150509250929050565b612df781612cc3565b82525050565b6000602082019050612e126000830184612dee565b92915050565b600080600060608486031215612e3157612e30612b43565b5b6000612e3f86828701612d99565b9350506020612e5086828701612d99565b9250506040612e6186828701612ce4565b9150509250925092565b60008060408385031215612e8257612e81612b43565b5b6000612e9085828601612ce4565b9250506020612ea185828601612ce4565b9150509250929050565b6000604082019050612ec06000830185612d58565b612ecd6020830184612dee565b9392505050565b6000819050919050565b6000612ef9612ef4612eef84612d26565b612ed4565b612d26565b9050919050565b6000612f0b82612ede565b9050919050565b6000612f1d82612f00565b9050919050565b612f2d81612f12565b82525050565b6000602082019050612f486000830184612f24565b92915050565b60008160000b9050919050565b612f6481612f4e565b82525050565b600060e0820190508181036000830152612f84818a612c68565b9050612f936020830189612f5b565b612fa06040830188612f5b565b612fad6060830187612f5b565b612fba6080830186612f5b565b612fc760a0830185612f5b565b612fd460c0830184612f5b565b98975050505050505050565b600080fd5b600080fd5b7f4e487b7100000000000000000000000000000000000000000000000000000000600052604160045260246000fd5b61302282612c57565b810181811067ffffffffffffffff8211171561304157613040612fea565b5b80604052505050565b6000613054612b39565b90506130608282613019565b919050565b600067ffffffffffffffff8211156130805761307f612fea565b5b61308982612c57565b9050602081019050919050565b82818337600083830152505050565b60006130b86130b384613065565b61304a565b9050828152602081018484840111156130d4576130d3612fe5565b5b6130df848285613096565b509392505050565b600082601f8301126130fc576130fb612fe0565b5b813561310c8482602086016130a5565b91505092915050565b61311e81612f4e565b811461312957600080fd5b50565b60008135905061313b81613115565b92915050565b600080600080600080600060e0888a0312156131605761315f612b43565b5b600088013567ffffffffffffffff81111561317e5761317d612b48565b5b61318a8a828b016130e7565b975050602061319b8a828b0161312c565b96505060406131ac8a828b0161312c565b95505060606131bd8a828b0161312c565b94505060806131ce8a828b0161312c565b93505060a06131df8a828b0161312c565b92505060c06131f08a828b0161312c565b91505092959891949750929550565b60006020828403121561321557613214612b43565b5b600061322384828501612d99565b91505092915050565b61323581612bd2565b811461324057600080fd5b50565b6000813590506132528161322c565b92915050565b6000806040838503121561326f5761326e612b43565b5b600061327d85828601612d99565b925050602061328e85828601613243565b9150509250929050565b600067ffffffffffffffff8211156132b3576132b2612fea565b5b6132bc82612c57565b9050602081019050919050565b60006132dc6132d784613298565b61304a565b9050828152602081018484840111156132f8576132f7612fe5565b5b613303848285613096565b509392505050565b600082601f8301126133205761331f612fe0565b5b81356133308482602086016132c9565b91505092915050565b6000806000806080858703121561335357613352612b43565b5b600061336187828801612d99565b945050602061337287828801612d99565b935050604061338387828801612ce4565b925050606085013567ffffffffffffffff8111156133a4576133a3612b48565b5b6133b08782880161330b565b91505092959194509250565b600081519050919050565b600082825260208201905092915050565b6000819050602082019050919050565b600082825260208201905092915050565b600061340482612c08565b61340e81856133e8565b935061341e818560208601612c24565b61342781612c57565b840191505092915050565b61343b81612f4e565b82525050565b600060e083016000830151848203600086015261345e82826133f9565b91505060208301516134736020860182613432565b5060408301516134866040860182613432565b5060608301516134996060860182613432565b5060808301516134ac6080860182613432565b5060a08301516134bf60a0860182613432565b5060c08301516134d260c0860182613432565b508091505092915050565b60006134e98383613441565b905092915050565b6000602082019050919050565b6000613509826133bc565b61351381856133c7565b935083602082028501613525856133d8565b8060005b85811015613561578484038952815161354285826134dd565b945061354d836134f1565b925060208a01995050600181019050613529565b50829750879550505050505092915050565b6000602082019050818103600083015261358d81846134fe565b905092915050565b600080604083850312156135ac576135ab612b43565b5b60006135ba85828601612d99565b92505060206135cb85828601612d99565b9150509250929050565b7f4e487b7100000000000000000000000000000000000000000000000000000000600052602260045260246000fd5b6000600282049050600182168061361c57607f821691505b60208210810361362f5761362e6135d5565b5b50919050565b7f4552433732314d657461646174613a2055524920717565727920666f72206e6f60008201527f6e6578697374656e7420746f6b656e0000000000000000000000000000000000602082015250565b6000613691602f83612c13565b915061369c82613635565b604082019050919050565b600060208201905081810360008301526136c081613684565b9050919050565b7f4e487b7100000000000000000000000000000000000000000000000000000000600052601160045260246000fd5b600061370182612cc3565b915061370c83612cc3565b9250817fffffffffffffffffffffffffffffffffffffffffffffffffffffffffffffffff0483118215151615613745576137446136c7565b5b828202905092915050565b7f4e487b7100000000000000000000000000000000000000000000000000000000600052601260045260246000fd5b600061378a82612cc3565b915061379583612cc3565b9250826137a5576137a4613750565b5b828204905092915050565b7f4e487b7100000000000000000000000000000000000000000000000000000000600052600160045260246000fd5b600081905092915050565b50565b60006137fa6000836137df565b9150613805826137ea565b600082019050919050565b600061381b826137ed565b9150819050919050565b7f7472616e73666572206661696c65642e00000000000000000000000000000000600082015250565b600061385b601083612c13565b915061386682613825565b602082019050919050565b6000602082019050818103600083015261388a8161384e565b9050919050565b7f4552433732313a20696e76616c696420746f6b656e2049440000000000000000600082015250565b60006138c7601883612c13565b91506138d282613891565b602082019050919050565b600060208201905081810360008301526138f6816138ba565b9050919050565b7f4d617820737570706c7920657863656564656421000000000000000000000000600082015250565b6000613933601483612c13565b915061393e826138fd565b602082019050919050565b6000602082019050818103600083015261396281613926565b9050919050565b7f496e737566696369656e742066756e6473210000000000000000000000000000600082015250565b600061399f601283612c13565b91506139aa82613969565b602082019050919050565b600060208201905081810360008301526139ce81613992565b9050919050565b7f4552433732313a2061646472657373207a65726f206973206e6f74206120766160008201527f6c6964206f776e65720000000000000000000000000000000000000000000000602082015250565b6000613a31602983612c13565b9150613a3c826139d5565b604082019050919050565b60006020820190508181036000830152613a6081613a24565b9050919050565b600081905092915050565b6000613a7d82612c08565b613a878185613a67565b9350613a97818560208601612c24565b80840191505092915050565b6000613aaf8285613a72565b9150613abb8284613a72565b91508190509392505050565b7f4f776e61626c653a206e6577206f776e657220697320746865207a65726f206160008201527f6464726573730000000000000000000000000000000000000000000000000000602082015250565b6000613b23602683612c13565b9150613b2e82613ac7565b604082019050919050565b60006020820190508181036000830152613b5281613b16565b9050919050565b6000604082019050613b6e6000830185612d58565b613b7b6020830184612d58565b9392505050565b600081519050613b918161322c565b92915050565b600060208284031215613bad57613bac612b43565b5b6000613bbb84828501613b82565b91505092915050565b7f4552433732313a20617070726f76616c20746f2063757272656e74206f776e6560008201527f7200000000000000000000000000000000000000000000000000000000000000602082015250565b6000613c20602183612c13565b9150613c2b82613bc4565b604082019050919050565b60006020820190508181036000830152613c4f81613c13565b9050919050565b7f4552433732313a20617070726f76652063616c6c6572206973206e6f7420746f60008201527f6b656e206f776e6572206f7220617070726f76656420666f7220616c6c000000602082015250565b6000613cb2603d83612c13565b9150613cbd82613c56565b604082019050919050565b60006020820190508181036000830152613ce181613ca5565b9050919050565b7f4552433732313a2063616c6c6572206973206e6f7420746f6b656e206f776e6560008201527f72206f7220617070726f76656400000000000000000000000000000000000000602082015250565b6000613d44602d83612c13565b9150613d4f82613ce8565b604082019050919050565b60006020820190508181036000830152613d7381613d37565b9050919050565b7f4f776e61626c653a2063616c6c6572206973206e6f7420746865206f776e6572600082015250565b6000613db0602083612c13565b9150613dbb82613d7a565b602082019050919050565b60006020820190508181036000830152613ddf81613da3565b9050919050565b7f4552433732313a207472616e736665722066726f6d20696e636f72726563742060008201527f6f776e6572000000000000000000000000000000000000000000000000000000602082015250565b6000613e42602583612c13565b9150613e4d82613de6565b604082019050919050565b60006020820190508181036000830152613e7181613e35565b9050919050565b7f4552433732313a207472616e7366657220746f20746865207a65726f2061646460008201527f7265737300000000000000000000000000000000000000000000000000000000602082015250565b6000613ed4602483612c13565b9150613edf82613e78565b604082019050919050565b60006020820190508181036000830152613f0381613ec7565b9050919050565b7f4552433732313a207472616e7366657220746f206e6f6e20455243373231526560008201527f63656976657220696d706c656d656e7465720000000000000000000000000000602082015250565b6000613f66603283612c13565b9150613f7182613f0a565b604082019050919050565b60006020820190508181036000830152613f9581613f59565b9050919050565b7f4552433732313a20617070726f766520746f2063616c6c657200000000000000600082015250565b6000613fd2601983612c13565b9150613fdd82613f9c565b602082019050919050565b6000602082019050818103600083015261400181613fc5565b9050919050565b600061401382612cc3565b915061401e83612cc3565b925082821015614031576140306136c7565b5b828203905092915050565b600061404782612cc3565b915061405283612cc3565b9250827fffffffffffffffffffffffffffffffffffffffffffffffffffffffffffffffff03821115614087576140866136c7565b5b828201905092915050565b7f4552433732313a206d696e7420746f20746865207a65726f2061646472657373600082015250565b60006140c8602083612c13565b91506140d382614092565b602082019050919050565b600060208201905081810360008301526140f7816140bb565b9050919050565b7f4552433732313a20746f6b656e20616c7265616479206d696e74656400000000600082015250565b6000614134601c83612c13565b915061413f826140fe565b602082019050919050565b6000602082019050818103600083015261416381614127565b9050919050565b600081519050919050565b600082825260208201905092915050565b60006141918261416a565b61419b8185614175565b93506141ab818560208601612c24565b6141b481612c57565b840191505092915050565b60006080820190506141d46000830187612d58565b6141e16020830186612d58565b6141ee6040830185612dee565b81810360608301526142008184614186565b905095945050505050565b60008151905061421a81612b79565b92915050565b60006020828403121561423657614235612b43565b5b60006142448482850161420b565b9150509291505056fea26469706673582212200659597d040e9d153df56b21d61268dda20c895e1457b42f61ad40e13ad19ef464736f6c634300080d0033",
  "linkReferences": {},
  "deployedLinkReferences": {}
}