{
  "_format": "hh-sol-artifact-1",
  "contractName": "metaverse",
  "sourceName": "contracts/metaverse.sol",
  "abi": [
    {
      "inputs": [],
      "stateMutability": "nonpayable",
      "type": "constructor"
    },
    {
      "inputs": [
        {
          "internalType": "address",
          "name": "operator",
          "type": "address"
        }
      ],
      "name": "OperatorNotAllowed",
      "type": "error"
    },
    {
      "anonymous": false,
      "inputs": [
        {
          "indexed": true,
          "internalType": "address",
          "name": "owner",
          "type": "address"
        },
        {
          "indexed": true,
          "internalType": "address",
          "name": "approved",
          "type": "address"
        },
        {
          "indexed": true,
          "internalType": "uint256",
          "name": "tokenId",
          "type": "uint256"
        }
      ],
      "name": "Approval",
      "type": "event"
    },
    {
      "anonymous": false,
      "inputs": [
        {
          "indexed": true,
          "internalType": "address",
          "name": "owner",
          "type": "address"
        },
        {
          "indexed": true,
          "internalType": "address",
          "name": "operator",
          "type": "address"
        },
        {
          "indexed": false,
          "internalType": "bool",
          "name": "approved",
          "type": "bool"
        }
      ],
      "name": "ApprovalForAll",
      "type": "event"
    },
    {
      "anonymous": false,
      "inputs": [
        {
          "indexed": true,
          "internalType": "address",
          "name": "previousOwner",
          "type": "address"
        },
        {
          "indexed": true,
          "internalType": "address",
          "name": "newOwner",
          "type": "address"
        }
      ],
      "name": "OwnershipTransferred",
      "type": "event"
    },
    {
      "anonymous": false,
      "inputs": [
        {
          "indexed": true,
          "internalType": "address",
          "name": "from",
          "type": "address"
        },
        {
          "indexed": true,
          "internalType": "address",
          "name": "to",
          "type": "address"
        },
        {
          "indexed": true,
          "internalType": "uint256",
          "name": "tokenId",
          "type": "uint256"
        }
      ],
      "name": "Transfer",
      "type": "event"
    },
    {
      "inputs": [],
      "name": "COST",
      "outputs": [
        {
          "internalType": "uint256",
          "name": "",
          "type": "uint256"
        }
      ],
      "stateMutability": "view",
      "type": "function"
    },
    {
      "inputs": [],
      "name": "MAX_SUPPLY",
      "outputs": [
        {
          "internalType": "uint256",
          "name": "",
          "type": "uint256"
        }
      ],
      "stateMutability": "view",
      "type": "function"
    },
    {
      "inputs": [],
      "name": "OPERATOR_FILTER_REGISTRY",
      "outputs": [
        {
          "internalType": "contract IOperatorFilterRegistry",
          "name": "",
          "type": "address"
        }
      ],
      "stateMutability": "view",
      "type": "function"
    },
    {
      "inputs": [
        {
          "internalType": "address",
          "name": "operator",
          "type": "address"
        },
        {
          "internalType": "uint256",
          "name": "tokenId",
          "type": "uint256"
        }
      ],
      "name": "approve",
      "outputs": [],
      "stateMutability": "nonpayable",
      "type": "function"
    },
    {
      "inputs": [
        {
          "internalType": "address",
          "name": "owner",
          "type": "address"
        }
      ],
      "name": "balanceOf",
      "outputs": [
        {
          "internalType": "uint256",
          "name": "",
          "type": "uint256"
        }
      ],
      "stateMutability": "view",
      "type": "function"
    },
    {
      "inputs": [
        {
          "internalType": "uint256",
          "name": "",
          "type": "uint256"
        }
      ],
      "name": "buildings",
      "outputs": [
        {
          "internalType": "string",
          "name": "name",
          "type": "string"
        },
        {
          "internalType": "int8",
          "name": "w",
          "type": "int8"
        },
        {
          "internalType": "int8",
          "name": "h",
          "type": "int8"
        },
        {
          "internalType": "int8",
          "name": "d",
          "type": "int8"
        },
        {
          "internalType": "int8",
          "name": "x",
          "type": "int8"
        },
        {
          "internalType": "int8",
          "name": "y",
          "type": "int8"
        },
        {
          "internalType": "int8",
          "name": "z",
          "type": "int8"
        }
      ],
      "stateMutability": "view",
      "type": "function"
    },
    {
      "inputs": [
        {
          "internalType": "uint256",
          "name": "tokenId",
          "type": "uint256"
        }
      ],
      "name": "getApproved",
      "outputs": [
        {
          "internalType": "address",
          "name": "",
          "type": "address"
        }
      ],
      "stateMutability": "view",
      "type": "function"
    },
    {
      "inputs": [],
      "name": "getBuildings",
      "outputs": [
        {
          "components": [
            {
              "internalType": "string",
              "name": "name",
              "type": "string"
            },
            {
              "internalType": "int8",
              "name": "w",
              "type": "int8"
            },
            {
              "internalType": "int8",
              "name": "h",
              "type": "int8"
            },
            {
              "internalType": "int8",
              "name": "d",
              "type": "int8"
            },
            {
              "internalType": "int8",
              "name": "x",
              "type": "int8"
            },
            {
              "internalType": "int8",
              "name": "y",
              "type": "int8"
            },
            {
              "internalType": "int8",
              "name": "z",
              "type": "int8"
            }
          ],
          "internalType": "struct metaverse.Building[]",
          "name": "",
          "type": "tuple[]"
        }
      ],
      "stateMutability": "view",
      "type": "function"
    },
    {
      "inputs": [
        {
          "internalType": "address",
          "name": "propertyOwner",
          "type": "address"
        }
      ],
      "name": "getOwnerBuildings",
      "outputs": [
        {
          "components": [
            {
              "internalType": "string",
              "name": "name",
              "type": "string"
            },
            {
              "internalType": "int8",
              "name": "w",
              "type": "int8"
            },
            {
              "internalType": "int8",
              "name": "h",
              "type": "int8"
            },
            {
              "internalType": "int8",
              "name": "d",
              "type": "int8"
            },
            {
              "internalType": "int8",
              "name": "x",
              "type": "int8"
            },
            {
              "internalType": "int8",
              "name": "y",
              "type": "int8"
            },
            {
              "internalType": "int8",
              "name": "z",
              "type": "int8"
            }
          ],
          "internalType": "struct metaverse.Building[]",
          "name": "",
          "type": "tuple[]"
        }
      ],
      "stateMutability": "view",
      "type": "function"
    },
    {
      "inputs": [
        {
          "internalType": "address",
          "name": "owner",
          "type": "address"
        },
        {
          "internalType": "address",
          "name": "operator",
          "type": "address"
        }
      ],
      "name": "isApprovedForAll",
      "outputs": [
        {
          "internalType": "bool",
          "name": "",
          "type": "bool"
        }
      ],
      "stateMutability": "view",
      "type": "function"
    },
    {
      "inputs": [
        {
          "internalType": "string",
          "name": "_building_name",
          "type": "string"
        },
        {
          "internalType": "int8",
          "name": "_w",
          "type": "int8"
        },
        {
          "internalType": "int8",
          "name": "_h",
          "type": "int8"
        },
        {
          "internalType": "int8",
          "name": "_d",
          "type": "int8"
        },
        {
          "internalType": "int8",
          "name": "_x",
          "type": "int8"
        },
        {
          "internalType": "int8",
          "name": "_y",
          "type": "int8"
        },
        {
          "internalType": "int8",
          "name": "_z",
          "type": "int8"
        }
      ],
      "name": "mint",
      "outputs": [],
      "stateMutability": "payable",
      "type": "function"
    },
    {
      "inputs": [],
      "name": "name",
      "outputs": [
        {
          "internalType": "string",
          "name": "",
          "type": "string"
        }
      ],
      "stateMutability": "view",
      "type": "function"
    },
    {
      "inputs": [],
      "name": "owner",
      "outputs": [
        {
          "internalType": "address",
          "name": "",
          "type": "address"
        }
      ],
      "stateMutability": "view",
      "type": "function"
    },
    {
      "inputs": [
        {
          "internalType": "uint256",
          "name": "tokenId",
          "type": "uint256"
        }
      ],
      "name": "ownerOf",
      "outputs": [
        {
          "internalType": "address",
          "name": "",
          "type": "address"
        }
      ],
      "stateMutability": "view",
      "type": "function"
    },
    {
      "inputs": [],
      "name": "renounceOwnership",
      "outputs": [],
      "stateMutability": "nonpayable",
      "type": "function"
    },
    {
      "inputs": [
        {
          "internalType": "uint256",
          "name": "_tokenId",
          "type": "uint256"
        },
        {
          "internalType": "uint256",
          "name": "_salePrice",
          "type": "uint256"
        }
      ],
      "name": "royaltyInfo",
      "outputs": [
        {
          "internalType": "address",
          "name": "receiver",
          "type": "address"
        },
        {
          "internalType": "uint256",
          "name": "royaltyAmount",
          "type": "uint256"
        }
      ],
      "stateMutability": "view",
      "type": "function"
    },
    {
      "inputs": [],
      "name": "royaltyReceiver",
      "outputs": [
        {
          "internalType": "address",
          "name": "",
          "type": "address"
        }
      ],
      "stateMutability": "view",
      "type": "function"
    },
    {
      "inputs": [
        {
          "internalType": "address",
          "name": "from",
          "type": "address"
        },
        {
          "internalType": "address",
          "name": "to",
          "type": "address"
        },
        {
          "internalType": "uint256",
          "name": "tokenId",
          "type": "uint256"
        }
      ],
      "name": "safeTransferFrom",
      "outputs": [],
      "stateMutability": "nonpayable",
      "type": "function"
    },
    {
      "inputs": [
        {
          "internalType": "address",
          "name": "from",
          "type": "address"
        },
        {
          "internalType": "address",
          "name": "to",
          "type": "address"
        },
        {
          "internalType": "uint256",
          "name": "tokenId",
          "type": "uint256"
        },
        {
          "internalType": "bytes",
          "name": "data",
          "type": "bytes"
        }
      ],
      "name": "safeTransferFrom",
      "outputs": [],
      "stateMutability": "nonpayable",
      "type": "function"
    },
    {
      "inputs": [
        {
          "internalType": "address",
          "name": "operator",
          "type": "address"
        },
        {
          "internalType": "bool",
          "name": "approved",
          "type": "bool"
        }
      ],
      "name": "setApprovalForAll",
      "outputs": [],
      "stateMutability": "nonpayable",
      "type": "function"
    },
    {
      "inputs": [
        {
          "internalType": "bytes4",
          "name": "interfaceId",
          "type": "bytes4"
        }
      ],
      "name": "supportsInterface",
      "outputs": [
        {
          "internalType": "bool",
          "name": "",
          "type": "bool"
        }
      ],
      "stateMutability": "view",
      "type": "function"
    },
    {
      "inputs": [],
      "name": "symbol",
      "outputs": [
        {
          "internalType": "string",
          "name": "",
          "type": "string"
        }
      ],
      "stateMutability": "view",
      "type": "function"
    },
    {
      "inputs": [
        {
          "internalType": "uint256",
          "name": "tokenId",
          "type": "uint256"
        }
      ],
      "name": "tokenURI",
      "outputs": [
        {
          "internalType": "string",
          "name": "",
          "type": "string"
        }
      ],
      "stateMutability": "view",
      "type": "function"
    },
    {
      "inputs": [],
      "name": "totalSupply",
      "outputs": [
        {
          "internalType": "uint256",
          "name": "",
          "type": "uint256"
        }
      ],
      "stateMutability": "view",
      "type": "function"
    },
    {
      "inputs": [
        {
          "internalType": "address",
          "name": "from",
          "type": "address"
        },
        {
          "internalType": "address",
          "name": "to",
          "type": "address"
        },
        {
          "internalType": "uint256",
          "name": "tokenId",
          "type": "uint256"
        }
      ],
      "name": "transferFrom",
      "outputs": [],
      "stateMutability": "nonpayable",
      "type": "function"
    },
    {
      "inputs": [
        {
          "internalType": "address",
          "name": "newOwner",
          "type": "address"
        }
      ],
      "name": "transferOwnership",
      "outputs": [],
      "stateMutability": "nonpayable",
      "type": "function"
    },
    {
      "inputs": [],
      "name": "withdraw",
      "outputs": [],
      "stateMutability": "payable",
      "type": "function"
    }
  ],
  "bytecode": "0x60806040523480156200001157600080fd5b50733cc6cdda760b79bafa08df41ecfa224f810dceb660016040518060400160405280600f81526020017f47425742485f4d455441564552534500000000000000000000000000000000008152506040518060400160405280600a81526020017f47425742485f4d455441000000000000000000000000000000000000000000008152508160009080519060200190620000ad929190620003f5565b508060019080519060200190620000c6929190620003f5565b50505060006daaeb6d7670e522a718067333cd4e73ffffffffffffffffffffffffffffffffffffffff163b1115620002be57801562000184576daaeb6d7670e522a718067333cd4e73ffffffffffffffffffffffffffffffffffffffff16637d3e3dbe30846040518363ffffffff1660e01b81526004016200014a929190620004ea565b600060405180830381600087803b1580156200016557600080fd5b505af11580156200017a573d6000803e3d6000fd5b50505050620002bd565b600073ffffffffffffffffffffffffffffffffffffffff168273ffffffffffffffffffffffffffffffffffffffff16146200023e576daaeb6d7670e522a718067333cd4e73ffffffffffffffffffffffffffffffffffffffff1663a0af290330846040518363ffffffff1660e01b815260040162000204929190620004ea565b600060405180830381600087803b1580156200021f57600080fd5b505af115801562000234573d6000803e3d6000fd5b50505050620002bc565b6daaeb6d7670e522a718067333cd4e73ffffffffffffffffffffffffffffffffffffffff16634420e486306040518263ffffffff1660e01b815260040162000287919062000517565b600060405180830381600087803b158015620002a257600080fd5b505af1158015620002b7573d6000803e3d6000fd5b505050505b5b5b5050620002e0620002d46200032760201b60201c565b6200032f60201b60201c565b33600a60006101000a81548173ffffffffffffffffffffffffffffffffffffffff021916908373ffffffffffffffffffffffffffffffffffffffff16021790555062000598565b600033905090565b6000600660009054906101000a900473ffffffffffffffffffffffffffffffffffffffff16905081600660006101000a81548173ffffffffffffffffffffffffffffffffffffffff021916908373ffffffffffffffffffffffffffffffffffffffff1602179055508173ffffffffffffffffffffffffffffffffffffffff168173ffffffffffffffffffffffffffffffffffffffff167f8be0079c531659141344cd1fd0a4f28419497f9722a3daafe3b4186f6b6457e060405160405180910390a35050565b828054620004039062000563565b90600052602060002090601f01602090048101928262000427576000855562000473565b82601f106200044257805160ff191683800117855562000473565b8280016001018555821562000473579182015b828111156200047257825182559160200191906001019062000455565b5b50905062000482919062000486565b5090565b5b80821115620004a157600081600090555060010162000487565b5090565b600073ffffffffffffffffffffffffffffffffffffffff82169050919050565b6000620004d282620004a5565b9050919050565b620004e481620004c5565b82525050565b6000604082019050620005016000830185620004d9565b620005106020830184620004d9565b9392505050565b60006020820190506200052e6000830184620004d9565b92915050565b7f4e487b7100000000000000000000000000000000000000000000000000000000600052602260045260246000fd5b600060028204905060018216806200057c57607f821691505b60208210810362000592576200059162000534565b5b50919050565b61429780620005a86000396000f3fe60806040526004361061019c5760003560e01c80636e0f3f1e116100ec578063a22cb4651161008a578063c87b56dd11610064578063c87b56dd146105b5578063d9cf6a26146105f2578063e985e9c51461061d578063f2fde38b1461065a5761019c565b8063a22cb46514610538578063b88d4fde14610561578063bf8fbbd21461058a5761019c565b80638da5cb5b116100c65780638da5cb5b1461047a5780639429e815146104a557806395d89b41146104e25780639fbc87131461050d5761019c565b80636e0f3f1e1461040a57806370a0823114610426578063715018a6146104635761019c565b80632a55205a1161015957806341f434341161013357806341f434341461033657806342842e0e146103615780634c96a0621461038a5780636352211e146103cd5761019c565b80632a55205a146102c357806332cb6b0c146103015780633ccfd60b1461032c5761019c565b806301ffc9a7146101a157806306fdde03146101de578063081812fc14610209578063095ea7b31461024657806318160ddd1461026f57806323b872dd1461029a575b600080fd5b3480156101ad57600080fd5b506101c860048036038101906101c39190612bb9565b610683565b6040516101d59190612c01565b60405180910390f35b3480156101ea57600080fd5b506101f36106fd565b6040516102009190612cb5565b60405180910390f35b34801561021557600080fd5b50610230600480360381019061022b9190612d0d565b61078f565b60405161023d9190612d7b565b60405180910390f35b34801561025257600080fd5b5061026d60048036038101906102689190612dc2565b6107d5565b005b34801561027b57600080fd5b506102846107ee565b6040516102919190612e11565b60405180910390f35b3480156102a657600080fd5b506102c160048036038101906102bc9190612e2c565b6107ff565b005b3480156102cf57600080fd5b506102ea60048036038101906102e59190612e7f565b61084e565b6040516102f8929190612ebf565b60405180910390f35b34801561030d57600080fd5b506103166108f7565b6040516103239190612e11565b60405180910390f35b6103346108fc565b005b34801561034257600080fd5b5061034b6109b3565b6040516103589190612f47565b60405180910390f35b34801561036d57600080fd5b5061038860048036038101906103839190612e2c565b6109c5565b005b34801561039657600080fd5b506103b160048036038101906103ac9190612d0d565b610a14565b6040516103c49796959493929190612f7e565b60405180910390f35b3480156103d957600080fd5b506103f460048036038101906103ef9190612d0d565b610b3c565b6040516104019190612d7b565b60405180910390f35b610424600480360381019061041f9190613155565b610bc2565b005b34801561043257600080fd5b5061044d60048036038101906104489190613213565b610f48565b60405161045a9190612e11565b60405180910390f35b34801561046f57600080fd5b50610478610fff565b005b34801561048657600080fd5b5061048f611013565b60405161049c9190612d7b565b60405180910390f35b3480156104b157600080fd5b506104cc60048036038101906104c79190613213565b61103d565b6040516104d991906133f7565b60405180910390f35b3480156104ee57600080fd5b506104f761121b565b6040516105049190612cb5565b60405180910390f35b34801561051957600080fd5b506105226112ad565b60405161052f9190612d7b565b60405180910390f35b34801561054457600080fd5b5061055f600480360381019061055a9190613445565b6112d3565b005b34801561056d57600080fd5b5061058860048036038101906105839190613526565b6112ec565b005b34801561059657600080fd5b5061059f61133d565b6040516105ac9190612e11565b60405180910390f35b3480156105c157600080fd5b506105dc60048036038101906105d79190612d0d565b611348565b6040516105e99190612cb5565b60405180910390f35b3480156105fe57600080fd5b506106076113b0565b60405161061491906133f7565b60405180910390f35b34801561062957600080fd5b50610644600480360381019061063f91906135a9565b61154f565b6040516106519190612c01565b60405180910390f35b34801561066657600080fd5b50610681600480360381019061067c9190613213565b6115e3565b005b60007f2a55205a000000000000000000000000000000000000000000000000000000007bffffffffffffffffffffffffffffffffffffffffffffffffffffffff1916827bffffffffffffffffffffffffffffffffffffffffffffffffffffffff191614806106f657506106f582611666565b5b9050919050565b60606000805461070c90613618565b80601f016020809104026020016040519081016040528092919081815260200182805461073890613618565b80156107855780601f1061075a57610100808354040283529160200191610785565b820191906000526020600020905b81548152906001019060200180831161076857829003601f168201915b5050505050905090565b600061079a82611748565b6004600083815260200190815260200160002060009054906101000a900473ffffffffffffffffffffffffffffffffffffffff169050919050565b816107df81611793565b6107e98383611890565b505050565b60006107fa60076119a7565b905090565b823373ffffffffffffffffffffffffffffffffffffffff168173ffffffffffffffffffffffffffffffffffffffff161461083d5761083c33611793565b5b6108488484846119b5565b50505050565b60008061085a84611a15565b610899576040517f08c379a0000000000000000000000000000000000000000000000000000000008152600401610890906136bb565b60405180910390fd5b60006127106064856108ab919061370a565b6108b59190613793565b90508381106108c7576108c66137c4565b5b600a60009054906101000a900473ffffffffffffffffffffffffffffffffffffffff168192509250509250929050565b606481565b610904611a56565b60003373ffffffffffffffffffffffffffffffffffffffff164760405161092a90613824565b60006040518083038185875af1925050503d8060008114610967576040519150601f19603f3d011682016040523d82523d6000602084013e61096c565b606091505b50509050806109b0576040517f08c379a00000000000000000000000000000000000000000000000000000000081526004016109a790613885565b60405180910390fd5b50565b6daaeb6d7670e522a718067333cd4e81565b823373ffffffffffffffffffffffffffffffffffffffff168173ffffffffffffffffffffffffffffffffffffffff1614610a0357610a0233611793565b5b610a0e848484611ad4565b50505050565b60098181548110610a2457600080fd5b9060005260206000209060020201600091509050806000018054610a4790613618565b80601f0160208091040260200160405190810160405280929190818152602001828054610a7390613618565b8015610ac05780601f10610a9557610100808354040283529160200191610ac0565b820191906000526020600020905b815481529060010190602001808311610aa357829003601f168201915b5050505050908060010160009054906101000a900460000b908060010160019054906101000a900460000b908060010160029054906101000a900460000b908060010160039054906101000a900460000b908060010160049054906101000a900460000b908060010160059054906101000a900460000b905087565b600080610b4883611af4565b9050600073ffffffffffffffffffffffffffffffffffffffff168173ffffffffffffffffffffffffffffffffffffffff1603610bb9576040517f08c379a0000000000000000000000000000000000000000000000000000000008152600401610bb0906138f1565b60405180910390fd5b80915050919050565b6064610bcc6107ee565b1115610c0d576040517f08c379a0000000000000000000000000000000000000000000000000000000008152600401610c049061395d565b60405180910390fd5b66038d7ea4c68000341015610c57576040517f08c379a0000000000000000000000000000000000000000000000000000000008152600401610c4e906139c9565b60405180910390fd5b610c616007611b31565b610c7233610c6d6107ee565b611b47565b60006040518060e001604052808981526020018860000b81526020018760000b81526020018660000b81526020018560000b81526020018460000b81526020018360000b815250905060098190806001815401808255809150506001900390600052602060002090600202016000909190919091506000820151816000019080519060200190610d03929190612aaa565b5060208201518160010160006101000a81548160ff021916908360000b60ff16021790555060408201518160010160016101000a81548160ff021916908360000b60ff16021790555060608201518160010160026101000a81548160ff021916908360000b60ff16021790555060808201518160010160036101000a81548160ff021916908360000b60ff16021790555060a08201518160010160046101000a81548160ff021916908360000b60ff16021790555060c08201518160010160056101000a81548160ff021916908360000b60ff1602179055505050600860003373ffffffffffffffffffffffffffffffffffffffff1673ffffffffffffffffffffffffffffffffffffffff1681526020019081526020016000208190806001815401808255809150506001900390600052602060002090600202016000909190919091506000820151816000019080519060200190610e63929190612aaa565b5060208201518160010160006101000a81548160ff021916908360000b60ff16021790555060408201518160010160016101000a81548160ff021916908360000b60ff16021790555060608201518160010160026101000a81548160ff021916908360000b60ff16021790555060808201518160010160036101000a81548160ff021916908360000b60ff16021790555060a08201518160010160046101000a81548160ff021916908360000b60ff16021790555060c08201518160010160056101000a81548160ff021916908360000b60ff16021790555050505050505050505050565b60008073ffffffffffffffffffffffffffffffffffffffff168273ffffffffffffffffffffffffffffffffffffffff1603610fb8576040517f08c379a0000000000000000000000000000000000000000000000000000000008152600401610faf90613a5b565b60405180910390fd5b600360008373ffffffffffffffffffffffffffffffffffffffff1673ffffffffffffffffffffffffffffffffffffffff168152602001908152602001600020549050919050565b611007611a56565b6110116000611b65565b565b6000600660009054906101000a900473ffffffffffffffffffffffffffffffffffffffff16905090565b6060600860008373ffffffffffffffffffffffffffffffffffffffff1673ffffffffffffffffffffffffffffffffffffffff168152602001908152602001600020805480602002602001604051908101604052809291908181526020016000905b8282101561121057838290600052602060002090600202016040518060e00160405290816000820180546110d190613618565b80601f01602080910402602001604051908101604052809291908181526020018280546110fd90613618565b801561114a5780601f1061111f5761010080835404028352916020019161114a565b820191906000526020600020905b81548152906001019060200180831161112d57829003601f168201915b505050505081526020016001820160009054906101000a900460000b60000b60000b81526020016001820160019054906101000a900460000b60000b60000b81526020016001820160029054906101000a900460000b60000b60000b81526020016001820160039054906101000a900460000b60000b60000b81526020016001820160049054906101000a900460000b60000b60000b81526020016001820160059054906101000a900460000b60000b60000b815250508152602001906001019061109e565b505050509050919050565b60606001805461122a90613618565b80601f016020809104026020016040519081016040528092919081815260200182805461125690613618565b80156112a35780601f10611278576101008083540402835291602001916112a3565b820191906000526020600020905b81548152906001019060200180831161128657829003601f168201915b5050505050905090565b600a60009054906101000a900473ffffffffffffffffffffffffffffffffffffffff1681565b816112dd81611793565b6112e78383611c2b565b505050565b833373ffffffffffffffffffffffffffffffffffffffff168173ffffffffffffffffffffffffffffffffffffffff161461132a5761132933611793565b5b61133685858585611c41565b5050505050565b66038d7ea4c6800081565b606061135382611748565b600061135d611ca3565b9050600081511161137d57604051806020016040528060008152506113a8565b8061138784611cba565b604051602001611398929190613ab7565b6040516020818303038152906040525b915050919050565b60606009805480602002602001604051908101604052809291908181526020016000905b8282101561154657838290600052602060002090600202016040518060e001604052908160008201805461140790613618565b80601f016020809104026020016040519081016040528092919081815260200182805461143390613618565b80156114805780601f1061145557610100808354040283529160200191611480565b820191906000526020600020905b81548152906001019060200180831161146357829003601f168201915b505050505081526020016001820160009054906101000a900460000b60000b60000b81526020016001820160019054906101000a900460000b60000b60000b81526020016001820160029054906101000a900460000b60000b60000b81526020016001820160039054906101000a900460000b60000b60000b81526020016001820160049054906101000a900460000b60000b60000b81526020016001820160059054906101000a900460000b60000b60000b81525050815260200190600101906113d4565b50505050905090565b6000600560008473ffffffffffffffffffffffffffffffffffffffff1673ffffffffffffffffffffffffffffffffffffffff16815260200190815260200160002060008373ffffffffffffffffffffffffffffffffffffffff1673ffffffffffffffffffffffffffffffffffffffff16815260200190815260200160002060009054906101000a900460ff16905092915050565b6115eb611a56565b600073ffffffffffffffffffffffffffffffffffffffff168173ffffffffffffffffffffffffffffffffffffffff160361165a576040517f08c379a000000000000000000000000000000000000000000000000000000000815260040161165190613b4d565b60405180910390fd5b61166381611b65565b50565b60007f80ac58cd000000000000000000000000000000000000000000000000000000007bffffffffffffffffffffffffffffffffffffffffffffffffffffffff1916827bffffffffffffffffffffffffffffffffffffffffffffffffffffffff1916148061173157507f5b5e139f000000000000000000000000000000000000000000000000000000007bffffffffffffffffffffffffffffffffffffffffffffffffffffffff1916827bffffffffffffffffffffffffffffffffffffffffffffffffffffffff1916145b80611741575061174082611d88565b5b9050919050565b61175181611a15565b611790576040517f08c379a0000000000000000000000000000000000000000000000000000000008152600401611787906138f1565b60405180910390fd5b50565b60006daaeb6d7670e522a718067333cd4e73ffffffffffffffffffffffffffffffffffffffff163b111561188d576daaeb6d7670e522a718067333cd4e73ffffffffffffffffffffffffffffffffffffffff1663c617113430836040518363ffffffff1660e01b815260040161180a929190613b6d565b602060405180830381865afa158015611827573d6000803e3d6000fd5b505050506040513d601f19601f8201168201806040525081019061184b9190613bab565b61188c57806040517fede71dcc0000000000000000000000000000000000000000000000000000000081526004016118839190612d7b565b60405180910390fd5b5b50565b600061189b82610b3c565b90508073ffffffffffffffffffffffffffffffffffffffff168373ffffffffffffffffffffffffffffffffffffffff160361190b576040517f08c379a000000000000000000000000000000000000000000000000000000000815260040161190290613c4a565b60405180910390fd5b8073ffffffffffffffffffffffffffffffffffffffff1661192a611df2565b73ffffffffffffffffffffffffffffffffffffffff161480611959575061195881611953611df2565b61154f565b5b611998576040517f08c379a000000000000000000000000000000000000000000000000000000000815260040161198f90613cdc565b60405180910390fd5b6119a28383611dfa565b505050565b600081600001549050919050565b6119c66119c0611df2565b82611eb3565b611a05576040517f08c379a00000000000000000000000000000000000000000000000000000000081526004016119fc90613d6e565b60405180910390fd5b611a10838383611f48565b505050565b60008073ffffffffffffffffffffffffffffffffffffffff16611a3783611af4565b73ffffffffffffffffffffffffffffffffffffffff1614159050919050565b611a5e611df2565b73ffffffffffffffffffffffffffffffffffffffff16611a7c611013565b73ffffffffffffffffffffffffffffffffffffffff1614611ad2576040517f08c379a0000000000000000000000000000000000000000000000000000000008152600401611ac990613dda565b60405180910390fd5b565b611aef838383604051806020016040528060008152506112ec565b505050565b60006002600083815260200190815260200160002060009054906101000a900473ffffffffffffffffffffffffffffffffffffffff169050919050565b6001816000016000828254019250508190555050565b611b61828260405180602001604052806000815250612241565b5050565b6000600660009054906101000a900473ffffffffffffffffffffffffffffffffffffffff16905081600660006101000a81548173ffffffffffffffffffffffffffffffffffffffff021916908373ffffffffffffffffffffffffffffffffffffffff1602179055508173ffffffffffffffffffffffffffffffffffffffff168173ffffffffffffffffffffffffffffffffffffffff167f8be0079c531659141344cd1fd0a4f28419497f9722a3daafe3b4186f6b6457e060405160405180910390a35050565b611c3d611c36611df2565b838361229c565b5050565b611c52611c4c611df2565b83611eb3565b611c91576040517f08c379a0000000000000000000000000000000000000000000000000000000008152600401611c8890613d6e565b60405180910390fd5b611c9d84848484612408565b50505050565b606060405180602001604052806000815250905090565b606060006001611cc984612464565b01905060008167ffffffffffffffff811115611ce857611ce7612ffe565b5b6040519080825280601f01601f191660200182016040528015611d1a5781602001600182028036833780820191505090505b509050600082602001820190505b600115611d7d578080600190039150507f3031323334353637383961626364656600000000000000000000000000000000600a86061a8153600a8581611d7157611d70613764565b5b04945060008503611d28575b819350505050919050565b60007f01ffc9a7000000000000000000000000000000000000000000000000000000007bffffffffffffffffffffffffffffffffffffffffffffffffffffffff1916827bffffffffffffffffffffffffffffffffffffffffffffffffffffffff1916149050919050565b600033905090565b816004600083815260200190815260200160002060006101000a81548173ffffffffffffffffffffffffffffffffffffffff021916908373ffffffffffffffffffffffffffffffffffffffff160217905550808273ffffffffffffffffffffffffffffffffffffffff16611e6d83610b3c565b73ffffffffffffffffffffffffffffffffffffffff167f8c5be1e5ebec7d5bd14f71427d1e84f3dd0314c0f7b2291e5b200ac8c7c3b92560405160405180910390a45050565b600080611ebf83610b3c565b90508073ffffffffffffffffffffffffffffffffffffffff168473ffffffffffffffffffffffffffffffffffffffff161480611f015750611f00818561154f565b5b80611f3f57508373ffffffffffffffffffffffffffffffffffffffff16611f278461078f565b73ffffffffffffffffffffffffffffffffffffffff16145b91505092915050565b8273ffffffffffffffffffffffffffffffffffffffff16611f6882610b3c565b73ffffffffffffffffffffffffffffffffffffffff1614611fbe576040517f08c379a0000000000000000000000000000000000000000000000000000000008152600401611fb590613e6c565b60405180910390fd5b600073ffffffffffffffffffffffffffffffffffffffff168273ffffffffffffffffffffffffffffffffffffffff160361202d576040517f08c379a000000000000000000000000000000000000000000000000000000000815260040161202490613efe565b60405180910390fd5b61203a83838360016125b7565b8273ffffffffffffffffffffffffffffffffffffffff1661205a82610b3c565b73ffffffffffffffffffffffffffffffffffffffff16146120b0576040517f08c379a00000000000000000000000000000000000000000000000000000000081526004016120a790613e6c565b60405180910390fd5b6004600082815260200190815260200160002060006101000a81549073ffffffffffffffffffffffffffffffffffffffff02191690556001600360008573ffffffffffffffffffffffffffffffffffffffff1673ffffffffffffffffffffffffffffffffffffffff168152602001908152602001600020600082825403925050819055506001600360008473ffffffffffffffffffffffffffffffffffffffff1673ffffffffffffffffffffffffffffffffffffffff16815260200190815260200160002060008282540192505081905550816002600083815260200190815260200160002060006101000a81548173ffffffffffffffffffffffffffffffffffffffff021916908373ffffffffffffffffffffffffffffffffffffffff160217905550808273ffffffffffffffffffffffffffffffffffffffff168473ffffffffffffffffffffffffffffffffffffffff167fddf252ad1be2c89b69c2b068fc378daa952ba7f163c4a11628f55a4df523b3ef60405160405180910390a461223c83838360016126dd565b505050565b61224b83836126e3565b6122586000848484612900565b612297576040517f08c379a000000000000000000000000000000000000000000000000000000000815260040161228e90613f90565b60405180910390fd5b505050565b8173ffffffffffffffffffffffffffffffffffffffff168373ffffffffffffffffffffffffffffffffffffffff160361230a576040517f08c379a000000000000000000000000000000000000000000000000000000000815260040161230190613ffc565b60405180910390fd5b80600560008573ffffffffffffffffffffffffffffffffffffffff1673ffffffffffffffffffffffffffffffffffffffff16815260200190815260200160002060008473ffffffffffffffffffffffffffffffffffffffff1673ffffffffffffffffffffffffffffffffffffffff16815260200190815260200160002060006101000a81548160ff0219169083151502179055508173ffffffffffffffffffffffffffffffffffffffff168373ffffffffffffffffffffffffffffffffffffffff167f17307eab39ab6107e8899845ad3d59bd9653f200f220920489ca2b5937696c31836040516123fb9190612c01565b60405180910390a3505050565b612413848484611f48565b61241f84848484612900565b61245e576040517f08c379a000000000000000000000000000000000000000000000000000000000815260040161245590613f90565b60405180910390fd5b50505050565b600080600090507a184f03e93ff9f4daa797ed6e38ed64bf6a1f01000000000000000083106124c2577a184f03e93ff9f4daa797ed6e38ed64bf6a1f01000000000000000083816124b8576124b7613764565b5b0492506040810190505b6d04ee2d6d415b85acef810000000083106124ff576d04ee2d6d415b85acef810000000083816124f5576124f4613764565b5b0492506020810190505b662386f26fc10000831061252e57662386f26fc10000838161252457612523613764565b5b0492506010810190505b6305f5e1008310612557576305f5e100838161254d5761254c613764565b5b0492506008810190505b612710831061257c57612710838161257257612571613764565b5b0492506004810190505b6064831061259f576064838161259557612594613764565b5b0492506002810190505b600a83106125ae576001810190505b80915050919050565b60018111156126d757600073ffffffffffffffffffffffffffffffffffffffff168473ffffffffffffffffffffffffffffffffffffffff161461264b5780600360008673ffffffffffffffffffffffffffffffffffffffff1673ffffffffffffffffffffffffffffffffffffffff1681526020019081526020016000206000828254612643919061401c565b925050819055505b600073ffffffffffffffffffffffffffffffffffffffff168373ffffffffffffffffffffffffffffffffffffffff16146126d65780600360008573ffffffffffffffffffffffffffffffffffffffff1673ffffffffffffffffffffffffffffffffffffffff16815260200190815260200160002060008282546126ce9190614050565b925050819055505b5b50505050565b50505050565b600073ffffffffffffffffffffffffffffffffffffffff168273ffffffffffffffffffffffffffffffffffffffff1603612752576040517f08c379a0000000000000000000000000000000000000000000000000000000008152600401612749906140f2565b60405180910390fd5b61275b81611a15565b1561279b576040517f08c379a00000000000000000000000000000000000000000000000000000000081526004016127929061415e565b60405180910390fd5b6127a96000838360016125b7565b6127b281611a15565b156127f2576040517f08c379a00000000000000000000000000000000000000000000000000000000081526004016127e99061415e565b60405180910390fd5b6001600360008473ffffffffffffffffffffffffffffffffffffffff1673ffffffffffffffffffffffffffffffffffffffff16815260200190815260200160002060008282540192505081905550816002600083815260200190815260200160002060006101000a81548173ffffffffffffffffffffffffffffffffffffffff021916908373ffffffffffffffffffffffffffffffffffffffff160217905550808273ffffffffffffffffffffffffffffffffffffffff16600073ffffffffffffffffffffffffffffffffffffffff167fddf252ad1be2c89b69c2b068fc378daa952ba7f163c4a11628f55a4df523b3ef60405160405180910390a46128fc6000838360016126dd565b5050565b60006129218473ffffffffffffffffffffffffffffffffffffffff16612a87565b15612a7a578373ffffffffffffffffffffffffffffffffffffffff1663150b7a0261294a611df2565b8786866040518563ffffffff1660e01b815260040161296c94939291906141d3565b6020604051808303816000875af19250505080156129a857506040513d601f19601f820116820180604052508101906129a59190614234565b60015b612a2a573d80600081146129d8576040519150601f19603f3d011682016040523d82523d6000602084013e6129dd565b606091505b506000815103612a22576040517f08c379a0000000000000000000000000000000000000000000000000000000008152600401612a1990613f90565b60405180910390fd5b805181602001fd5b63150b7a0260e01b7bffffffffffffffffffffffffffffffffffffffffffffffffffffffff1916817bffffffffffffffffffffffffffffffffffffffffffffffffffffffff191614915050612a7f565b600190505b949350505050565b6000808273ffffffffffffffffffffffffffffffffffffffff163b119050919050565b828054612ab690613618565b90600052602060002090601f016020900481019282612ad85760008555612b1f565b82601f10612af157805160ff1916838001178555612b1f565b82800160010185558215612b1f579182015b82811115612b1e578251825591602001919060010190612b03565b5b509050612b2c9190612b30565b5090565b5b80821115612b49576000816000905550600101612b31565b5090565b6000604051905090565b600080fd5b600080fd5b60007fffffffff0000000000000000000000000000000000000000000000000000000082169050919050565b612b9681612b61565b8114612ba157600080fd5b50565b600081359050612bb381612b8d565b92915050565b600060208284031215612bcf57612bce612b57565b5b6000612bdd84828501612ba4565b91505092915050565b60008115159050919050565b612bfb81612be6565b82525050565b6000602082019050612c166000830184612bf2565b92915050565b600081519050919050565b600082825260208201905092915050565b60005b83811015612c56578082015181840152602081019050612c3b565b83811115612c65576000848401525b50505050565b6000601f19601f8301169050919050565b6000612c8782612c1c565b612c918185612c27565b9350612ca1818560208601612c38565b612caa81612c6b565b840191505092915050565b60006020820190508181036000830152612ccf8184612c7c565b905092915050565b6000819050919050565b612cea81612cd7565b8114612cf557600080fd5b50565b600081359050612d0781612ce1565b92915050565b600060208284031215612d2357612d22612b57565b5b6000612d3184828501612cf8565b91505092915050565b600073ffffffffffffffffffffffffffffffffffffffff82169050919050565b6000612d6582612d3a565b9050919050565b612d7581612d5a565b82525050565b6000602082019050612d906000830184612d6c565b92915050565b612d9f81612d5a565b8114612daa57600080fd5b50565b600081359050612dbc81612d96565b92915050565b60008060408385031215612dd957612dd8612b57565b5b6000612de785828601612dad565b9250506020612df885828601612cf8565b9150509250929050565b612e0b81612cd7565b82525050565b6000602082019050612e266000830184612e02565b92915050565b600080600060608486031215612e4557612e44612b57565b5b6000612e5386828701612dad565b9350506020612e6486828701612dad565b9250506040612e7586828701612cf8565b9150509250925092565b60008060408385031215612e9657612e95612b57565b5b6000612ea485828601612cf8565b9250506020612eb585828601612cf8565b9150509250929050565b6000604082019050612ed46000830185612d6c565b612ee16020830184612e02565b9392505050565b6000819050919050565b6000612f0d612f08612f0384612d3a565b612ee8565b612d3a565b9050919050565b6000612f1f82612ef2565b9050919050565b6000612f3182612f14565b9050919050565b612f4181612f26565b82525050565b6000602082019050612f5c6000830184612f38565b92915050565b60008160000b9050919050565b612f7881612f62565b82525050565b600060e0820190508181036000830152612f98818a612c7c565b9050612fa76020830189612f6f565b612fb46040830188612f6f565b612fc16060830187612f6f565b612fce6080830186612f6f565b612fdb60a0830185612f6f565b612fe860c0830184612f6f565b98975050505050505050565b600080fd5b600080fd5b7f4e487b7100000000000000000000000000000000000000000000000000000000600052604160045260246000fd5b61303682612c6b565b810181811067ffffffffffffffff8211171561305557613054612ffe565b5b80604052505050565b6000613068612b4d565b9050613074828261302d565b919050565b600067ffffffffffffffff82111561309457613093612ffe565b5b61309d82612c6b565b9050602081019050919050565b82818337600083830152505050565b60006130cc6130c784613079565b61305e565b9050828152602081018484840111156130e8576130e7612ff9565b5b6130f38482856130aa565b509392505050565b600082601f8301126131105761310f612ff4565b5b81356131208482602086016130b9565b91505092915050565b61313281612f62565b811461313d57600080fd5b50565b60008135905061314f81613129565b92915050565b600080600080600080600060e0888a03121561317457613173612b57565b5b600088013567ffffffffffffffff81111561319257613191612b5c565b5b61319e8a828b016130fb565b97505060206131af8a828b01613140565b96505060406131c08a828b01613140565b95505060606131d18a828b01613140565b94505060806131e28a828b01613140565b93505060a06131f38a828b01613140565b92505060c06132048a828b01613140565b91505092959891949750929550565b60006020828403121561322957613228612b57565b5b600061323784828501612dad565b91505092915050565b600081519050919050565b600082825260208201905092915050565b6000819050602082019050919050565b600082825260208201905092915050565b600061328882612c1c565b613292818561326c565b93506132a2818560208601612c38565b6132ab81612c6b565b840191505092915050565b6132bf81612f62565b82525050565b600060e08301600083015184820360008601526132e2828261327d565b91505060208301516132f760208601826132b6565b50604083015161330a60408601826132b6565b50606083015161331d60608601826132b6565b50608083015161333060808601826132b6565b5060a083015161334360a08601826132b6565b5060c083015161335660c08601826132b6565b508091505092915050565b600061336d83836132c5565b905092915050565b6000602082019050919050565b600061338d82613240565b613397818561324b565b9350836020820285016133a98561325c565b8060005b858110156133e557848403895281516133c68582613361565b94506133d183613375565b925060208a019950506001810190506133ad565b50829750879550505050505092915050565b600060208201905081810360008301526134118184613382565b905092915050565b61342281612be6565b811461342d57600080fd5b50565b60008135905061343f81613419565b92915050565b6000806040838503121561345c5761345b612b57565b5b600061346a85828601612dad565b925050602061347b85828601613430565b9150509250929050565b600067ffffffffffffffff8211156134a05761349f612ffe565b5b6134a982612c6b565b9050602081019050919050565b60006134c96134c484613485565b61305e565b9050828152602081018484840111156134e5576134e4612ff9565b5b6134f08482856130aa565b509392505050565b600082601f83011261350d5761350c612ff4565b5b813561351d8482602086016134b6565b91505092915050565b600080600080608085870312156135405761353f612b57565b5b600061354e87828801612dad565b945050602061355f87828801612dad565b935050604061357087828801612cf8565b925050606085013567ffffffffffffffff81111561359157613590612b5c565b5b61359d878288016134f8565b91505092959194509250565b600080604083850312156135c0576135bf612b57565b5b60006135ce85828601612dad565b92505060206135df85828601612dad565b9150509250929050565b7f4e487b7100000000000000000000000000000000000000000000000000000000600052602260045260246000fd5b6000600282049050600182168061363057607f821691505b602082108103613643576136426135e9565b5b50919050565b7f4552433732314d657461646174613a2055524920717565727920666f72206e6f60008201527f6e6578697374656e7420746f6b656e0000000000000000000000000000000000602082015250565b60006136a5602f83612c27565b91506136b082613649565b604082019050919050565b600060208201905081810360008301526136d481613698565b9050919050565b7f4e487b7100000000000000000000000000000000000000000000000000000000600052601160045260246000fd5b600061371582612cd7565b915061372083612cd7565b9250817fffffffffffffffffffffffffffffffffffffffffffffffffffffffffffffffff0483118215151615613759576137586136db565b5b828202905092915050565b7f4e487b7100000000000000000000000000000000000000000000000000000000600052601260045260246000fd5b600061379e82612cd7565b91506137a983612cd7565b9250826137b9576137b8613764565b5b828204905092915050565b7f4e487b7100000000000000000000000000000000000000000000000000000000600052600160045260246000fd5b600081905092915050565b50565b600061380e6000836137f3565b9150613819826137fe565b600082019050919050565b600061382f82613801565b9150819050919050565b7f7472616e73666572206661696c65642e00000000000000000000000000000000600082015250565b600061386f601083612c27565b915061387a82613839565b602082019050919050565b6000602082019050818103600083015261389e81613862565b9050919050565b7f4552433732313a20696e76616c696420746f6b656e2049440000000000000000600082015250565b60006138db601883612c27565b91506138e6826138a5565b602082019050919050565b6000602082019050818103600083015261390a816138ce565b9050919050565b7f4d617820737570706c7920657863656564656421000000000000000000000000600082015250565b6000613947601483612c27565b915061395282613911565b602082019050919050565b600060208201905081810360008301526139768161393a565b9050919050565b7f496e737566696369656e742066756e6473210000000000000000000000000000600082015250565b60006139b3601283612c27565b91506139be8261397d565b602082019050919050565b600060208201905081810360008301526139e2816139a6565b9050919050565b7f4552433732313a2061646472657373207a65726f206973206e6f74206120766160008201527f6c6964206f776e65720000000000000000000000000000000000000000000000602082015250565b6000613a45602983612c27565b9150613a50826139e9565b604082019050919050565b60006020820190508181036000830152613a7481613a38565b9050919050565b600081905092915050565b6000613a9182612c1c565b613a9b8185613a7b565b9350613aab818560208601612c38565b80840191505092915050565b6000613ac38285613a86565b9150613acf8284613a86565b91508190509392505050565b7f4f776e61626c653a206e6577206f776e657220697320746865207a65726f206160008201527f6464726573730000000000000000000000000000000000000000000000000000602082015250565b6000613b37602683612c27565b9150613b4282613adb565b604082019050919050565b60006020820190508181036000830152613b6681613b2a565b9050919050565b6000604082019050613b826000830185612d6c565b613b8f6020830184612d6c565b9392505050565b600081519050613ba581613419565b92915050565b600060208284031215613bc157613bc0612b57565b5b6000613bcf84828501613b96565b91505092915050565b7f4552433732313a20617070726f76616c20746f2063757272656e74206f776e6560008201527f7200000000000000000000000000000000000000000000000000000000000000602082015250565b6000613c34602183612c27565b9150613c3f82613bd8565b604082019050919050565b60006020820190508181036000830152613c6381613c27565b9050919050565b7f4552433732313a20617070726f76652063616c6c6572206973206e6f7420746f60008201527f6b656e206f776e6572206f7220617070726f76656420666f7220616c6c000000602082015250565b6000613cc6603d83612c27565b9150613cd182613c6a565b604082019050919050565b60006020820190508181036000830152613cf581613cb9565b9050919050565b7f4552433732313a2063616c6c6572206973206e6f7420746f6b656e206f776e6560008201527f72206f7220617070726f76656400000000000000000000000000000000000000602082015250565b6000613d58602d83612c27565b9150613d6382613cfc565b604082019050919050565b60006020820190508181036000830152613d8781613d4b565b9050919050565b7f4f776e61626c653a2063616c6c6572206973206e6f7420746865206f776e6572600082015250565b6000613dc4602083612c27565b9150613dcf82613d8e565b602082019050919050565b60006020820190508181036000830152613df381613db7565b9050919050565b7f4552433732313a207472616e736665722066726f6d20696e636f72726563742060008201527f6f776e6572000000000000000000000000000000000000000000000000000000602082015250565b6000613e56602583612c27565b9150613e6182613dfa565b604082019050919050565b60006020820190508181036000830152613e8581613e49565b9050919050565b7f4552433732313a207472616e7366657220746f20746865207a65726f2061646460008201527f7265737300000000000000000000000000000000000000000000000000000000602082015250565b6000613ee8602483612c27565b9150613ef382613e8c565b604082019050919050565b60006020820190508181036000830152613f1781613edb565b9050919050565b7f4552433732313a207472616e7366657220746f206e6f6e20455243373231526560008201527f63656976657220696d706c656d656e7465720000000000000000000000000000602082015250565b6000613f7a603283612c27565b9150613f8582613f1e565b604082019050919050565b60006020820190508181036000830152613fa981613f6d565b9050919050565b7f4552433732313a20617070726f766520746f2063616c6c657200000000000000600082015250565b6000613fe6601983612c27565b9150613ff182613fb0565b602082019050919050565b6000602082019050818103600083015261401581613fd9565b9050919050565b600061402782612cd7565b915061403283612cd7565b925082821015614045576140446136db565b5b828203905092915050565b600061405b82612cd7565b915061406683612cd7565b9250827fffffffffffffffffffffffffffffffffffffffffffffffffffffffffffffffff0382111561409b5761409a6136db565b5b828201905092915050565b7f4552433732313a206d696e7420746f20746865207a65726f2061646472657373600082015250565b60006140dc602083612c27565b91506140e7826140a6565b602082019050919050565b6000602082019050818103600083015261410b816140cf565b9050919050565b7f4552433732313a20746f6b656e20616c7265616479206d696e74656400000000600082015250565b6000614148601c83612c27565b915061415382614112565b602082019050919050565b600060208201905081810360008301526141778161413b565b9050919050565b600081519050919050565b600082825260208201905092915050565b60006141a58261417e565b6141af8185614189565b93506141bf818560208601612c38565b6141c881612c6b565b840191505092915050565b60006080820190506141e86000830187612d6c565b6141f56020830186612d6c565b6142026040830185612e02565b8181036060830152614214818461419a565b905095945050505050565b60008151905061422e81612b8d565b92915050565b60006020828403121561424a57614249612b57565b5b60006142588482850161421f565b9150509291505056fea2646970667358221220714f9c5954175769be11cd516aa36ab531df7f3b32acf16f8c7809ecc8b0810c64736f6c634300080d0033",
  "linkReferences": {},
  "deployedLinkReferences": {}
}